{
  "contractName": "DogcardFarm",
  "abi": [
    {
      "inputs": [
        {
          "internalType": "uint256",
          "name": "_emissionRate",
          "type": "uint256"
        },
        {
          "internalType": "contract IERC20",
          "name": "_lpToken",
          "type": "address"
        }
      ],
      "stateMutability": "nonpayable",
      "type": "constructor"
    },
    {
      "anonymous": false,
      "inputs": [
        {
          "indexed": true,
          "internalType": "address",
          "name": "previousOwner",
          "type": "address"
        },
        {
          "indexed": true,
          "internalType": "address",
          "name": "newOwner",
          "type": "address"
        }
      ],
      "name": "OwnershipTransferred",
      "type": "event"
    },
    {
      "inputs": [],
      "name": "emissionRate",
      "outputs": [
        {
          "internalType": "uint256",
          "name": "",
          "type": "uint256"
        }
      ],
      "stateMutability": "view",
      "type": "function"
    },
    {
      "inputs": [
        {
          "internalType": "uint256",
          "name": "",
          "type": "uint256"
        }
      ],
      "name": "nftInfo",
      "outputs": [
        {
          "internalType": "address",
          "name": "contractAddress",
          "type": "address"
        },
        {
          "internalType": "uint256",
          "name": "id",
          "type": "uint256"
        },
        {
          "internalType": "uint256",
          "name": "remaining",
          "type": "uint256"
        },
        {
          "internalType": "uint256",
          "name": "price",
          "type": "uint256"
        }
      ],
      "stateMutability": "view",
      "type": "function"
    },
    {
      "inputs": [],
      "name": "owner",
      "outputs": [
        {
          "internalType": "address",
          "name": "",
          "type": "address"
        }
      ],
      "stateMutability": "view",
      "type": "function"
    },
    {
      "inputs": [],
      "name": "renounceOwnership",
      "outputs": [],
      "stateMutability": "nonpayable",
      "type": "function"
    },
    {
      "inputs": [
        {
          "internalType": "address",
          "name": "newOwner",
          "type": "address"
        }
      ],
      "name": "transferOwnership",
      "outputs": [],
      "stateMutability": "nonpayable",
      "type": "function"
    },
    {
      "inputs": [
        {
          "internalType": "address",
          "name": "",
          "type": "address"
        }
      ],
      "name": "userInfo",
      "outputs": [
        {
          "internalType": "uint256",
          "name": "amount",
          "type": "uint256"
        },
        {
          "internalType": "uint256",
          "name": "lastUpdateAt",
          "type": "uint256"
        },
        {
          "internalType": "uint256",
          "name": "pointsDebt",
          "type": "uint256"
        }
      ],
      "stateMutability": "view",
      "type": "function"
    },
    {
      "inputs": [
        {
          "internalType": "address",
          "name": "contractAddress",
          "type": "address"
        },
        {
          "internalType": "uint256",
          "name": "id",
          "type": "uint256"
        },
        {
          "internalType": "uint256",
          "name": "total",
          "type": "uint256"
        },
        {
          "internalType": "uint256",
          "name": "price",
          "type": "uint256"
        }
      ],
      "name": "addNFT",
      "outputs": [],
      "stateMutability": "nonpayable",
      "type": "function"
    },
    {
      "inputs": [
        {
          "internalType": "uint256",
          "name": "_amount",
          "type": "uint256"
        }
      ],
      "name": "deposit",
      "outputs": [],
      "stateMutability": "nonpayable",
      "type": "function"
    },
    {
      "inputs": [
        {
          "internalType": "uint256",
          "name": "_nftIndex",
          "type": "uint256"
        },
        {
          "internalType": "uint256",
          "name": "_quantity",
          "type": "uint256"
        }
      ],
      "name": "claim",
      "outputs": [],
      "stateMutability": "nonpayable",
      "type": "function"
    },
    {
      "inputs": [
        {
          "internalType": "uint256[]",
          "name": "_nftIndex",
          "type": "uint256[]"
        },
        {
          "internalType": "uint256[]",
          "name": "_quantity",
          "type": "uint256[]"
        }
      ],
      "name": "claimMultiple",
      "outputs": [],
      "stateMutability": "nonpayable",
      "type": "function"
    },
    {
      "inputs": [],
      "name": "claimRandom",
      "outputs": [],
      "stateMutability": "nonpayable",
      "type": "function"
    },
    {
      "inputs": [
        {
          "internalType": "uint256",
          "name": "_amount",
          "type": "uint256"
        }
      ],
      "name": "withdraw",
      "outputs": [],
      "stateMutability": "nonpayable",
      "type": "function"
    },
    {
      "inputs": [],
      "name": "exit",
      "outputs": [],
      "stateMutability": "nonpayable",
      "type": "function"
    },
    {
      "inputs": [
        {
          "internalType": "address",
          "name": "userAddress",
          "type": "address"
        }
      ],
      "name": "pointsBalance",
      "outputs": [
        {
          "internalType": "uint256",
          "name": "",
          "type": "uint256"
        }
      ],
      "stateMutability": "view",
      "type": "function"
    },
    {
      "inputs": [],
      "name": "nftCount",
      "outputs": [
        {
          "internalType": "uint256",
          "name": "",
          "type": "uint256"
        }
      ],
      "stateMutability": "view",
      "type": "function"
    },
    {
      "inputs": [
        {
          "internalType": "address",
          "name": "operator",
          "type": "address"
        },
        {
          "internalType": "address",
          "name": "from",
          "type": "address"
        },
        {
          "internalType": "uint256",
          "name": "id",
          "type": "uint256"
        },
        {
          "internalType": "uint256",
          "name": "value",
          "type": "uint256"
        },
        {
          "internalType": "bytes",
          "name": "data",
          "type": "bytes"
        }
      ],
      "name": "onERC1155Received",
      "outputs": [
        {
          "internalType": "bytes4",
          "name": "",
          "type": "bytes4"
        }
      ],
      "stateMutability": "nonpayable",
      "type": "function"
    }
  ],
  "bytecode": "0x608060405234801561001057600080fd5b50604051611d71380380611d718339818101604052604081101561003357600080fd5b810190808051906020019092919080519060200190929190505050600061005e61014b60201b60201c565b9050806000806101000a81548173ffffffffffffffffffffffffffffffffffffffff021916908373ffffffffffffffffffffffffffffffffffffffff1602179055508073ffffffffffffffffffffffffffffffffffffffff16600073ffffffffffffffffffffffffffffffffffffffff167f8be0079c531659141344cd1fd0a4f28419497f9722a3daafe3b4186f6b6457e060405160405180910390a3508160018190555080600260006101000a81548173ffffffffffffffffffffffffffffffffffffffff021916908373ffffffffffffffffffffffffffffffffffffffff1602179055505050610153565b600033905090565b611c0f806101626000396000f3fe608060405234801561001057600080fd5b50600436106101005760003560e01c8063715018a611610097578063c349026311610066578063c349026314610440578063e9fad8ee14610478578063f23a6e6114610482578063f2fde38b1461058257610100565b8063715018a6146103b65780638da5cb5b146103c057806396afc450146103f4578063b6b55f251461041257610100565b806325ca4cff116100d357806325ca4cff146102585780632e1a7d4d146102b057806338c369f1146102de57806357db6e1d146102e857610100565b80630af2c6ca146101055780631959a002146101235780631f8bc7901461018957806324e8cab3146101f6575b600080fd5b61010d6105c6565b6040518082815260200191505060405180910390f35b6101656004803603602081101561013957600080fd5b81019080803573ffffffffffffffffffffffffffffffffffffffff1690602001909291905050506105d3565b60405180848152602001838152602001828152602001935050505060405180910390f35b6101b56004803603602081101561019f57600080fd5b81019080803590602001909291905050506105fd565b604051808573ffffffffffffffffffffffffffffffffffffffff16815260200184815260200183815260200182815260200194505050505060405180910390f35b6102566004803603608081101561020c57600080fd5b81019080803573ffffffffffffffffffffffffffffffffffffffff16906020019092919080359060200190929190803590602001909291908035906020019092919050505061065d565b005b61029a6004803603602081101561026e57600080fd5b81019080803573ffffffffffffffffffffffffffffffffffffffff1690602001909291905050506108b4565b6040518082815260200191505060405180910390f35b6102dc600480360360208110156102c657600080fd5b8101908080359060200190929190505050610948565b005b6102e6610a8f565b005b6103b4600480360360408110156102fe57600080fd5b810190808035906020019064010000000081111561031b57600080fd5b82018360208201111561032d57600080fd5b8035906020019184602083028401116401000000008311171561034f57600080fd5b90919293919293908035906020019064010000000081111561037057600080fd5b82018360208201111561038257600080fd5b803590602001918460208302840111640100000000831117156103a457600080fd5b9091929391929390505050610b66565b005b6103be610c4f565b005b6103c8610dd5565b604051808273ffffffffffffffffffffffffffffffffffffffff16815260200191505060405180910390f35b6103fc610dfe565b6040518082815260200191505060405180910390f35b61043e6004803603602081101561042857600080fd5b8101908080359060200190929190505050610e04565b005b6104766004803603604081101561045657600080fd5b810190808035906020019092919080359060200190929190505050610ee0565b005b61048061119f565b005b61054d600480360360a081101561049857600080fd5b81019080803573ffffffffffffffffffffffffffffffffffffffff169060200190929190803573ffffffffffffffffffffffffffffffffffffffff16906020019092919080359060200190929190803590602001909291908035906020019064010000000081111561050957600080fd5b82018360208201111561051b57600080fd5b8035906020019184600183028401116401000000008311171561053d57600080fd5b90919293919293905050506111f4565b60405180827bffffffffffffffffffffffffffffffffffffffffffffffffffffffff1916815260200191505060405180910390f35b6105c46004803603602081101561059857600080fd5b81019080803573ffffffffffffffffffffffffffffffffffffffff169060200190929190505050611223565b005b6000600380549050905090565b60046020528060005260406000206000915090508060000154908060010154908060020154905083565b6003818154811061060d57600080fd5b90600052602060002090600402016000915090508060000160009054906101000a900473ffffffffffffffffffffffffffffffffffffffff16908060010154908060020154908060030154905084565b61066561142e565b73ffffffffffffffffffffffffffffffffffffffff1660008054906101000a900473ffffffffffffffffffffffffffffffffffffffff1673ffffffffffffffffffffffffffffffffffffffff1614610725576040517f08c379a00000000000000000000000000000000000000000000000000000000081526004018080602001828103825260208152602001807f4f776e61626c653a2063616c6c6572206973206e6f7420746865206f776e657281525060200191505060405180910390fd5b8373ffffffffffffffffffffffffffffffffffffffff1663f242432a333086866040518563ffffffff1660e01b8152600401808573ffffffffffffffffffffffffffffffffffffffff1681526020018473ffffffffffffffffffffffffffffffffffffffff1681526020018381526020018281526020018060200182810382526000815260200195505050505050600060405180830381600087803b1580156107cd57600080fd5b505af11580156107e1573d6000803e3d6000fd5b50505050600360405180608001604052808673ffffffffffffffffffffffffffffffffffffffff16815260200185815260200184815260200183815250908060018154018082558091505060019003906000526020600020906004020160009091909190915060008201518160000160006101000a81548173ffffffffffffffffffffffffffffffffffffffff021916908373ffffffffffffffffffffffffffffffffffffffff160217905550602082015181600101556040820151816002015560608201518160030155505050505050565b600080600460008473ffffffffffffffffffffffffffffffffffffffff1673ffffffffffffffffffffffffffffffffffffffff1681526020019081526020016000206040518060600160405290816000820154815260200160018201548152602001600282015481525050905061094061092d82611436565b826040015161148090919063ffffffff16565b915050919050565b6000600460003373ffffffffffffffffffffffffffffffffffffffff1673ffffffffffffffffffffffffffffffffffffffff16815260200190815260200160002090508181600001541015610a05576040517f08c379a00000000000000000000000000000000000000000000000000000000081526004018080602001828103825260138152602001807f496e73756666696369656e74207374616b65640000000000000000000000000081525060200191505060405180910390fd5b610a0e336108b4565b8160020181905550610a2d82826000015461150890919063ffffffff16565b8160000181905550428160010181905550610a8b3383600260009054906101000a900473ffffffffffffffffffffffffffffffffffffffff1673ffffffffffffffffffffffffffffffffffffffff166115529092919063ffffffff16565b5050565b60005b610a9a6105c6565b8167ffffffffffffffff161015610b6357600060038267ffffffffffffffff1681548110610ac457fe5b906000526020600020906004020190506000610adf336108b4565b90506000610afa8360030154836115f490919063ffffffff16565b905060008360020154118015610b105750600081115b15610b535782600201548111610b3957610b348467ffffffffffffffff1682610ee0565b610b52565b610b518467ffffffffffffffff168460020154610ee0565b5b5b5050508080600101915050610a92565b50565b818190508484905014610be1576040517f08c379a00000000000000000000000000000000000000000000000000000000081526004018080602001828103825260168152602001807f496e636f7272656374206172726179206c656e6774680000000000000000000081525060200191505060405180910390fd5b60005b848490508167ffffffffffffffff161015610c4857610c3b85858367ffffffffffffffff16818110610c1257fe5b9050602002013584848467ffffffffffffffff16818110610c2f57fe5b90506020020135610ee0565b8080600101915050610be4565b5050505050565b610c5761142e565b73ffffffffffffffffffffffffffffffffffffffff1660008054906101000a900473ffffffffffffffffffffffffffffffffffffffff1673ffffffffffffffffffffffffffffffffffffffff1614610d17576040517f08c379a00000000000000000000000000000000000000000000000000000000081526004018080602001828103825260208152602001807f4f776e61626c653a2063616c6c6572206973206e6f7420746865206f776e657281525060200191505060405180910390fd5b600073ffffffffffffffffffffffffffffffffffffffff1660008054906101000a900473ffffffffffffffffffffffffffffffffffffffff1673ffffffffffffffffffffffffffffffffffffffff167f8be0079c531659141344cd1fd0a4f28419497f9722a3daafe3b4186f6b6457e060405160405180910390a360008060006101000a81548173ffffffffffffffffffffffffffffffffffffffff021916908373ffffffffffffffffffffffffffffffffffffffff160217905550565b60008060009054906101000a900473ffffffffffffffffffffffffffffffffffffffff16905090565b60015481565b610e53333083600260009054906101000a900473ffffffffffffffffffffffffffffffffffffffff1673ffffffffffffffffffffffffffffffffffffffff1661163e909392919063ffffffff16565b6000600460003373ffffffffffffffffffffffffffffffffffffffff1673ffffffffffffffffffffffffffffffffffffffff16815260200190815260200160002090506000816000015414610eb457610eab336108b4565b81600201819055505b610ecb82826000015461148090919063ffffffff16565b81600001819055504281600101819055505050565b600060038381548110610eef57fe5b906000526020600020906004020190506000816002015411610f79576040517f08c379a000000000000000000000000000000000000000000000000000000000815260040180806020018281038252600f8152602001807f416c6c204e465473206661726d6564000000000000000000000000000000000081525060200191505060405180910390fd5b610f908282600301546116ff90919063ffffffff16565b610f99336108b4565b101561100d576040517f08c379a00000000000000000000000000000000000000000000000000000000081526004018080602001828103825260138152602001807f496e73756666696369656e7420506f696e74730000000000000000000000000081525060200191505060405180910390fd5b6000600460003373ffffffffffffffffffffffffffffffffffffffff1673ffffffffffffffffffffffffffffffffffffffff168152602001908152602001600020905061108161106a8484600301546116ff90919063ffffffff16565b611073336108b4565b61150890919063ffffffff16565b81600201819055504281600101819055508160000160009054906101000a900473ffffffffffffffffffffffffffffffffffffffff1673ffffffffffffffffffffffffffffffffffffffff1663f242432a30338560010154876040518563ffffffff1660e01b8152600401808573ffffffffffffffffffffffffffffffffffffffff1681526020018473ffffffffffffffffffffffffffffffffffffffff1681526020018381526020018281526020018060200182810382526000815260200195505050505050600060405180830381600087803b15801561116257600080fd5b505af1158015611176573d6000803e3d6000fd5b5050505061119183836002015461150890919063ffffffff16565b826002018190555050505050565b6111a7610a8f565b6111f2600460003373ffffffffffffffffffffffffffffffffffffffff1673ffffffffffffffffffffffffffffffffffffffff16815260200190815260200160002060000154610948565b565b60007ff23a6e612e1ff4830e658fe43f4e3cb4a5f8170bd5d9e69fb5d7a7fa9e4fdf9790509695505050505050565b61122b61142e565b73ffffffffffffffffffffffffffffffffffffffff1660008054906101000a900473ffffffffffffffffffffffffffffffffffffffff1673ffffffffffffffffffffffffffffffffffffffff16146112eb576040517f08c379a00000000000000000000000000000000000000000000000000000000081526004018080602001828103825260208152602001807f4f776e61626c653a2063616c6c6572206973206e6f7420746865206f776e657281525060200191505060405180910390fd5b600073ffffffffffffffffffffffffffffffffffffffff168173ffffffffffffffffffffffffffffffffffffffff161415611371576040517f08c379a0000000000000000000000000000000000000000000000000000000008152600401808060200182810382526026815260200180611b696026913960400191505060405180910390fd5b8073ffffffffffffffffffffffffffffffffffffffff1660008054906101000a900473ffffffffffffffffffffffffffffffffffffffff1673ffffffffffffffffffffffffffffffffffffffff167f8be0079c531659141344cd1fd0a4f28419497f9722a3daafe3b4186f6b6457e060405160405180910390a3806000806101000a81548173ffffffffffffffffffffffffffffffffffffffff021916908373ffffffffffffffffffffffffffffffffffffffff16021790555050565b600033905090565b6000611479826000015161146b60015461145d86602001514261150890919063ffffffff16565b6116ff90919063ffffffff16565b6116ff90919063ffffffff16565b9050919050565b6000808284019050838110156114fe576040517f08c379a000000000000000000000000000000000000000000000000000000000815260040180806020018281038252601b8152602001807f536166654d6174683a206164646974696f6e206f766572666c6f77000000000081525060200191505060405180910390fd5b8091505092915050565b600061154a83836040518060400160405280601e81526020017f536166654d6174683a207375627472616374696f6e206f766572666c6f770000815250611785565b905092915050565b6115ef8363a9059cbb60e01b8484604051602401808373ffffffffffffffffffffffffffffffffffffffff16815260200182815260200192505050604051602081830303815290604052907bffffffffffffffffffffffffffffffffffffffffffffffffffffffff19166020820180517bffffffffffffffffffffffffffffffffffffffffffffffffffffffff8381831617835250505050611845565b505050565b600061163683836040518060400160405280601a81526020017f536166654d6174683a206469766973696f6e206279207a65726f000000000000815250611a8f565b905092915050565b6116f9846323b872dd60e01b858585604051602401808473ffffffffffffffffffffffffffffffffffffffff1681526020018373ffffffffffffffffffffffffffffffffffffffff1681526020018281526020019350505050604051602081830303815290604052907bffffffffffffffffffffffffffffffffffffffffffffffffffffffff19166020820180517bffffffffffffffffffffffffffffffffffffffffffffffffffffffff8381831617835250505050611845565b50505050565b600080831415611712576000905061177f565b600082840290508284828161172357fe5b041461177a576040517f08c379a0000000000000000000000000000000000000000000000000000000008152600401808060200182810382526021815260200180611b8f6021913960400191505060405180910390fd5b809150505b92915050565b6000838311158290611832576040517f08c379a00000000000000000000000000000000000000000000000000000000081526004018080602001828103825283818151815260200191508051906020019080838360005b838110156117f75780820151818401526020810190506117dc565b50505050905090810190601f1680156118245780820380516001836020036101000a031916815260200191505b509250505060405180910390fd5b5060008385039050809150509392505050565b6118648273ffffffffffffffffffffffffffffffffffffffff16611b55565b6118d6576040517f08c379a000000000000000000000000000000000000000000000000000000000815260040180806020018281038252601f8152602001807f5361666545524332303a2063616c6c20746f206e6f6e2d636f6e74726163740081525060200191505060405180910390fd5b6000808373ffffffffffffffffffffffffffffffffffffffff16836040518082805190602001908083835b602083106119245780518252602082019150602081019050602083039250611901565b6001836020036101000a0380198251168184511680821785525050505050509050019150506000604051808303816000865af19150503d8060008114611986576040519150601f19603f3d011682016040523d82523d6000602084013e61198b565b606091505b509150915081611a03576040517f08c379a00000000000000000000000000000000000000000000000000000000081526004018080602001828103825260208152602001807f5361666545524332303a206c6f772d6c6576656c2063616c6c206661696c656481525060200191505060405180910390fd5b600081511115611a8957808060200190516020811015611a2257600080fd5b8101908080519060200190929190505050611a88576040517f08c379a000000000000000000000000000000000000000000000000000000000815260040180806020018281038252602a815260200180611bb0602a913960400191505060405180910390fd5b5b50505050565b60008083118290611b3b576040517f08c379a00000000000000000000000000000000000000000000000000000000081526004018080602001828103825283818151815260200191508051906020019080838360005b83811015611b00578082015181840152602081019050611ae5565b50505050905090810190601f168015611b2d5780820380516001836020036101000a031916815260200191505b509250505060405180910390fd5b506000838581611b4757fe5b049050809150509392505050565b600080823b90506000811191505091905056fe4f776e61626c653a206e6577206f776e657220697320746865207a65726f2061646472657373536166654d6174683a206d756c7469706c69636174696f6e206f766572666c6f775361666545524332303a204552433230206f7065726174696f6e20646964206e6f742073756363656564a2646970667358221220b423c52a11ab069bd7b07e6c5f1fccac11a8fd05af7c5b0a1b72aaa091f208a564736f6c63430007060033",
  "immutableReferences": {},
  "source": "// SPDX-License-Identifier: MIT\n\npragma solidity ^0.7.3;\n\nimport \"./lib/SafeMath.sol\";\nimport \"./lib/Ownable.sol\";\nimport \"./lib/IERC20.sol\";\nimport \"./lib/IERC1155.sol\";\nimport \"./lib/SafeERC20.sol\";\n\n/**\n * User Flow:\n * NFT's are deposited into this contract, having some Price as `points` associated to them.\n * In order to claim an NFT, the user must have sufficient `points` to reach Price threshold.\n * To increase `points` balance, user must deposit lp tokens to this contract.\n * `points` balance increases dynamically with each passing second allowing user to Farm NFTs!\n * \n */\n\ncontract DogcardFarm is Ownable {\n    using SafeMath for uint256;\n    using SafeERC20 for IERC20;\n    \n    struct UserInfo {\n        uint256 amount;         // current staked LP\n        uint256 lastUpdateAt;   // unix timestamp for last details update (when pointsDebt calculated)\n        uint256 pointsDebt;     // total points collected before latest deposit\n    }\n    \n    struct NFTInfo {\n        address contractAddress;\n        uint256 id;             // NFT id\n        uint256 remaining;      // NFTs remaining to farm\n        uint256 price;          // points required to claim NFT\n    }\n    \n    uint256 public emissionRate;       // points generated per LP token per second staked\n    IERC20 lpToken;                    // token being staked\n    \n    NFTInfo[] public nftInfo;\n    mapping(address => UserInfo) public userInfo;\n    \n    constructor(uint256 _emissionRate, IERC20 _lpToken) public {\n        emissionRate = _emissionRate;\n        lpToken = _lpToken;\n    }\n    \n    function addNFT(\n        address contractAddress,    // Only ERC-1155 NFT Supported!\n        uint256 id,\n        uint256 total,              // amount of NFTs deposited to farm (need to approve before)\n        uint256 price\n    ) external onlyOwner {\n        IERC1155(contractAddress).safeTransferFrom(\n            msg.sender,\n            address(this),\n            id,\n            total,\n            \"\"\n        );\n        nftInfo.push(NFTInfo({\n            contractAddress: contractAddress,\n            id: id,\n            remaining: total,\n            price: price\n        }));\n    }\n    \n    function deposit(uint256 _amount) external {\n        lpToken.safeTransferFrom(\n            msg.sender,\n            address(this),\n            _amount\n        );\n        \n        UserInfo storage user = userInfo[msg.sender];\n        \n        // already deposited before\n        if(user.amount != 0) {\n            user.pointsDebt = pointsBalance(msg.sender);\n        }\n        user.amount = user.amount.add(_amount);\n        user.lastUpdateAt = block.timestamp;\n    }\n    \n    // claim nft if points threshold reached\n    function claim(uint256 _nftIndex, uint256 _quantity) public {\n        NFTInfo storage nft = nftInfo[_nftIndex];\n        require(nft.remaining > 0, \"All NFTs farmed\");\n        require(pointsBalance(msg.sender) >= nft.price.mul(_quantity), \"Insufficient Points\");\n        UserInfo storage user = userInfo[msg.sender];\n        \n        // deduct points\n        user.pointsDebt = pointsBalance(msg.sender).sub(nft.price.mul(_quantity));\n        user.lastUpdateAt = block.timestamp;\n        \n        // transfer nft\n        IERC1155(nft.contractAddress).safeTransferFrom(\n            address(this),\n            msg.sender,\n            nft.id,\n            _quantity,\n            \"\"\n        );\n        \n        nft.remaining = nft.remaining.sub(_quantity);\n    }\n    \n    function claimMultiple(uint256[] calldata _nftIndex, uint256[] calldata _quantity) external {\n        require(_nftIndex.length == _quantity.length, \"Incorrect array length\");\n        for(uint64 i=0; i< _nftIndex.length; i++) {\n            claim(_nftIndex[i], _quantity[i]);\n        }\n    }\n    \n    // claim random nft's from available balance\n    function claimRandom() public {\n        for(uint64 i; i < nftCount(); i++) {\n            NFTInfo storage nft = nftInfo[i];\n            uint256 userBalance = pointsBalance(msg.sender);\n            uint256 maxQty = userBalance.div(nft.price);        // max quantity of nfts user can claim\n            if(nft.remaining > 0 && maxQty > 0) {\n                if(maxQty <= nft.remaining) {\n                    claim(i, maxQty);\n                } else {\n                    claim(i, nft.remaining);\n                }\n            }\n        }\n    }\n    \n    function withdraw(uint256 _amount) public {\n        UserInfo storage user = userInfo[msg.sender];\n        require(user.amount >= _amount, \"Insufficient staked\");\n        \n        // update userInfo\n        user.pointsDebt = pointsBalance(msg.sender);\n        user.amount = user.amount.sub(_amount);\n        user.lastUpdateAt = block.timestamp;\n        \n        lpToken.safeTransfer(\n            msg.sender,\n            _amount\n        );\n    }\n    \n    // claim random NFTs and withdraw all LP tokens\n    function exit() external {\n        claimRandom();\n        withdraw(userInfo[msg.sender].amount);\n    }\n    \n    function pointsBalance(address userAddress) public view returns (uint256) {\n        UserInfo memory user = userInfo[userAddress];\n        return user.pointsDebt.add(_unDebitedPoints(user));\n    }\n    \n    function _unDebitedPoints(UserInfo memory user) internal view returns (uint256) {\n        return block.timestamp.sub(user.lastUpdateAt).mul(emissionRate).mul(user.amount);\n    }\n    \n    function nftCount() public view returns (uint256) {\n        return nftInfo.length;\n    }\n    \n    // required function to allow receiving ERC-1155\n    function onERC1155Received(\n        address operator,\n        address from,\n        uint256 id,\n        uint256 value,\n        bytes calldata data\n    )\n        external\n        returns(bytes4)\n    {\n        return bytes4(keccak256(\"onERC1155Received(address,address,uint256,uint256,bytes)\"));\n    }\n}\n",
  "sourcePath": "/home/alexander87/Desktop/WSDG/contracts/DogcardFarm.sol",
  "compiler": {
    "name": "solc",
    "version": "0.7.6+commit.7338295f.Emscripten.clang"
  },
  "schemaVersion": "3.3.4",
  "updatedAt": "2021-02-18T19:58:57.180Z",
  "devdoc": {
    "kind": "dev",
    "methods": {
      "owner()": {
        "details": "Returns the address of the current owner."
      },
      "renounceOwnership()": {
        "details": "Leaves the contract without owner. It will not be possible to call `onlyOwner` functions anymore. Can only be called by the current owner. NOTE: Renouncing ownership will leave the contract without an owner, thereby removing any functionality that is only available to the owner."
      },
      "transferOwnership(address)": {
        "details": "Transfers ownership of the contract to a new account (`newOwner`). Can only be called by the current owner."
      }
    },
    "version": 1
  },
  "userdoc": {
    "kind": "user",
    "methods": {},
    "notice": "User Flow: NFT's are deposited into this contract, having some Price as `points` associated to them. In order to claim an NFT, the user must have sufficient `points` to reach Price threshold. To increase `points` balance, user must deposit lp tokens to this contract. `points` balance increases dynamically with each passing second allowing user to Farm NFTs! ",
    "version": 1
  }
}