{
  "contractName": "Dogcard",
  "abi": [
    {
      "inputs": [],
      "stateMutability": "nonpayable",
      "type": "constructor"
    },
    {
      "anonymous": false,
      "inputs": [
        {
          "indexed": true,
          "internalType": "address",
          "name": "account",
          "type": "address"
        },
        {
          "indexed": true,
          "internalType": "address",
          "name": "operator",
          "type": "address"
        },
        {
          "indexed": false,
          "internalType": "bool",
          "name": "approved",
          "type": "bool"
        }
      ],
      "name": "ApprovalForAll",
      "type": "event"
    },
    {
      "anonymous": false,
      "inputs": [
        {
          "indexed": true,
          "internalType": "address",
          "name": "previousOwner",
          "type": "address"
        },
        {
          "indexed": true,
          "internalType": "address",
          "name": "newOwner",
          "type": "address"
        }
      ],
      "name": "OwnershipTransferred",
      "type": "event"
    },
    {
      "anonymous": false,
      "inputs": [
        {
          "indexed": true,
          "internalType": "address",
          "name": "operator",
          "type": "address"
        },
        {
          "indexed": true,
          "internalType": "address",
          "name": "from",
          "type": "address"
        },
        {
          "indexed": true,
          "internalType": "address",
          "name": "to",
          "type": "address"
        },
        {
          "indexed": false,
          "internalType": "uint256[]",
          "name": "ids",
          "type": "uint256[]"
        },
        {
          "indexed": false,
          "internalType": "uint256[]",
          "name": "values",
          "type": "uint256[]"
        }
      ],
      "name": "TransferBatch",
      "type": "event"
    },
    {
      "anonymous": false,
      "inputs": [
        {
          "indexed": true,
          "internalType": "address",
          "name": "operator",
          "type": "address"
        },
        {
          "indexed": true,
          "internalType": "address",
          "name": "from",
          "type": "address"
        },
        {
          "indexed": true,
          "internalType": "address",
          "name": "to",
          "type": "address"
        },
        {
          "indexed": false,
          "internalType": "uint256",
          "name": "id",
          "type": "uint256"
        },
        {
          "indexed": false,
          "internalType": "uint256",
          "name": "value",
          "type": "uint256"
        }
      ],
      "name": "TransferSingle",
      "type": "event"
    },
    {
      "anonymous": false,
      "inputs": [
        {
          "indexed": false,
          "internalType": "string",
          "name": "value",
          "type": "string"
        },
        {
          "indexed": true,
          "internalType": "uint256",
          "name": "id",
          "type": "uint256"
        }
      ],
      "name": "URI",
      "type": "event"
    },
    {
      "inputs": [
        {
          "internalType": "address",
          "name": "account",
          "type": "address"
        },
        {
          "internalType": "uint256",
          "name": "id",
          "type": "uint256"
        }
      ],
      "name": "balanceOf",
      "outputs": [
        {
          "internalType": "uint256",
          "name": "",
          "type": "uint256"
        }
      ],
      "stateMutability": "view",
      "type": "function"
    },
    {
      "inputs": [
        {
          "internalType": "address[]",
          "name": "accounts",
          "type": "address[]"
        },
        {
          "internalType": "uint256[]",
          "name": "ids",
          "type": "uint256[]"
        }
      ],
      "name": "balanceOfBatch",
      "outputs": [
        {
          "internalType": "uint256[]",
          "name": "",
          "type": "uint256[]"
        }
      ],
      "stateMutability": "view",
      "type": "function"
    },
    {
      "inputs": [
        {
          "internalType": "address",
          "name": "account",
          "type": "address"
        },
        {
          "internalType": "address",
          "name": "operator",
          "type": "address"
        }
      ],
      "name": "isApprovedForAll",
      "outputs": [
        {
          "internalType": "bool",
          "name": "",
          "type": "bool"
        }
      ],
      "stateMutability": "view",
      "type": "function"
    },
    {
      "inputs": [
        {
          "internalType": "address",
          "name": "",
          "type": "address"
        }
      ],
      "name": "isMinter",
      "outputs": [
        {
          "internalType": "bool",
          "name": "",
          "type": "bool"
        }
      ],
      "stateMutability": "view",
      "type": "function"
    },
    {
      "inputs": [],
      "name": "owner",
      "outputs": [
        {
          "internalType": "address",
          "name": "",
          "type": "address"
        }
      ],
      "stateMutability": "view",
      "type": "function"
    },
    {
      "inputs": [],
      "name": "renounceOwnership",
      "outputs": [],
      "stateMutability": "nonpayable",
      "type": "function"
    },
    {
      "inputs": [
        {
          "internalType": "address",
          "name": "from",
          "type": "address"
        },
        {
          "internalType": "address",
          "name": "to",
          "type": "address"
        },
        {
          "internalType": "uint256[]",
          "name": "ids",
          "type": "uint256[]"
        },
        {
          "internalType": "uint256[]",
          "name": "amounts",
          "type": "uint256[]"
        },
        {
          "internalType": "bytes",
          "name": "data",
          "type": "bytes"
        }
      ],
      "name": "safeBatchTransferFrom",
      "outputs": [],
      "stateMutability": "nonpayable",
      "type": "function"
    },
    {
      "inputs": [
        {
          "internalType": "address",
          "name": "from",
          "type": "address"
        },
        {
          "internalType": "address",
          "name": "to",
          "type": "address"
        },
        {
          "internalType": "uint256",
          "name": "id",
          "type": "uint256"
        },
        {
          "internalType": "uint256",
          "name": "amount",
          "type": "uint256"
        },
        {
          "internalType": "bytes",
          "name": "data",
          "type": "bytes"
        }
      ],
      "name": "safeTransferFrom",
      "outputs": [],
      "stateMutability": "nonpayable",
      "type": "function"
    },
    {
      "inputs": [
        {
          "internalType": "address",
          "name": "operator",
          "type": "address"
        },
        {
          "internalType": "bool",
          "name": "approved",
          "type": "bool"
        }
      ],
      "name": "setApprovalForAll",
      "outputs": [],
      "stateMutability": "nonpayable",
      "type": "function"
    },
    {
      "inputs": [
        {
          "internalType": "bytes4",
          "name": "interfaceId",
          "type": "bytes4"
        }
      ],
      "name": "supportsInterface",
      "outputs": [
        {
          "internalType": "bool",
          "name": "",
          "type": "bool"
        }
      ],
      "stateMutability": "view",
      "type": "function"
    },
    {
      "inputs": [
        {
          "internalType": "address",
          "name": "newOwner",
          "type": "address"
        }
      ],
      "name": "transferOwnership",
      "outputs": [],
      "stateMutability": "nonpayable",
      "type": "function"
    },
    {
      "inputs": [
        {
          "internalType": "uint256",
          "name": "",
          "type": "uint256"
        }
      ],
      "name": "uri",
      "outputs": [
        {
          "internalType": "string",
          "name": "",
          "type": "string"
        }
      ],
      "stateMutability": "view",
      "type": "function"
    },
    {
      "inputs": [
        {
          "internalType": "address",
          "name": "minter",
          "type": "address"
        },
        {
          "internalType": "bool",
          "name": "status",
          "type": "bool"
        }
      ],
      "name": "setMinter",
      "outputs": [],
      "stateMutability": "nonpayable",
      "type": "function"
    },
    {
      "inputs": [
        {
          "internalType": "address",
          "name": "to",
          "type": "address"
        },
        {
          "internalType": "uint256",
          "name": "id",
          "type": "uint256"
        },
        {
          "internalType": "uint256",
          "name": "amount",
          "type": "uint256"
        }
      ],
      "name": "mint",
      "outputs": [],
      "stateMutability": "nonpayable",
      "type": "function"
    },
    {
      "inputs": [
        {
          "internalType": "uint256",
          "name": "id",
          "type": "uint256"
        },
        {
          "internalType": "uint256",
          "name": "amount",
          "type": "uint256"
        }
      ],
      "name": "burn",
      "outputs": [],
      "stateMutability": "nonpayable",
      "type": "function"
    },
    {
      "inputs": [
        {
          "internalType": "string",
          "name": "uri",
          "type": "string"
        }
      ],
      "name": "setURI",
      "outputs": [],
      "stateMutability": "nonpayable",
      "type": "function"
    },
    {
      "inputs": [
        {
          "internalType": "uint256[]",
          "name": "ids",
          "type": "uint256[]"
        },
        {
          "internalType": "uint256[]",
          "name": "amounts",
          "type": "uint256[]"
        }
      ],
      "name": "burnBatch",
      "outputs": [],
      "stateMutability": "nonpayable",
      "type": "function"
    },
    {
      "inputs": [
        {
          "internalType": "address",
          "name": "_addr",
          "type": "address"
        }
      ],
      "name": "getFullBalance",
      "outputs": [
        {
          "internalType": "uint256[]",
          "name": "",
          "type": "uint256[]"
        },
        {
          "internalType": "uint256[]",
          "name": "",
          "type": "uint256[]"
        }
      ],
      "stateMutability": "view",
      "type": "function"
    }
  ],
  "bytecode": "0x60806040523480156200001157600080fd5b506040518060400160405280601881526020017f2141504920444154412057494c4c204245204845524521200000000000000000815250620000606301ffc9a760e01b6200016160201b60201c565b62000071816200026a60201b60201c565b6200008963d9b67a2660e01b6200016160201b60201c565b620000a1630e89341c60e01b6200016160201b60201c565b506000620000b46200028660201b60201c565b905080600560006101000a81548173ffffffffffffffffffffffffffffffffffffffff021916908373ffffffffffffffffffffffffffffffffffffffff1602179055508073ffffffffffffffffffffffffffffffffffffffff16600073ffffffffffffffffffffffffffffffffffffffff167f8be0079c531659141344cd1fd0a4f28419497f9722a3daafe3b4186f6b6457e060405160405180910390a350600160068190555062000344565b63ffffffff60e01b817bffffffffffffffffffffffffffffffffffffffffffffffffffffffff19161415620001fe576040517f08c379a000000000000000000000000000000000000000000000000000000000815260040180806020018281038252601c8152602001807f4552433136353a20696e76616c696420696e746572666163652069640000000081525060200191505060405180910390fd5b6001600080837bffffffffffffffffffffffffffffffffffffffffffffffffffffffff19167bffffffffffffffffffffffffffffffffffffffffffffffffffffffff1916815260200190815260200160002060006101000a81548160ff02191690831515021790555050565b8060049080519060200190620002829291906200028e565b5050565b600033905090565b828054600181600116156101000203166002900490600052602060002090601f016020900481019282620002c6576000855562000312565b82601f10620002e157805160ff191683800117855562000312565b8280016001018555821562000312579182015b8281111562000311578251825591602001919060010190620002f4565b5b50905062000321919062000325565b5090565b5b808211156200034057600081600090555060010162000326565b5090565b61427480620003546000396000f3fe608060405234801561001057600080fd5b50600436106101155760003560e01c80638da5cb5b116100a2578063cf456ae711610071578063cf456ae714610987578063d1eac5cc146109d7578063e985e9c514610ab8578063f242432a14610b32578063f2fde38b14610c4157610115565b80638da5cb5b14610871578063a22cb465146108a5578063aa271e1a146108f5578063b390c0ab1461094f57610115565b8063156e29f6116100e9578063156e29f6146102ff5780632eb2c2d6146103575780634e1273f41461057a578063715018a61461071b57806383ca4b6f1461072557610115565b8062fdd58e1461011a57806301ffc9a71461017c57806302fe5305146101df5780630e89341c14610258575b600080fd5b6101666004803603604081101561013057600080fd5b81019080803573ffffffffffffffffffffffffffffffffffffffff16906020019092919080359060200190929190505050610c85565b6040518082815260200191505060405180910390f35b6101c76004803603602081101561019257600080fd5b8101908080357bffffffffffffffffffffffffffffffffffffffffffffffffffffffff19169060200190929190505050610d65565b60405180821515815260200191505060405180910390f35b610256600480360360208110156101f557600080fd5b810190808035906020019064010000000081111561021257600080fd5b82018360208201111561022457600080fd5b8035906020019184600183028401116401000000008311171561024657600080fd5b9091929391929390505050610dcc565b005b6102846004803603602081101561026e57600080fd5b8101908080359060200190929190505050610f70565b6040518080602001828103825283818151815260200191508051906020019080838360005b838110156102c45780820151818401526020810190506102a9565b50505050905090810190601f1680156102f15780820380516001836020036101000a031916815260200191505b509250505060405180910390f35b6103556004803603606081101561031557600080fd5b81019080803573ffffffffffffffffffffffffffffffffffffffff1690602001909291908035906020019092919080359060200190929190505050611014565b005b610578600480360360a081101561036d57600080fd5b81019080803573ffffffffffffffffffffffffffffffffffffffff169060200190929190803573ffffffffffffffffffffffffffffffffffffffff169060200190929190803590602001906401000000008111156103ca57600080fd5b8201836020820111156103dc57600080fd5b803590602001918460208302840111640100000000831117156103fe57600080fd5b919080806020026020016040519081016040528093929190818152602001838360200280828437600081840152601f19601f8201169050808301925050505050505091929192908035906020019064010000000081111561045e57600080fd5b82018360208201111561047057600080fd5b8035906020019184602083028401116401000000008311171561049257600080fd5b919080806020026020016040519081016040528093929190818152602001838360200280828437600081840152601f19601f820116905080830192505050505050509192919290803590602001906401000000008111156104f257600080fd5b82018360208201111561050457600080fd5b8035906020019184600183028401116401000000008311171561052657600080fd5b91908080601f016020809104026020016040519081016040528093929190818152602001838380828437600081840152601f19601f82011690508083019250505050505050919291929050505061118a565b005b6106c46004803603604081101561059057600080fd5b81019080803590602001906401000000008111156105ad57600080fd5b8201836020820111156105bf57600080fd5b803590602001918460208302840111640100000000831117156105e157600080fd5b919080806020026020016040519081016040528093929190818152602001838360200280828437600081840152601f19601f8201169050808301925050505050505091929192908035906020019064010000000081111561064157600080fd5b82018360208201111561065357600080fd5b8035906020019184602083028401116401000000008311171561067557600080fd5b919080806020026020016040519081016040528093929190818152602001838360200280828437600081840152601f19601f82011690508083019250505050505050919291929050505061171c565b6040518080602001828103825283818151815260200191508051906020019060200280838360005b838110156107075780820151818401526020810190506106ec565b505050509050019250505060405180910390f35b61072361190e565b005b61086f6004803603604081101561073b57600080fd5b810190808035906020019064010000000081111561075857600080fd5b82018360208201111561076a57600080fd5b8035906020019184602083028401116401000000008311171561078c57600080fd5b919080806020026020016040519081016040528093929190818152602001838360200280828437600081840152601f19601f820116905080830192505050505050509192919290803590602001906401000000008111156107ec57600080fd5b8201836020820111156107fe57600080fd5b8035906020019184602083028401116401000000008311171561082057600080fd5b919080806020026020016040519081016040528093929190818152602001838360200280828437600081840152601f19601f820116905080830192505050505050509192919290505050611a99565b005b610879611b38565b604051808273ffffffffffffffffffffffffffffffffffffffff16815260200191505060405180910390f35b6108f3600480360360408110156108bb57600080fd5b81019080803573ffffffffffffffffffffffffffffffffffffffff169060200190929190803515159060200190929190505050611b62565b005b6109376004803603602081101561090b57600080fd5b81019080803573ffffffffffffffffffffffffffffffffffffffff169060200190929190505050611cfb565b60405180821515815260200191505060405180910390f35b6109856004803603604081101561096557600080fd5b810190808035906020019092919080359060200190929190505050611d1b565b005b6109d56004803603604081101561099d57600080fd5b81019080803573ffffffffffffffffffffffffffffffffffffffff169060200190929190803515159060200190929190505050611dba565b005b610a19600480360360208110156109ed57600080fd5b81019080803573ffffffffffffffffffffffffffffffffffffffff169060200190929190505050611f68565b604051808060200180602001838103835285818151815260200191508051906020019060200280838360005b83811015610a60578082015181840152602081019050610a45565b50505050905001838103825284818151815260200191508051906020019060200280838360005b83811015610aa2578082015181840152602081019050610a87565b5050505090500194505050505060405180910390f35b610b1a60048036036040811015610ace57600080fd5b81019080803573ffffffffffffffffffffffffffffffffffffffff169060200190929190803573ffffffffffffffffffffffffffffffffffffffff169060200190929190505050612020565b60405180821515815260200191505060405180910390f35b610c3f600480360360a0811015610b4857600080fd5b81019080803573ffffffffffffffffffffffffffffffffffffffff169060200190929190803573ffffffffffffffffffffffffffffffffffffffff169060200190929190803590602001909291908035906020019092919080359060200190640100000000811115610bb957600080fd5b820183602082011115610bcb57600080fd5b80359060200191846001830284011164010000000083111715610bed57600080fd5b91908080601f016020809104026020016040519081016040528093929190818152602001838380828437600081840152601f19601f8201169050808301925050505050505091929192905050506120b4565b005b610c8360048036036020811015610c5757600080fd5b81019080803573ffffffffffffffffffffffffffffffffffffffff169060200190929190505050612530565b005b60008073ffffffffffffffffffffffffffffffffffffffff168373ffffffffffffffffffffffffffffffffffffffff161415610d0c576040517f08c379a000000000000000000000000000000000000000000000000000000000815260040180806020018281038252602b815260200180614031602b913960400191505060405180910390fd5b6001600083815260200190815260200160002060008473ffffffffffffffffffffffffffffffffffffffff1673ffffffffffffffffffffffffffffffffffffffff16815260200190815260200160002054905092915050565b6000806000837bffffffffffffffffffffffffffffffffffffffffffffffffffffffff19167bffffffffffffffffffffffffffffffffffffffffffffffffffffffff1916815260200190815260200160002060009054906101000a900460ff169050919050565b60026006541415610e45576040517f08c379a000000000000000000000000000000000000000000000000000000000815260040180806020018281038252601f8152602001807f5265656e7472616e637947756172643a207265656e7472616e742063616c6c0081525060200191505060405180910390fd5b6002600681905550610e55612740565b73ffffffffffffffffffffffffffffffffffffffff16600560009054906101000a900473ffffffffffffffffffffffffffffffffffffffff1673ffffffffffffffffffffffffffffffffffffffff1614610f17576040517f08c379a00000000000000000000000000000000000000000000000000000000081526004018080602001828103825260208152602001807f4f776e61626c653a2063616c6c6572206973206e6f7420746865206f776e657281525060200191505060405180910390fd5b610f6482828080601f016020809104026020016040519081016040528093929190818152602001838380828437600081840152601f19601f82011690508083019250505050505050612748565b60016006819055505050565b606060048054600181600116156101000203166002900480601f0160208091040260200160405190810160405280929190818152602001828054600181600116156101000203166002900480156110085780601f10610fdd57610100808354040283529160200191611008565b820191906000526020600020905b815481529060010190602001808311610feb57829003601f168201915b50505050509050919050565b6002600654141561108d576040517f08c379a000000000000000000000000000000000000000000000000000000000815260040180806020018281038252601f8152602001807f5265656e7472616e637947756172643a207265656e7472616e742063616c6c0081525060200191505060405180910390fd5b600260068190555060011515600760006110a5612740565b73ffffffffffffffffffffffffffffffffffffffff1673ffffffffffffffffffffffffffffffffffffffff16815260200190815260200160002060009054906101000a900460ff16151514611162576040517f08c379a00000000000000000000000000000000000000000000000000000000081526004018080602001828103825260168152602001807f43616c6c6572206973206e6f742061206d696e7465720000000000000000000081525060200191505060405180910390fd5b61117d83838360405180602001604052806000815250612762565b6001600681905550505050565b81518351146111e4576040517f08c379a00000000000000000000000000000000000000000000000000000000081526004018080602001828103825260288152602001806141f66028913960400191505060405180910390fd5b600073ffffffffffffffffffffffffffffffffffffffff168473ffffffffffffffffffffffffffffffffffffffff16141561126a576040517f08c379a00000000000000000000000000000000000000000000000000000000081526004018080602001828103825260258152602001806141006025913960400191505060405180910390fd5b611272612740565b73ffffffffffffffffffffffffffffffffffffffff168573ffffffffffffffffffffffffffffffffffffffff1614806112b857506112b7856112b2612740565b612020565b5b61130d576040517f08c379a00000000000000000000000000000000000000000000000000000000081526004018080602001828103825260328152602001806141256032913960400191505060405180910390fd5b6000611317612740565b90506113278187878787876129b7565b60005b84518110156115ff57600085828151811061134157fe5b60200260200101519050600085838151811061135957fe5b602002602001015190506113e0816040518060600160405280602a815260200161417a602a91396001600086815260200190815260200160002060008d73ffffffffffffffffffffffffffffffffffffffff1673ffffffffffffffffffffffffffffffffffffffff168152602001908152602001600020546129bf9092919063ffffffff16565b6001600084815260200190815260200160002060008b73ffffffffffffffffffffffffffffffffffffffff1673ffffffffffffffffffffffffffffffffffffffff16815260200190815260200160002081905550611497816001600085815260200190815260200160002060008b73ffffffffffffffffffffffffffffffffffffffff1673ffffffffffffffffffffffffffffffffffffffff16815260200190815260200160002054612a7f90919063ffffffff16565b6001600084815260200190815260200160002060008a73ffffffffffffffffffffffffffffffffffffffff1673ffffffffffffffffffffffffffffffffffffffff1681526020019081526020016000208190555060008111156115f25761154582600360008b73ffffffffffffffffffffffffffffffffffffffff1673ffffffffffffffffffffffffffffffffffffffff168152602001908152602001600020612b0790919063ffffffff16565b5060006001600084815260200190815260200160002060008b73ffffffffffffffffffffffffffffffffffffffff1673ffffffffffffffffffffffffffffffffffffffff1681526020019081526020016000205414156115f1576115f082600360008c73ffffffffffffffffffffffffffffffffffffffff1673ffffffffffffffffffffffffffffffffffffffff168152602001908152602001600020612c5290919063ffffffff16565b5b5b505080600101905061132a565b508473ffffffffffffffffffffffffffffffffffffffff168673ffffffffffffffffffffffffffffffffffffffff168273ffffffffffffffffffffffffffffffffffffffff167f4a39dc06d4c0dbc64b70af90fd698a233a518aa5d07e595d983b8c0526c8f7fb8787604051808060200180602001838103835285818151815260200191508051906020019060200280838360005b838110156116af578082015181840152602081019050611694565b50505050905001838103825284818151815260200191508051906020019060200280838360005b838110156116f15780820151818401526020810190506116d6565b5050505090500194505050505060405180910390a4611714818787878787612dff565b505050505050565b60608151835114611778576040517f08c379a00000000000000000000000000000000000000000000000000000000081526004018080602001828103825260298152602001806141cd6029913960400191505060405180910390fd5b6000835167ffffffffffffffff8111801561179257600080fd5b506040519080825280602002602001820160405280156117c15781602001602082028036833780820191505090505b50905060005b845181101561190357600073ffffffffffffffffffffffffffffffffffffffff168582815181106117f457fe5b602002602001015173ffffffffffffffffffffffffffffffffffffffff161415611869576040517f08c379a000000000000000000000000000000000000000000000000000000000815260040180806020018281038252603181526020018061405c6031913960400191505060405180910390fd5b6001600085838151811061187957fe5b60200260200101518152602001908152602001600020600086838151811061189d57fe5b602002602001015173ffffffffffffffffffffffffffffffffffffffff1673ffffffffffffffffffffffffffffffffffffffff168152602001908152602001600020548282815181106118ec57fe5b6020026020010181815250508060010190506117c7565b508091505092915050565b611916612740565b73ffffffffffffffffffffffffffffffffffffffff16600560009054906101000a900473ffffffffffffffffffffffffffffffffffffffff1673ffffffffffffffffffffffffffffffffffffffff16146119d8576040517f08c379a00000000000000000000000000000000000000000000000000000000081526004018080602001828103825260208152602001807f4f776e61626c653a2063616c6c6572206973206e6f7420746865206f776e657281525060200191505060405180910390fd5b600073ffffffffffffffffffffffffffffffffffffffff16600560009054906101000a900473ffffffffffffffffffffffffffffffffffffffff1673ffffffffffffffffffffffffffffffffffffffff167f8be0079c531659141344cd1fd0a4f28419497f9722a3daafe3b4186f6b6457e060405160405180910390a36000600560006101000a81548173ffffffffffffffffffffffffffffffffffffffff021916908373ffffffffffffffffffffffffffffffffffffffff160217905550565b60026006541415611b12576040517f08c379a000000000000000000000000000000000000000000000000000000000815260040180806020018281038252601f8152602001807f5265656e7472616e637947756172643a207265656e7472616e742063616c6c0081525060200191505060405180910390fd5b6002600681905550611b2c611b25612740565b838361318e565b60016006819055505050565b6000600560009054906101000a900473ffffffffffffffffffffffffffffffffffffffff16905090565b8173ffffffffffffffffffffffffffffffffffffffff16611b81612740565b73ffffffffffffffffffffffffffffffffffffffff161415611bee576040517f08c379a00000000000000000000000000000000000000000000000000000000081526004018080602001828103825260298152602001806141a46029913960400191505060405180910390fd5b8060026000611bfb612740565b73ffffffffffffffffffffffffffffffffffffffff1673ffffffffffffffffffffffffffffffffffffffff16815260200190815260200160002060008473ffffffffffffffffffffffffffffffffffffffff1673ffffffffffffffffffffffffffffffffffffffff16815260200190815260200160002060006101000a81548160ff0219169083151502179055508173ffffffffffffffffffffffffffffffffffffffff16611ca8612740565b73ffffffffffffffffffffffffffffffffffffffff167f17307eab39ab6107e8899845ad3d59bd9653f200f220920489ca2b5937696c318360405180821515815260200191505060405180910390a35050565b60076020528060005260406000206000915054906101000a900460ff1681565b60026006541415611d94576040517f08c379a000000000000000000000000000000000000000000000000000000000815260040180806020018281038252601f8152602001807f5265656e7472616e637947756172643a207265656e7472616e742063616c6c0081525060200191505060405180910390fd5b6002600681905550611dae611da7612740565b838361359a565b60016006819055505050565b60026006541415611e33576040517f08c379a000000000000000000000000000000000000000000000000000000000815260040180806020018281038252601f8152602001807f5265656e7472616e637947756172643a207265656e7472616e742063616c6c0081525060200191505060405180910390fd5b6002600681905550611e43612740565b73ffffffffffffffffffffffffffffffffffffffff16600560009054906101000a900473ffffffffffffffffffffffffffffffffffffffff1673ffffffffffffffffffffffffffffffffffffffff1614611f05576040517f08c379a00000000000000000000000000000000000000000000000000000000081526004018080602001828103825260208152602001807f4f776e61626c653a2063616c6c6572206973206e6f7420746865206f776e657281525060200191505060405180910390fd5b80600760008473ffffffffffffffffffffffffffffffffffffffff1673ffffffffffffffffffffffffffffffffffffffff16815260200190815260200160002060006101000a81548160ff02191690831515021790555060016006819055505050565b6060806000611f7684613861565b90506000815167ffffffffffffffff81118015611f9257600080fd5b50604051908082528060200260200182016040528015611fc15781602001602082028036833780820191505090505b50905060005b825181101561201257611fed86848381518110611fe057fe5b6020026020010151610c85565b828281518110611ff957fe5b6020026020010181815250508080600101915050611fc7565b508181935093505050915091565b6000600260008473ffffffffffffffffffffffffffffffffffffffff1673ffffffffffffffffffffffffffffffffffffffff16815260200190815260200160002060008373ffffffffffffffffffffffffffffffffffffffff1673ffffffffffffffffffffffffffffffffffffffff16815260200190815260200160002060009054906101000a900460ff16905092915050565b600073ffffffffffffffffffffffffffffffffffffffff168473ffffffffffffffffffffffffffffffffffffffff16141561213a576040517f08c379a00000000000000000000000000000000000000000000000000000000081526004018080602001828103825260258152602001806141006025913960400191505060405180910390fd5b612142612740565b73ffffffffffffffffffffffffffffffffffffffff168573ffffffffffffffffffffffffffffffffffffffff161480612188575061218785612182612740565b612020565b5b6121dd576040517f08c379a00000000000000000000000000000000000000000000000000000000081526004018080602001828103825260298152602001806140d76029913960400191505060405180910390fd5b60006121e7612740565b90506122078187876121f888613954565b61220188613954565b876129b7565b612284836040518060600160405280602a815260200161417a602a91396001600088815260200190815260200160002060008a73ffffffffffffffffffffffffffffffffffffffff1673ffffffffffffffffffffffffffffffffffffffff168152602001908152602001600020546129bf9092919063ffffffff16565b6001600086815260200190815260200160002060008873ffffffffffffffffffffffffffffffffffffffff1673ffffffffffffffffffffffffffffffffffffffff1681526020019081526020016000208190555061233b836001600087815260200190815260200160002060008873ffffffffffffffffffffffffffffffffffffffff1673ffffffffffffffffffffffffffffffffffffffff16815260200190815260200160002054612a7f90919063ffffffff16565b6001600086815260200190815260200160002060008773ffffffffffffffffffffffffffffffffffffffff1673ffffffffffffffffffffffffffffffffffffffff168152602001908152602001600020819055506000831115612496576123e984600360008873ffffffffffffffffffffffffffffffffffffffff1673ffffffffffffffffffffffffffffffffffffffff168152602001908152602001600020612b0790919063ffffffff16565b5060006001600086815260200190815260200160002060008873ffffffffffffffffffffffffffffffffffffffff1673ffffffffffffffffffffffffffffffffffffffff1681526020019081526020016000205414156124955761249484600360008973ffffffffffffffffffffffffffffffffffffffff1673ffffffffffffffffffffffffffffffffffffffff168152602001908152602001600020612c5290919063ffffffff16565b5b5b8473ffffffffffffffffffffffffffffffffffffffff168673ffffffffffffffffffffffffffffffffffffffff168273ffffffffffffffffffffffffffffffffffffffff167fc3d58168c5ae7397731d063d5bbf3d657854427343f4c083240f7aacaa2d0f628787604051808381526020018281526020019250505060405180910390a46125288187878787876139c5565b505050505050565b612538612740565b73ffffffffffffffffffffffffffffffffffffffff16600560009054906101000a900473ffffffffffffffffffffffffffffffffffffffff1673ffffffffffffffffffffffffffffffffffffffff16146125fa576040517f08c379a00000000000000000000000000000000000000000000000000000000081526004018080602001828103825260208152602001807f4f776e61626c653a2063616c6c6572206973206e6f7420746865206f776e657281525060200191505060405180910390fd5b600073ffffffffffffffffffffffffffffffffffffffff168173ffffffffffffffffffffffffffffffffffffffff161415612680576040517f08c379a000000000000000000000000000000000000000000000000000000000815260040180806020018281038252602681526020018061408d6026913960400191505060405180910390fd5b8073ffffffffffffffffffffffffffffffffffffffff16600560009054906101000a900473ffffffffffffffffffffffffffffffffffffffff1673ffffffffffffffffffffffffffffffffffffffff167f8be0079c531659141344cd1fd0a4f28419497f9722a3daafe3b4186f6b6457e060405160405180910390a380600560006101000a81548173ffffffffffffffffffffffffffffffffffffffff021916908373ffffffffffffffffffffffffffffffffffffffff16021790555050565b600033905090565b806004908051906020019061275e929190613e35565b5050565b600073ffffffffffffffffffffffffffffffffffffffff168473ffffffffffffffffffffffffffffffffffffffff1614156127e8576040517f08c379a000000000000000000000000000000000000000000000000000000000815260040180806020018281038252602181526020018061421e6021913960400191505060405180910390fd5b60006127f2612740565b90506128138160008761280488613954565b61280d88613954565b876129b7565b612876836001600087815260200190815260200160002060008873ffffffffffffffffffffffffffffffffffffffff1673ffffffffffffffffffffffffffffffffffffffff16815260200190815260200160002054612a7f90919063ffffffff16565b6001600086815260200190815260200160002060008773ffffffffffffffffffffffffffffffffffffffff1673ffffffffffffffffffffffffffffffffffffffff1681526020019081526020016000208190555061291b84600360008873ffffffffffffffffffffffffffffffffffffffff1673ffffffffffffffffffffffffffffffffffffffff168152602001908152602001600020612b0790919063ffffffff16565b508473ffffffffffffffffffffffffffffffffffffffff16600073ffffffffffffffffffffffffffffffffffffffff168273ffffffffffffffffffffffffffffffffffffffff167fc3d58168c5ae7397731d063d5bbf3d657854427343f4c083240f7aacaa2d0f628787604051808381526020018281526020019250505060405180910390a46129b0816000878787876139c5565b5050505050565b505050505050565b6000838311158290612a6c576040517f08c379a00000000000000000000000000000000000000000000000000000000081526004018080602001828103825283818151815260200191508051906020019080838360005b83811015612a31578082015181840152602081019050612a16565b50505050905090810190601f168015612a5e5780820380516001836020036101000a031916815260200191505b509250505060405180910390fd5b5060008385039050809150509392505050565b600080828401905083811015612afd576040517f08c379a000000000000000000000000000000000000000000000000000000000815260040180806020018281038252601b8152602001807f536166654d6174683a206164646974696f6e206f766572666c6f77000000000081525060200191505060405180910390fd5b8091505092915050565b600080821415612b7f576040517f08c379a00000000000000000000000000000000000000000000000000000000081526004018080602001828103825260138152602001807f556e737570706f727465642076616c756520300000000000000000000000000081525060200191505060405180910390fd5b612b928284613cd290919063ffffffff16565b15612ba05760009050612c4c565b612ba8613ec3565b8360010180549050816000019063ffffffff16908163ffffffff1681525050828160200181815250508084600001600085815260200190815260200160002060008201518160000160006101000a81548163ffffffff021916908363ffffffff160217905550602082015181600101559050508360010183908060018154018082558091505060019003906000526020600020016000909190919091505560019150505b92915050565b6000811415612cc9576040517f08c379a00000000000000000000000000000000000000000000000000000000081526004018080602001828103825260138152602001807f556e737375706f727465642076616c756520300000000000000000000000000081525060200191505060405180910390fd5b6000826000016000838152602001908152602001600020905081816001015414612cf35750612dfb565b600083600101600185600101805490500381548110612d0e57fe5b906000526020600020015490508160000160009054906101000a900463ffffffff1684600001600083815260200190815260200160002060000160006101000a81548163ffffffff021916908363ffffffff16021790555080846001018360000160009054906101000a900463ffffffff1663ffffffff1681548110612d9057fe5b9060005260206000200181905550836000016000848152602001908152602001600020600080820160006101000a81549063ffffffff02191690556001820160009055505083600101805480612de257fe5b6001900381819060005260206000200160009055905550505b5050565b612e1e8473ffffffffffffffffffffffffffffffffffffffff16613d73565b15613186578373ffffffffffffffffffffffffffffffffffffffff1663bc197c8187878686866040518663ffffffff1660e01b8152600401808673ffffffffffffffffffffffffffffffffffffffff1681526020018573ffffffffffffffffffffffffffffffffffffffff168152602001806020018060200180602001848103845287818151815260200191508051906020019060200280838360005b83811015612ed6578082015181840152602081019050612ebb565b50505050905001848103835286818151815260200191508051906020019060200280838360005b83811015612f18578082015181840152602081019050612efd565b50505050905001848103825285818151815260200191508051906020019080838360005b83811015612f57578082015181840152602081019050612f3c565b50505050905090810190601f168015612f845780820380516001836020036101000a031916815260200191505b5098505050505050505050602060405180830381600087803b158015612fa957600080fd5b505af1925050508015612fdd57506040513d6020811015612fc957600080fd5b810190808051906020019092919050505060015b6130e757612fe9613f1e565b80612ff45750613096565b806040517f08c379a00000000000000000000000000000000000000000000000000000000081526004018080602001828103825283818151815260200191508051906020019080838360005b8381101561305b578082015181840152602081019050613040565b50505050905090810190601f1680156130885780820380516001836020036101000a031916815260200191505b509250505060405180910390fd5b6040517f08c379a0000000000000000000000000000000000000000000000000000000008152600401808060200182810382526034815260200180613fd56034913960400191505060405180910390fd5b63bc197c8160e01b7bffffffffffffffffffffffffffffffffffffffffffffffffffffffff1916817bffffffffffffffffffffffffffffffffffffffffffffffffffffffff191614613184576040517f08c379a00000000000000000000000000000000000000000000000000000000081526004018080602001828103825260288152602001806140096028913960400191505060405180910390fd5b505b505050505050565b600073ffffffffffffffffffffffffffffffffffffffff168373ffffffffffffffffffffffffffffffffffffffff161415613214576040517f08c379a00000000000000000000000000000000000000000000000000000000081526004018080602001828103825260238152602001806141576023913960400191505060405180910390fd5b805182511461326e576040517f08c379a00000000000000000000000000000000000000000000000000000000081526004018080602001828103825260288152602001806141f66028913960400191505060405180910390fd5b6000613278612740565b9050613298818560008686604051806020016040528060008152506129b7565b60005b835181101561348c576133478382815181106132b357fe5b60200260200101516040518060600160405280602481526020016140b360249139600160008886815181106132e457fe5b6020026020010151815260200190815260200160002060008973ffffffffffffffffffffffffffffffffffffffff1673ffffffffffffffffffffffffffffffffffffffff168152602001908152602001600020546129bf9092919063ffffffff16565b6001600086848151811061335757fe5b6020026020010151815260200190815260200160002060008773ffffffffffffffffffffffffffffffffffffffff1673ffffffffffffffffffffffffffffffffffffffff168152602001908152602001600020819055506000600160008684815181106133c057fe5b6020026020010151815260200190815260200160002060008773ffffffffffffffffffffffffffffffffffffffff1673ffffffffffffffffffffffffffffffffffffffff16815260200190815260200160002054141561347f5761347e84828151811061342957fe5b6020026020010151600360008873ffffffffffffffffffffffffffffffffffffffff1673ffffffffffffffffffffffffffffffffffffffff168152602001908152602001600020612c5290919063ffffffff16565b5b808060010191505061329b565b50600073ffffffffffffffffffffffffffffffffffffffff168473ffffffffffffffffffffffffffffffffffffffff168273ffffffffffffffffffffffffffffffffffffffff167f4a39dc06d4c0dbc64b70af90fd698a233a518aa5d07e595d983b8c0526c8f7fb8686604051808060200180602001838103835285818151815260200191508051906020019060200280838360005b8381101561353d578082015181840152602081019050613522565b50505050905001838103825284818151815260200191508051906020019060200280838360005b8381101561357f578082015181840152602081019050613564565b5050505090500194505050505060405180910390a450505050565b600073ffffffffffffffffffffffffffffffffffffffff168373ffffffffffffffffffffffffffffffffffffffff161415613620576040517f08c379a00000000000000000000000000000000000000000000000000000000081526004018080602001828103825260238152602001806141576023913960400191505060405180910390fd5b600061362a612740565b905061365a8185600061363c87613954565b61364587613954565b604051806020016040528060008152506129b7565b6136d7826040518060600160405280602481526020016140b3602491396001600087815260200190815260200160002060008873ffffffffffffffffffffffffffffffffffffffff1673ffffffffffffffffffffffffffffffffffffffff168152602001908152602001600020546129bf9092919063ffffffff16565b6001600085815260200190815260200160002060008673ffffffffffffffffffffffffffffffffffffffff1673ffffffffffffffffffffffffffffffffffffffff1681526020019081526020016000208190555060006001600085815260200190815260200160002060008673ffffffffffffffffffffffffffffffffffffffff1673ffffffffffffffffffffffffffffffffffffffff1681526020019081526020016000205414156137d6576137d583600360008773ffffffffffffffffffffffffffffffffffffffff1673ffffffffffffffffffffffffffffffffffffffff168152602001908152602001600020612c5290919063ffffffff16565b5b600073ffffffffffffffffffffffffffffffffffffffff168473ffffffffffffffffffffffffffffffffffffffff168273ffffffffffffffffffffffffffffffffffffffff167fc3d58168c5ae7397731d063d5bbf3d657854427343f4c083240f7aacaa2d0f628686604051808381526020018281526020019250505060405180910390a450505050565b6060600073ffffffffffffffffffffffffffffffffffffffff168273ffffffffffffffffffffffffffffffffffffffff161415613906576040517f08c379a00000000000000000000000000000000000000000000000000000000081526004018080602001828103825260118152602001807f496e76616c69642030206164647265737300000000000000000000000000000081525060200191505060405180910390fd5b61394d600360008473ffffffffffffffffffffffffffffffffffffffff1673ffffffffffffffffffffffffffffffffffffffff168152602001908152602001600020613d86565b9050919050565b60606000600167ffffffffffffffff8111801561397057600080fd5b5060405190808252806020026020018201604052801561399f5781602001602082028036833780820191505090505b50905082816000815181106139b057fe5b60200260200101818152505080915050919050565b6139e48473ffffffffffffffffffffffffffffffffffffffff16613d73565b15613cca578373ffffffffffffffffffffffffffffffffffffffff1663f23a6e6187878686866040518663ffffffff1660e01b8152600401808673ffffffffffffffffffffffffffffffffffffffff1681526020018573ffffffffffffffffffffffffffffffffffffffff16815260200184815260200183815260200180602001828103825283818151815260200191508051906020019080838360005b83811015613a9d578082015181840152602081019050613a82565b50505050905090810190601f168015613aca5780820380516001836020036101000a031916815260200191505b509650505050505050602060405180830381600087803b158015613aed57600080fd5b505af1925050508015613b2157506040513d6020811015613b0d57600080fd5b810190808051906020019092919050505060015b613c2b57613b2d613f1e565b80613b385750613bda565b806040517f08c379a00000000000000000000000000000000000000000000000000000000081526004018080602001828103825283818151815260200191508051906020019080838360005b83811015613b9f578082015181840152602081019050613b84565b50505050905090810190601f168015613bcc5780820380516001836020036101000a031916815260200191505b509250505060405180910390fd5b6040517f08c379a0000000000000000000000000000000000000000000000000000000008152600401808060200182810382526034815260200180613fd56034913960400191505060405180910390fd5b63f23a6e6160e01b7bffffffffffffffffffffffffffffffffffffffffffffffffffffffff1916817bffffffffffffffffffffffffffffffffffffffffffffffffffffffff191614613cc8576040517f08c379a00000000000000000000000000000000000000000000000000000000081526004018080602001828103825260288152602001806140096028913960400191505060405180910390fd5b505b505050505050565b600080821415613d4a576040517f08c379a00000000000000000000000000000000000000000000000000000000081526004018080602001828103825260138152602001807f556e737570706f727465642076616c756520300000000000000000000000000081525060200191505060405180910390fd5b600083600001600084815260200190815260200160002090508281600101541491505092915050565b600080823b905060008111915050919050565b60606000826001018054905067ffffffffffffffff81118015613da857600080fd5b50604051908082528060200260200182016040528015613dd75781602001602082028036833780820191505090505b50905060005b8360010180549050811015613e2b57836001018181548110613dfb57fe5b9060005260206000200154828281518110613e1257fe5b6020026020010181815250508080600101915050613ddd565b5080915050919050565b828054600181600116156101000203166002900490600052602060002090601f016020900481019282613e6b5760008555613eb2565b82601f10613e8457805160ff1916838001178555613eb2565b82800160010185558215613eb2579182015b82811115613eb1578251825591602001919060010190613e96565b5b509050613ebf9190613ee3565b5090565b6040518060400160405280600063ffffffff168152602001600081525090565b5b80821115613efc576000816000905550600101613ee4565b5090565b6000601f19601f8301169050919050565b60008160e01c9050919050565b600060443d1015613f2e57613fd1565b60046000803e613f3f600051613f11565b6308c379a08114613f505750613fd1565b60405160043d036004823e80513d602482011167ffffffffffffffff82111715613f7c57505050613fd1565b808201805167ffffffffffffffff811115613f9b575050505050613fd1565b8060208301013d8501811115613fb657505050505050613fd1565b613fbf82613f00565b60208401016040528296505050505050505b9056fe455243313135353a207472616e7366657220746f206e6f6e2045524331313535526563656976657220696d706c656d656e746572455243313135353a204552433131353552656365697665722072656a656374656420746f6b656e73455243313135353a2062616c616e636520717565727920666f7220746865207a65726f2061646472657373455243313135353a2062617463682062616c616e636520717565727920666f7220746865207a65726f20616464726573734f776e61626c653a206e6577206f776e657220697320746865207a65726f2061646472657373455243313135353a206275726e20616d6f756e7420657863656564732062616c616e6365455243313135353a2063616c6c6572206973206e6f74206f776e6572206e6f7220617070726f766564455243313135353a207472616e7366657220746f20746865207a65726f2061646472657373455243313135353a207472616e736665722063616c6c6572206973206e6f74206f776e6572206e6f7220617070726f766564455243313135353a206275726e2066726f6d20746865207a65726f2061646472657373455243313135353a20696e73756666696369656e742062616c616e636520666f72207472616e73666572455243313135353a2073657474696e6720617070726f76616c2073746174757320666f722073656c66455243313135353a206163636f756e747320616e6420696473206c656e677468206d69736d61746368455243313135353a2069647320616e6420616d6f756e7473206c656e677468206d69736d61746368455243313135353a206d696e7420746f20746865207a65726f2061646472657373a2646970667358221220aa162169d86a2ef4ad94ec59807ba2bd4d3b77daf68ccb1417bcfeb4933ce00d64736f6c63430007060033",
  "immutableReferences": {},
  "source": "// Sources flattened with hardhat v2.0.5 https://hardhat.org\n\n// File @openzeppelin/contracts/introspection/IERC165.sol@v3.3.0\n\n// SPDX-License-Identifier: MIT\n\nimport \"./lib/ReentrancyGuard.sol\";\nimport \"./lib/Context.sol\";\nimport \"./lib/Ownable.sol\";\n\npragma solidity ^0.7.3;\n\n/**\n * @dev Interface of the ERC165 standard, as defined in the\n * https://eips.ethereum.org/EIPS/eip-165[EIP].\n *\n * Implementers can declare support of contract interfaces, which can then be\n * queried by others ({ERC165Checker}).\n *\n * For an implementation, see {ERC165}.\n */\ninterface IERC165 {\n    /**\n     * @dev Returns true if this contract implements the interface defined by\n     * `interfaceId`. See the corresponding\n     * https://eips.ethereum.org/EIPS/eip-165#how-interfaces-are-identified[EIP section]\n     * to learn more about how these ids are created.\n     *\n     * This function call must use less than 30 000 gas.\n     */\n    function supportsInterface(bytes4 interfaceId) external view returns (bool);\n}\n\n\n// File @openzeppelin/contracts/token/ERC1155/IERC1155.sol@v3.3.0\n\n/**\n * @dev Required interface of an ERC1155 compliant contract, as defined in the\n * https://eips.ethereum.org/EIPS/eip-1155[EIP].\n *\n * _Available since v3.1._\n */\ninterface IERC1155 is IERC165 {\n    /**\n     * @dev Emitted when `value` tokens of token type `id` are transferred from `from` to `to` by `operator`.\n     */\n    event TransferSingle(address indexed operator, address indexed from, address indexed to, uint256 id, uint256 value);\n\n    /**\n     * @dev Equivalent to multiple {TransferSingle} events, where `operator`, `from` and `to` are the same for all\n     * transfers.\n     */\n    event TransferBatch(address indexed operator, address indexed from, address indexed to, uint256[] ids, uint256[] values);\n\n    /**\n     * @dev Emitted when `account` grants or revokes permission to `operator` to transfer their tokens, according to\n     * `approved`.\n     */\n    event ApprovalForAll(address indexed account, address indexed operator, bool approved);\n\n    /**\n     * @dev Emitted when the URI for token type `id` changes to `value`, if it is a non-programmatic URI.\n     *\n     * If an {URI} event was emitted for `id`, the standard\n     * https://eips.ethereum.org/EIPS/eip-1155#metadata-extensions[guarantees] that `value` will equal the value\n     * returned by {IERC1155MetadataURI-uri}.\n     */\n    event URI(string value, uint256 indexed id);\n\n    /**\n     * @dev Returns the amount of tokens of token type `id` owned by `account`.\n     *\n     * Requirements:\n     *\n     * - `account` cannot be the zero address.\n     */\n    function balanceOf(address account, uint256 id) external view returns (uint256);\n\n    /**\n     * @dev xref:ROOT:erc1155.adoc#batch-operations[Batched] version of {balanceOf}.\n     *\n     * Requirements:\n     *\n     * - `accounts` and `ids` must have the same length.\n     */\n    function balanceOfBatch(address[] calldata accounts, uint256[] calldata ids) external view returns (uint256[] memory);\n\n    /**\n     * @dev Grants or revokes permission to `operator` to transfer the caller's tokens, according to `approved`,\n     *\n     * Emits an {ApprovalForAll} event.\n     *\n     * Requirements:\n     *\n     * - `operator` cannot be the caller.\n     */\n    function setApprovalForAll(address operator, bool approved) external;\n\n    /**\n     * @dev Returns true if `operator` is approved to transfer ``account``'s tokens.\n     *\n     * See {setApprovalForAll}.\n     */\n    function isApprovedForAll(address account, address operator) external view returns (bool);\n\n    /**\n     * @dev Transfers `amount` tokens of token type `id` from `from` to `to`.\n     *\n     * Emits a {TransferSingle} event.\n     *\n     * Requirements:\n     *\n     * - `to` cannot be the zero address.\n     * - If the caller is not `from`, it must be have been approved to spend ``from``'s tokens via {setApprovalForAll}.\n     * - `from` must have a balance of tokens of type `id` of at least `amount`.\n     * - If `to` refers to a smart contract, it must implement {IERC1155Receiver-onERC1155Received} and return the\n     * acceptance magic value.\n     */\n    function safeTransferFrom(address from, address to, uint256 id, uint256 amount, bytes calldata data) external;\n\n    /**\n     * @dev xref:ROOT:erc1155.adoc#batch-operations[Batched] version of {safeTransferFrom}.\n     *\n     * Emits a {TransferBatch} event.\n     *\n     * Requirements:\n     *\n     * - `ids` and `amounts` must have the same length.\n     * - If `to` refers to a smart contract, it must implement {IERC1155Receiver-onERC1155BatchReceived} and return the\n     * acceptance magic value.\n     */\n    function safeBatchTransferFrom(address from, address to, uint256[] calldata ids, uint256[] calldata amounts, bytes calldata data) external;\n}\n\n\n// File @openzeppelin/contracts/token/ERC1155/IERC1155MetadataURI.sol@v3.3.0\n\n/**\n * @dev Interface of the optional ERC1155MetadataExtension interface, as defined\n * in the https://eips.ethereum.org/EIPS/eip-1155#metadata-extensions[EIP].\n *\n * _Available since v3.1._\n */\ninterface IERC1155MetadataURI is IERC1155 {\n    /**\n     * @dev Returns the URI for token type `id`.\n     *\n     * If the `\\{id\\}` substring is present in the URI, it must be replaced by\n     * clients with the actual token type ID.\n     */\n    function uri(uint256 id) external view returns (string memory);\n}\n\n\n// File @openzeppelin/contracts/token/ERC1155/IERC1155Receiver.sol@v3.3.0\n\n/**\n * _Available since v3.1._\n */\ninterface IERC1155Receiver is IERC165 {\n\n    /**\n        @dev Handles the receipt of a single ERC1155 token type. This function is\n        called at the end of a `safeTransferFrom` after the balance has been updated.\n        To accept the transfer, this must return\n        `bytes4(keccak256(\"onERC1155Received(address,address,uint256,uint256,bytes)\"))`\n        (i.e. 0xf23a6e61, or its own function selector).\n        @param operator The address which initiated the transfer (i.e. msg.sender)\n        @param from The address which previously owned the token\n        @param id The ID of the token being transferred\n        @param value The amount of tokens being transferred\n        @param data Additional data with no specified format\n        @return `bytes4(keccak256(\"onERC1155Received(address,address,uint256,uint256,bytes)\"))` if transfer is allowed\n    */\n    function onERC1155Received(\n        address operator,\n        address from,\n        uint256 id,\n        uint256 value,\n        bytes calldata data\n    )\n        external\n        returns(bytes4);\n\n    /**\n        @dev Handles the receipt of a multiple ERC1155 token types. This function\n        is called at the end of a `safeBatchTransferFrom` after the balances have\n        been updated. To accept the transfer(s), this must return\n        `bytes4(keccak256(\"onERC1155BatchReceived(address,address,uint256[],uint256[],bytes)\"))`\n        (i.e. 0xbc197c81, or its own function selector).\n        @param operator The address which initiated the batch transfer (i.e. msg.sender)\n        @param from The address which previously owned the token\n        @param ids An array containing ids of each token being transferred (order and length must match values array)\n        @param values An array containing amounts of each token being transferred (order and length must match ids array)\n        @param data Additional data with no specified format\n        @return `bytes4(keccak256(\"onERC1155BatchReceived(address,address,uint256[],uint256[],bytes)\"))` if transfer is allowed\n    */\n    function onERC1155BatchReceived(\n        address operator,\n        address from,\n        uint256[] calldata ids,\n        uint256[] calldata values,\n        bytes calldata data\n    )\n        external\n        returns(bytes4);\n}\n\n// File @openzeppelin/contracts/introspection/ERC165.sol@v3.3.0\n\n/**\n * @dev Implementation of the {IERC165} interface.\n *\n * Contracts may inherit from this and call {_registerInterface} to declare\n * their support of an interface.\n */\nabstract contract ERC165 is IERC165 {\n    /*\n     * bytes4(keccak256('supportsInterface(bytes4)')) == 0x01ffc9a7\n     */\n    bytes4 private constant _INTERFACE_ID_ERC165 = 0x01ffc9a7;\n\n    /**\n     * @dev Mapping of interface ids to whether or not it's supported.\n     */\n    mapping(bytes4 => bool) private _supportedInterfaces;\n\n    constructor () {\n        // Derived contracts need only register support for their own interfaces,\n        // we register support for ERC165 itself here\n        _registerInterface(_INTERFACE_ID_ERC165);\n    }\n\n    /**\n     * @dev See {IERC165-supportsInterface}.\n     *\n     * Time complexity O(1), guaranteed to always use less than 30 000 gas.\n     */\n    function supportsInterface(bytes4 interfaceId) public view override returns (bool) {\n        return _supportedInterfaces[interfaceId];\n    }\n\n    /**\n     * @dev Registers the contract as an implementer of the interface defined by\n     * `interfaceId`. Support of the actual ERC165 interface is automatic and\n     * registering its interface id is not required.\n     *\n     * See {IERC165-supportsInterface}.\n     *\n     * Requirements:\n     *\n     * - `interfaceId` cannot be the ERC165 invalid interface (`0xffffffff`).\n     */\n    function _registerInterface(bytes4 interfaceId) internal virtual {\n        require(interfaceId != 0xffffffff, \"ERC165: invalid interface id\");\n        _supportedInterfaces[interfaceId] = true;\n    }\n}\n\n\n// File @openzeppelin/contracts/math/SafeMath.sol@v3.3.0\n\n/**\n * @dev Wrappers over Solidity's arithmetic operations with added overflow\n * checks.\n *\n * Arithmetic operations in Solidity wrap on overflow. This can easily result\n * in bugs, because programmers usually assume that an overflow raises an\n * error, which is the standard behavior in high level programming languages.\n * `SafeMath` restores this intuition by reverting the transaction when an\n * operation overflows.\n *\n * Using this library instead of the unchecked operations eliminates an entire\n * class of bugs, so it's recommended to use it always.\n */\nlibrary SafeMath {\n    /**\n     * @dev Returns the addition of two unsigned integers, reverting on\n     * overflow.\n     *\n     * Counterpart to Solidity's `+` operator.\n     *\n     * Requirements:\n     *\n     * - Addition cannot overflow.\n     */\n    function add(uint256 a, uint256 b) internal pure returns (uint256) {\n        uint256 c = a + b;\n        require(c >= a, \"SafeMath: addition overflow\");\n\n        return c;\n    }\n\n    /**\n     * @dev Returns the subtraction of two unsigned integers, reverting on\n     * overflow (when the result is negative).\n     *\n     * Counterpart to Solidity's `-` operator.\n     *\n     * Requirements:\n     *\n     * - Subtraction cannot overflow.\n     */\n    function sub(uint256 a, uint256 b) internal pure returns (uint256) {\n        return sub(a, b, \"SafeMath: subtraction overflow\");\n    }\n\n    /**\n     * @dev Returns the subtraction of two unsigned integers, reverting with custom message on\n     * overflow (when the result is negative).\n     *\n     * Counterpart to Solidity's `-` operator.\n     *\n     * Requirements:\n     *\n     * - Subtraction cannot overflow.\n     */\n    function sub(uint256 a, uint256 b, string memory errorMessage) internal pure returns (uint256) {\n        require(b <= a, errorMessage);\n        uint256 c = a - b;\n\n        return c;\n    }\n\n    /**\n     * @dev Returns the multiplication of two unsigned integers, reverting on\n     * overflow.\n     *\n     * Counterpart to Solidity's `*` operator.\n     *\n     * Requirements:\n     *\n     * - Multiplication cannot overflow.\n     */\n    function mul(uint256 a, uint256 b) internal pure returns (uint256) {\n        // Gas optimization: this is cheaper than requiring 'a' not being zero, but the\n        // benefit is lost if 'b' is also tested.\n        // See: https://github.com/OpenZeppelin/openzeppelin-contracts/pull/522\n        if (a == 0) {\n            return 0;\n        }\n\n        uint256 c = a * b;\n        require(c / a == b, \"SafeMath: multiplication overflow\");\n\n        return c;\n    }\n\n    /**\n     * @dev Returns the integer division of two unsigned integers. Reverts on\n     * division by zero. The result is rounded towards zero.\n     *\n     * Counterpart to Solidity's `/` operator. Note: this function uses a\n     * `revert` opcode (which leaves remaining gas untouched) while Solidity\n     * uses an invalid opcode to revert (consuming all remaining gas).\n     *\n     * Requirements:\n     *\n     * - The divisor cannot be zero.\n     */\n    function div(uint256 a, uint256 b) internal pure returns (uint256) {\n        return div(a, b, \"SafeMath: division by zero\");\n    }\n\n    /**\n     * @dev Returns the integer division of two unsigned integers. Reverts with custom message on\n     * division by zero. The result is rounded towards zero.\n     *\n     * Counterpart to Solidity's `/` operator. Note: this function uses a\n     * `revert` opcode (which leaves remaining gas untouched) while Solidity\n     * uses an invalid opcode to revert (consuming all remaining gas).\n     *\n     * Requirements:\n     *\n     * - The divisor cannot be zero.\n     */\n    function div(uint256 a, uint256 b, string memory errorMessage) internal pure returns (uint256) {\n        require(b > 0, errorMessage);\n        uint256 c = a / b;\n        // assert(a == b * c + a % b); // There is no case in which this doesn't hold\n\n        return c;\n    }\n\n    /**\n     * @dev Returns the remainder of dividing two unsigned integers. (unsigned integer modulo),\n     * Reverts when dividing by zero.\n     *\n     * Counterpart to Solidity's `%` operator. This function uses a `revert`\n     * opcode (which leaves remaining gas untouched) while Solidity uses an\n     * invalid opcode to revert (consuming all remaining gas).\n     *\n     * Requirements:\n     *\n     * - The divisor cannot be zero.\n     */\n    function mod(uint256 a, uint256 b) internal pure returns (uint256) {\n        return mod(a, b, \"SafeMath: modulo by zero\");\n    }\n\n    /**\n     * @dev Returns the remainder of dividing two unsigned integers. (unsigned integer modulo),\n     * Reverts with custom message when dividing by zero.\n     *\n     * Counterpart to Solidity's `%` operator. This function uses a `revert`\n     * opcode (which leaves remaining gas untouched) while Solidity uses an\n     * invalid opcode to revert (consuming all remaining gas).\n     *\n     * Requirements:\n     *\n     * - The divisor cannot be zero.\n     */\n    function mod(uint256 a, uint256 b, string memory errorMessage) internal pure returns (uint256) {\n        require(b != 0, errorMessage);\n        return a % b;\n    }\n}\n\n\n// File @openzeppelin/contracts/utils/Address.sol@v3.3.0\n\n/**\n * @dev Collection of functions related to the address type\n */\nlibrary Address {\n    /**\n     * @dev Returns true if `account` is a contract.\n     *\n     * [IMPORTANT]\n     * ====\n     * It is unsafe to assume that an address for which this function returns\n     * false is an externally-owned account (EOA) and not a contract.\n     *\n     * Among others, `isContract` will return false for the following\n     * types of addresses:\n     *\n     *  - an externally-owned account\n     *  - a contract in construction\n     *  - an address where a contract will be created\n     *  - an address where a contract lived, but was destroyed\n     * ====\n     */\n    function isContract(address account) internal view returns (bool) {\n        // This method relies on extcodesize, which returns 0 for contracts in\n        // construction, since the code is only stored at the end of the\n        // constructor execution.\n\n        uint256 size;\n        // solhint-disable-next-line no-inline-assembly\n        assembly { size := extcodesize(account) }\n        return size > 0;\n    }\n\n    /**\n     * @dev Replacement for Solidity's `transfer`: sends `amount` wei to\n     * `recipient`, forwarding all available gas and reverting on errors.\n     *\n     * https://eips.ethereum.org/EIPS/eip-1884[EIP1884] increases the gas cost\n     * of certain opcodes, possibly making contracts go over the 2300 gas limit\n     * imposed by `transfer`, making them unable to receive funds via\n     * `transfer`. {sendValue} removes this limitation.\n     *\n     * https://diligence.consensys.net/posts/2019/09/stop-using-soliditys-transfer-now/[Learn more].\n     *\n     * IMPORTANT: because control is transferred to `recipient`, care must be\n     * taken to not create reentrancy vulnerabilities. Consider using\n     * {ReentrancyGuard} or the\n     * https://solidity.readthedocs.io/en/v0.5.11/security-considerations.html#use-the-checks-effects-interactions-pattern[checks-effects-interactions pattern].\n     */\n    function sendValue(address payable recipient, uint256 amount) internal {\n        require(address(this).balance >= amount, \"Address: insufficient balance\");\n\n        // solhint-disable-next-line avoid-low-level-calls, avoid-call-value\n        (bool success, ) = recipient.call{ value: amount }(\"\");\n        require(success, \"Address: unable to send value, recipient may have reverted\");\n    }\n\n    /**\n     * @dev Performs a Solidity function call using a low level `call`. A\n     * plain`call` is an unsafe replacement for a function call: use this\n     * function instead.\n     *\n     * If `target` reverts with a revert reason, it is bubbled up by this\n     * function (like regular Solidity function calls).\n     *\n     * Returns the raw returned data. To convert to the expected return value,\n     * use https://solidity.readthedocs.io/en/latest/units-and-global-variables.html?highlight=abi.decode#abi-encoding-and-decoding-functions[`abi.decode`].\n     *\n     * Requirements:\n     *\n     * - `target` must be a contract.\n     * - calling `target` with `data` must not revert.\n     *\n     * _Available since v3.1._\n     */\n    function functionCall(address target, bytes memory data) internal returns (bytes memory) {\n      return functionCall(target, data, \"Address: low-level call failed\");\n    }\n\n    /**\n     * @dev Same as {xref-Address-functionCall-address-bytes-}[`functionCall`], but with\n     * `errorMessage` as a fallback revert reason when `target` reverts.\n     *\n     * _Available since v3.1._\n     */\n    function functionCall(address target, bytes memory data, string memory errorMessage) internal returns (bytes memory) {\n        return functionCallWithValue(target, data, 0, errorMessage);\n    }\n\n    /**\n     * @dev Same as {xref-Address-functionCall-address-bytes-}[`functionCall`],\n     * but also transferring `value` wei to `target`.\n     *\n     * Requirements:\n     *\n     * - the calling contract must have an ETH balance of at least `value`.\n     * - the called Solidity function must be `payable`.\n     *\n     * _Available since v3.1._\n     */\n    function functionCallWithValue(address target, bytes memory data, uint256 value) internal returns (bytes memory) {\n        return functionCallWithValue(target, data, value, \"Address: low-level call with value failed\");\n    }\n\n    /**\n     * @dev Same as {xref-Address-functionCallWithValue-address-bytes-uint256-}[`functionCallWithValue`], but\n     * with `errorMessage` as a fallback revert reason when `target` reverts.\n     *\n     * _Available since v3.1._\n     */\n    function functionCallWithValue(address target, bytes memory data, uint256 value, string memory errorMessage) internal returns (bytes memory) {\n        require(address(this).balance >= value, \"Address: insufficient balance for call\");\n        require(isContract(target), \"Address: call to non-contract\");\n\n        // solhint-disable-next-line avoid-low-level-calls\n        (bool success, bytes memory returndata) = target.call{ value: value }(data);\n        return _verifyCallResult(success, returndata, errorMessage);\n    }\n\n    /**\n     * @dev Same as {xref-Address-functionCall-address-bytes-}[`functionCall`],\n     * but performing a static call.\n     *\n     * _Available since v3.3._\n     */\n    function functionStaticCall(address target, bytes memory data) internal view returns (bytes memory) {\n        return functionStaticCall(target, data, \"Address: low-level static call failed\");\n    }\n\n    /**\n     * @dev Same as {xref-Address-functionCall-address-bytes-string-}[`functionCall`],\n     * but performing a static call.\n     *\n     * _Available since v3.3._\n     */\n    function functionStaticCall(address target, bytes memory data, string memory errorMessage) internal view returns (bytes memory) {\n        require(isContract(target), \"Address: static call to non-contract\");\n\n        // solhint-disable-next-line avoid-low-level-calls\n        (bool success, bytes memory returndata) = target.staticcall(data);\n        return _verifyCallResult(success, returndata, errorMessage);\n    }\n\n    function _verifyCallResult(bool success, bytes memory returndata, string memory errorMessage) private pure returns(bytes memory) {\n        if (success) {\n            return returndata;\n        } else {\n            // Look for revert reason and bubble it up if present\n            if (returndata.length > 0) {\n                // The easiest way to bubble the revert reason is using memory via assembly\n\n                // solhint-disable-next-line no-inline-assembly\n                assembly {\n                    let returndata_size := mload(returndata)\n                    revert(add(32, returndata), returndata_size)\n                }\n            } else {\n                revert(errorMessage);\n            }\n        }\n    }\n}\n\nlibrary SetLib {\n  using SetLib for Set;\n\n  struct Set {\n    mapping(uint256 => IndexData) _dataMap;\n    uint256[] _dataIndex;\n  }\n\n  struct IndexData {\n    uint32 index;\n    uint256 value;\n  }\n\n  function add(Set storage self, uint256 value) internal returns (bool) {\n    require(value != 0, \"Unsupported value 0\");\n    if (self.contains(value)) {\n      return false;\n    }\n\n    IndexData memory data;\n\n    data.index = uint32(self._dataIndex.length);\n    data.value = value;\n\n    self._dataMap[value] = data;\n    self._dataIndex.push(value);\n\n    return true;\n  }\n\n  function contains(Set storage self, uint256 value) internal view returns (bool) {\n    require(value != 0, \"Unsupported value 0\");\n    IndexData storage data = self._dataMap[value];\n\n    return data.value == value;\n  }\n\n  function remove(Set storage self, uint256 value) internal {\n    require(value != 0, \"Unssuported value 0\");\n    IndexData storage data = self._dataMap[value];\n\n    if (data.value != value) {\n        return ;\n    }\n\n    uint256 elementToSwap = self._dataIndex[self._dataIndex.length - 1];\n    self._dataMap[elementToSwap].index = data.index;\n    self._dataIndex[data.index] = elementToSwap;\n\n    delete self._dataMap[value];\n    self._dataIndex.pop();\n  }\n\n  function getAllValues(Set storage self) internal view returns(uint256[] memory) {\n      uint256[] memory result = new uint256[](self._dataIndex.length);\n      for (uint256 i=0; i < self._dataIndex.length; i++) {\n        result[i] = self._dataIndex[i];\n      }\n      return result;\n  }\n\n  function size(Set storage self) internal view returns (uint256) {\n    return self._dataIndex.length;\n  }\n}\n\n// File @openzeppelin/contracts/token/ERC1155/ERC1155.sol@v3.3.0\n\n/**\n *\n * @dev Implementation of the basic standard multi-token.\n * See https://eips.ethereum.org/EIPS/eip-1155\n * Originally based on code by Enjin: https://github.com/enjin/erc-1155\n *\n * _Available since v3.1._\n */\ncontract ERC1155 is Context, ERC165, IERC1155, IERC1155MetadataURI {\n    using SafeMath for uint256;\n    using Address for address;\n    using SetLib for SetLib.Set;\n\n    // Mapping from token ID to account balances\n    mapping (uint256 => mapping(address => uint256)) private _balances;\n\n    // Mapping from account to operator approvals\n    mapping (address => mapping(address => bool)) private _operatorApprovals;\n\n    mapping (address => SetLib.Set) private _ids;\n\n    // Used as the URI for all token types by relying on ID substitution, e.g. https://token-cdn-domain/{id}.json\n    string private _uri;\n\n    /*\n     *     bytes4(keccak256('balanceOf(address,uint256)')) == 0x00fdd58e\n     *     bytes4(keccak256('balanceOfBatch(address[],uint256[])')) == 0x4e1273f4\n     *     bytes4(keccak256('setApprovalForAll(address,bool)')) == 0xa22cb465\n     *     bytes4(keccak256('isApprovedForAll(address,address)')) == 0xe985e9c5\n     *     bytes4(keccak256('safeTransferFrom(address,address,uint256,uint256,bytes)')) == 0xf242432a\n     *     bytes4(keccak256('safeBatchTransferFrom(address,address,uint256[],uint256[],bytes)')) == 0x2eb2c2d6\n     *\n     *     => 0x00fdd58e ^ 0x4e1273f4 ^ 0xa22cb465 ^\n     *        0xe985e9c5 ^ 0xf242432a ^ 0x2eb2c2d6 == 0xd9b67a26\n     */\n    bytes4 private constant _INTERFACE_ID_ERC1155 = 0xd9b67a26;\n\n    /*\n     *     bytes4(keccak256('uri(uint256)')) == 0x0e89341c\n     */\n    bytes4 private constant _INTERFACE_ID_ERC1155_METADATA_URI = 0x0e89341c;\n\n    /**\n     * @dev See {_setURI}.\n     */\n    constructor (string memory uri_) {\n        _setURI(uri_);\n\n        // register the supported interfaces to conform to ERC1155 via ERC165\n        _registerInterface(_INTERFACE_ID_ERC1155);\n\n        // register the supported interfaces to conform to ERC1155MetadataURI via ERC165\n        _registerInterface(_INTERFACE_ID_ERC1155_METADATA_URI);\n    }\n\n    /**\n     * @dev See {IERC1155MetadataURI-uri}.\n     *\n     * This implementation returns the same URI for *all* token types. It relies\n     * on the token type ID substitution mechanism\n     * https://eips.ethereum.org/EIPS/eip-1155#metadata[defined in the EIP].\n     *\n     * Clients calling this function must replace the `\\{id\\}` substring with the\n     * actual token type ID.\n     */\n    function uri(uint256) external view override returns (string memory) {\n        return _uri;\n    }\n\n    /**\n     * @dev See {IERC1155-balanceOf}.\n     *\n     * Requirements:\n     *\n     * - `account` cannot be the zero address.\n     */\n    function balanceOf(address account, uint256 id) public view override returns (uint256) {\n        require(account != address(0), \"ERC1155: balance query for the zero address\");\n        return _balances[id][account];\n    }\n\n    /**\n     * @dev See {IERC1155-balanceOfBatch}.\n     *\n     * Requirements:\n     *\n     * - `accounts` and `ids` must have the same length.\n     */\n    function balanceOfBatch(\n        address[] memory accounts,\n        uint256[] memory ids\n    )\n        public\n        view\n        override\n        returns (uint256[] memory)\n    {\n        require(accounts.length == ids.length, \"ERC1155: accounts and ids length mismatch\");\n\n        uint256[] memory batchBalances = new uint256[](accounts.length);\n\n        for (uint256 i = 0; i < accounts.length; ++i) {\n            require(accounts[i] != address(0), \"ERC1155: batch balance query for the zero address\");\n            batchBalances[i] = _balances[ids[i]][accounts[i]];\n        }\n\n        return batchBalances;\n    }\n\n    /**\n     * @dev See {IERC1155-setApprovalForAll}.\n     */\n    function setApprovalForAll(address operator, bool approved) public virtual override {\n        require(_msgSender() != operator, \"ERC1155: setting approval status for self\");\n\n        _operatorApprovals[_msgSender()][operator] = approved;\n        emit ApprovalForAll(_msgSender(), operator, approved);\n    }\n\n    /**\n     * @dev See {IERC1155-isApprovedForAll}.\n     */\n    function isApprovedForAll(address account, address operator) public view override returns (bool) {\n        return _operatorApprovals[account][operator];\n    }\n\n    /**\n     * @dev See {IERC1155-safeTransferFrom}.\n     */\n    function safeTransferFrom(\n        address from,\n        address to,\n        uint256 id,\n        uint256 amount,\n        bytes memory data\n    )\n        public\n        virtual\n        override\n    {\n        require(to != address(0), \"ERC1155: transfer to the zero address\");\n        require(\n            from == _msgSender() || isApprovedForAll(from, _msgSender()),\n            \"ERC1155: caller is not owner nor approved\"\n        );\n\n        address operator = _msgSender();\n\n        _beforeTokenTransfer(operator, from, to, _asSingletonArray(id), _asSingletonArray(amount), data);\n\n        _balances[id][from] = _balances[id][from].sub(amount, \"ERC1155: insufficient balance for transfer\");\n        _balances[id][to] = _balances[id][to].add(amount);\n        if (amount > 0) {\n            _ids[to].add(id);\n            if (_balances[id][from] == 0) {\n                _ids[from].remove(id);\n            }\n        }\n\n        emit TransferSingle(operator, from, to, id, amount);\n\n        _doSafeTransferAcceptanceCheck(operator, from, to, id, amount, data);\n    }\n\n    /**\n     * @dev See {IERC1155-safeBatchTransferFrom}.\n     */\n    function safeBatchTransferFrom(\n        address from,\n        address to,\n        uint256[] memory ids,\n        uint256[] memory amounts,\n        bytes memory data\n    )\n        public\n        virtual\n        override\n    {\n        require(ids.length == amounts.length, \"ERC1155: ids and amounts length mismatch\");\n        require(to != address(0), \"ERC1155: transfer to the zero address\");\n        require(\n            from == _msgSender() || isApprovedForAll(from, _msgSender()),\n            \"ERC1155: transfer caller is not owner nor approved\"\n        );\n\n        address operator = _msgSender();\n\n        _beforeTokenTransfer(operator, from, to, ids, amounts, data);\n\n        for (uint256 i = 0; i < ids.length; ++i) {\n            uint256 id = ids[i];\n            uint256 amount = amounts[i];\n\n            _balances[id][from] = _balances[id][from].sub(\n                amount,\n                \"ERC1155: insufficient balance for transfer\"\n            );\n            _balances[id][to] = _balances[id][to].add(amount);\n\n            if (amount > 0) {\n                _ids[to].add(id);\n                if (_balances[id][from] == 0) {\n                    _ids[from].remove(id);\n                }\n            }\n        }\n\n        emit TransferBatch(operator, from, to, ids, amounts);\n\n        _doSafeBatchTransferAcceptanceCheck(operator, from, to, ids, amounts, data);\n    }\n\n    /**\n     * @dev Sets a new URI for all token types, by relying on the token type ID\n     * substitution mechanism\n     * https://eips.ethereum.org/EIPS/eip-1155#metadata[defined in the EIP].\n     *\n     * By this mechanism, any occurrence of the `\\{id\\}` substring in either the\n     * URI or any of the amounts in the JSON file at said URI will be replaced by\n     * clients with the token type ID.\n     *\n     * For example, the `https://token-cdn-domain/\\{id\\}.json` URI would be\n     * interpreted by clients as\n     * `https://token-cdn-domain/000000000000000000000000000000000000000000000000000000000004cce0.json`\n     * for token type ID 0x4cce0.\n     *\n     * See {uri}.\n     *\n     * Because these URIs cannot be meaningfully represented by the {URI} event,\n     * this function emits no events.\n     */\n    function _setURI(string memory newuri) internal virtual {\n        _uri = newuri;\n    }\n\n    /**\n     * @dev Creates `amount` tokens of token type `id`, and assigns them to `account`.\n     *\n     * Emits a {TransferSingle} event.\n     *\n     * Requirements:\n     *\n     * - `account` cannot be the zero address.\n     * - If `to` refers to a smart contract, it must implement {IERC1155Receiver-onERC1155Received} and return the\n     * acceptance magic value.\n     */\n    function _mint(address account, uint256 id, uint256 amount, bytes memory data) internal virtual {\n        require(account != address(0), \"ERC1155: mint to the zero address\");\n\n        address operator = _msgSender();\n\n        _beforeTokenTransfer(operator, address(0), account, _asSingletonArray(id), _asSingletonArray(amount), data);\n\n        _balances[id][account] = _balances[id][account].add(amount);\n        _ids[account].add(id);\n        emit TransferSingle(operator, address(0), account, id, amount);\n\n        _doSafeTransferAcceptanceCheck(operator, address(0), account, id, amount, data);\n    }\n\n    /**\n     * @dev xref:ROOT:erc1155.adoc#batch-operations[Batched] version of {_mint}.\n     *\n     * Requirements:\n     *\n     * - `ids` and `amounts` must have the same length.\n     * - If `to` refers to a smart contract, it must implement {IERC1155Receiver-onERC1155BatchReceived} and return the\n     * acceptance magic value.\n     */\n    function _mintBatch(address to, uint256[] memory ids, uint256[] memory amounts, bytes memory data) internal virtual {\n        require(to != address(0), \"ERC1155: mint to the zero address\");\n        require(ids.length == amounts.length, \"ERC1155: ids and amounts length mismatch\");\n\n        address operator = _msgSender();\n\n        _beforeTokenTransfer(operator, address(0), to, ids, amounts, data);\n\n        for (uint i = 0; i < ids.length; i++) {\n            _balances[ids[i]][to] = amounts[i].add(_balances[ids[i]][to]);\n            _ids[to].add(ids[i]);\n        }\n\n        emit TransferBatch(operator, address(0), to, ids, amounts);\n\n        _doSafeBatchTransferAcceptanceCheck(operator, address(0), to, ids, amounts, data);\n    }\n\n    /**\n     * @dev Destroys `amount` tokens of token type `id` from `account`\n     *\n     * Requirements:\n     *\n     * - `account` cannot be the zero address.\n     * - `account` must have at least `amount` tokens of token type `id`.\n     */\n    function _burn(address account, uint256 id, uint256 amount) internal virtual {\n        require(account != address(0), \"ERC1155: burn from the zero address\");\n\n        address operator = _msgSender();\n\n        _beforeTokenTransfer(operator, account, address(0), _asSingletonArray(id), _asSingletonArray(amount), \"\");\n\n        _balances[id][account] = _balances[id][account].sub(\n            amount,\n            \"ERC1155: burn amount exceeds balance\"\n        );\n        if (_balances[id][account] == 0) {\n            _ids[account].remove(id);\n        }\n\n        emit TransferSingle(operator, account, address(0), id, amount);\n    }\n\n    /**\n     * @dev xref:ROOT:erc1155.adoc#batch-operations[Batched] version of {_burn}.\n     *\n     * Requirements:\n     *\n     * - `ids` and `amounts` must have the same length.\n     */\n    function _burnBatch(address account, uint256[] memory ids, uint256[] memory amounts) internal virtual {\n        require(account != address(0), \"ERC1155: burn from the zero address\");\n        require(ids.length == amounts.length, \"ERC1155: ids and amounts length mismatch\");\n\n        address operator = _msgSender();\n\n        _beforeTokenTransfer(operator, account, address(0), ids, amounts, \"\");\n\n        for (uint i = 0; i < ids.length; i++) {\n            _balances[ids[i]][account] = _balances[ids[i]][account].sub(\n                amounts[i],\n                \"ERC1155: burn amount exceeds balance\"\n            );\n            if (_balances[ids[i]][account] == 0) {\n                _ids[account].remove(ids[i]);\n            }\n        }\n\n        emit TransferBatch(operator, account, address(0), ids, amounts);\n    }\n\n    function _getAllIds(address account) internal view returns(uint256[] memory) {\n        require(account != address(0), \"Invalid 0 address\");\n        return _ids[account].getAllValues();\n    }\n    /**\n     * @dev Hook that is called before any token transfer. This includes minting\n     * and burning, as well as batched variants.\n     *\n     * The same hook is called on both single and batched variants. For single\n     * transfers, the length of the `id` and `amount` arrays will be 1.\n     *\n     * Calling conditions (for each `id` and `amount` pair):\n     *\n     * - When `from` and `to` are both non-zero, `amount` of ``from``'s tokens\n     * of token type `id` will be  transferred to `to`.\n     * - When `from` is zero, `amount` tokens of token type `id` will be minted\n     * for `to`.\n     * - when `to` is zero, `amount` of ``from``'s tokens of token type `id`\n     * will be burned.\n     * - `from` and `to` are never both zero.\n     * - `ids` and `amounts` have the same, non-zero length.\n     *\n     * To learn more about hooks, head to xref:ROOT:extending-contracts.adoc#using-hooks[Using Hooks].\n     */\n    function _beforeTokenTransfer(\n        address operator,\n        address from,\n        address to,\n        uint256[] memory ids,\n        uint256[] memory amounts,\n        bytes memory data\n    )\n        internal virtual\n    { }\n\n    function _doSafeTransferAcceptanceCheck(\n        address operator,\n        address from,\n        address to,\n        uint256 id,\n        uint256 amount,\n        bytes memory data\n    )\n        private\n    {\n        if (to.isContract()) {\n            try IERC1155Receiver(to).onERC1155Received(operator, from, id, amount, data) returns (bytes4 response) {\n                if (response != IERC1155Receiver(to).onERC1155Received.selector) {\n                    revert(\"ERC1155: ERC1155Receiver rejected tokens\");\n                }\n            } catch Error(string memory reason) {\n                revert(reason);\n            } catch {\n                revert(\"ERC1155: transfer to non ERC1155Receiver implementer\");\n            }\n        }\n    }\n\n    function _doSafeBatchTransferAcceptanceCheck(\n        address operator,\n        address from,\n        address to,\n        uint256[] memory ids,\n        uint256[] memory amounts,\n        bytes memory data\n    )\n        private\n    {\n        if (to.isContract()) {\n            try IERC1155Receiver(to).onERC1155BatchReceived(operator, from, ids, amounts, data) returns (bytes4 response) {\n                if (response != IERC1155Receiver(to).onERC1155BatchReceived.selector) {\n                    revert(\"ERC1155: ERC1155Receiver rejected tokens\");\n                }\n            } catch Error(string memory reason) {\n                revert(reason);\n            } catch {\n                revert(\"ERC1155: transfer to non ERC1155Receiver implementer\");\n            }\n        }\n    }\n\n    function _asSingletonArray(uint256 element) private pure returns (uint256[] memory) {\n        uint256[] memory array = new uint256[](1);\n        array[0] = element;\n\n        return array;\n    }\n}\n\ncontract Dogcard is ERC1155, Ownable, ReentrancyGuard {\n    constructor() ERC1155(\"!API DATA WILL BE HERE! \") {}\n\n    mapping(address => bool) public isMinter;\n\n    function setMinter(address minter, bool status) public nonReentrant onlyOwner {\n        isMinter[minter] = status;\n    }\n\n    function mint(address to, uint256 id, uint256 amount) public nonReentrant {\n      require(isMinter[_msgSender()] == true, \"Caller is not a minter\");\n      _mint(to, id, amount, \"\");\n    }\n    function burn(uint256 id, uint256 amount) public nonReentrant {\n        _burn(_msgSender(), id, amount); \n    }\n\n    function setURI(string calldata uri) public nonReentrant onlyOwner {\n        _setURI(uri);\n    }\n\n    function burnBatch(uint256[] memory ids, uint256[] memory amounts) public nonReentrant {\n        _burnBatch(_msgSender(), ids, amounts);\n    }\n\n    function getFullBalance(address _addr) public view returns(uint256[] memory, uint256[] memory) {\n        uint256[] memory ids = _getAllIds(_addr);\n        uint256[] memory balances = new uint256[](ids.length);\n        for(uint256 i; i < ids.length; i++) {\n            balances[i] = balanceOf(_addr, ids[i]);\n        }\n        return (ids, balances);\n    }\n}\n",
  "sourcePath": "/home/alexander87/Desktop/WSDG/contracts/DogcardBase.sol",
  "compiler": {
    "name": "solc",
    "version": "0.7.6+commit.7338295f.Emscripten.clang"
  },
  "schemaVersion": "3.3.4",
  "updatedAt": "2021-02-18T19:58:51.726Z",
  "devdoc": {
    "kind": "dev",
    "methods": {
      "balanceOf(address,uint256)": {
        "details": "See {IERC1155-balanceOf}. Requirements: - `account` cannot be the zero address."
      },
      "balanceOfBatch(address[],uint256[])": {
        "details": "See {IERC1155-balanceOfBatch}. Requirements: - `accounts` and `ids` must have the same length."
      },
      "isApprovedForAll(address,address)": {
        "details": "See {IERC1155-isApprovedForAll}."
      },
      "owner()": {
        "details": "Returns the address of the current owner."
      },
      "renounceOwnership()": {
        "details": "Leaves the contract without owner. It will not be possible to call `onlyOwner` functions anymore. Can only be called by the current owner. NOTE: Renouncing ownership will leave the contract without an owner, thereby removing any functionality that is only available to the owner."
      },
      "safeBatchTransferFrom(address,address,uint256[],uint256[],bytes)": {
        "details": "See {IERC1155-safeBatchTransferFrom}."
      },
      "safeTransferFrom(address,address,uint256,uint256,bytes)": {
        "details": "See {IERC1155-safeTransferFrom}."
      },
      "setApprovalForAll(address,bool)": {
        "details": "See {IERC1155-setApprovalForAll}."
      },
      "supportsInterface(bytes4)": {
        "details": "See {IERC165-supportsInterface}. Time complexity O(1), guaranteed to always use less than 30 000 gas."
      },
      "transferOwnership(address)": {
        "details": "Transfers ownership of the contract to a new account (`newOwner`). Can only be called by the current owner."
      },
      "uri(uint256)": {
        "details": "See {IERC1155MetadataURI-uri}. This implementation returns the same URI for *all* token types. It relies on the token type ID substitution mechanism https://eips.ethereum.org/EIPS/eip-1155#metadata[defined in the EIP]. Clients calling this function must replace the `\\{id\\}` substring with the actual token type ID."
      }
    },
    "version": 1
  },
  "userdoc": {
    "kind": "user",
    "methods": {},
    "version": 1
  }
}