{
  "contractName": "DogcardFarm",
  "abi": [
    {
      "inputs": [
        {
          "internalType": "uint256",
          "name": "_emissionRate",
          "type": "uint256"
        },
        {
          "internalType": "contract IERC20",
          "name": "_lpToken",
          "type": "address"
        }
      ],
      "stateMutability": "nonpayable",
      "type": "constructor"
    },
    {
      "anonymous": false,
      "inputs": [
        {
          "indexed": true,
          "internalType": "address",
          "name": "previousOwner",
          "type": "address"
        },
        {
          "indexed": true,
          "internalType": "address",
          "name": "newOwner",
          "type": "address"
        }
      ],
      "name": "OwnershipTransferred",
      "type": "event"
    },
    {
      "inputs": [],
      "name": "emissionRate",
      "outputs": [
        {
          "internalType": "uint256",
          "name": "",
          "type": "uint256"
        }
      ],
      "stateMutability": "view",
      "type": "function"
    },
    {
      "inputs": [
        {
          "internalType": "uint256",
          "name": "",
          "type": "uint256"
        }
      ],
      "name": "nftInfo",
      "outputs": [
        {
          "internalType": "address",
          "name": "contractAddress",
          "type": "address"
        },
        {
          "internalType": "uint256",
          "name": "id",
          "type": "uint256"
        },
        {
          "internalType": "uint256",
          "name": "remaining",
          "type": "uint256"
        },
        {
          "internalType": "uint256",
          "name": "price",
          "type": "uint256"
        }
      ],
      "stateMutability": "view",
      "type": "function"
    },
    {
      "inputs": [],
      "name": "owner",
      "outputs": [
        {
          "internalType": "address",
          "name": "",
          "type": "address"
        }
      ],
      "stateMutability": "view",
      "type": "function"
    },
    {
      "inputs": [],
      "name": "renounceOwnership",
      "outputs": [],
      "stateMutability": "nonpayable",
      "type": "function"
    },
    {
      "inputs": [
        {
          "internalType": "address",
          "name": "newOwner",
          "type": "address"
        }
      ],
      "name": "transferOwnership",
      "outputs": [],
      "stateMutability": "nonpayable",
      "type": "function"
    },
    {
      "inputs": [
        {
          "internalType": "address",
          "name": "",
          "type": "address"
        }
      ],
      "name": "userInfo",
      "outputs": [
        {
          "internalType": "uint256",
          "name": "amount",
          "type": "uint256"
        },
        {
          "internalType": "uint256",
          "name": "lastUpdateAt",
          "type": "uint256"
        },
        {
          "internalType": "uint256",
          "name": "pointsDebt",
          "type": "uint256"
        }
      ],
      "stateMutability": "view",
      "type": "function"
    },
    {
      "inputs": [
        {
          "internalType": "address",
          "name": "contractAddress",
          "type": "address"
        },
        {
          "internalType": "uint256",
          "name": "id",
          "type": "uint256"
        },
        {
          "internalType": "uint256",
          "name": "total",
          "type": "uint256"
        },
        {
          "internalType": "uint256",
          "name": "price",
          "type": "uint256"
        }
      ],
      "name": "addNFT",
      "outputs": [],
      "stateMutability": "nonpayable",
      "type": "function"
    },
    {
      "inputs": [
        {
          "internalType": "uint256",
          "name": "_amount",
          "type": "uint256"
        }
      ],
      "name": "deposit",
      "outputs": [],
      "stateMutability": "nonpayable",
      "type": "function"
    },
    {
      "inputs": [
        {
          "internalType": "uint256",
          "name": "_nftIndex",
          "type": "uint256"
        },
        {
          "internalType": "uint256",
          "name": "_quantity",
          "type": "uint256"
        }
      ],
      "name": "claim",
      "outputs": [],
      "stateMutability": "nonpayable",
      "type": "function"
    },
    {
      "inputs": [
        {
          "internalType": "uint256[]",
          "name": "_nftIndex",
          "type": "uint256[]"
        },
        {
          "internalType": "uint256[]",
          "name": "_quantity",
          "type": "uint256[]"
        }
      ],
      "name": "claimMultiple",
      "outputs": [],
      "stateMutability": "nonpayable",
      "type": "function"
    },
    {
      "inputs": [],
      "name": "claimRandom",
      "outputs": [],
      "stateMutability": "nonpayable",
      "type": "function"
    },
    {
      "inputs": [
        {
          "internalType": "uint256",
          "name": "_amount",
          "type": "uint256"
        }
      ],
      "name": "withdraw",
      "outputs": [],
      "stateMutability": "nonpayable",
      "type": "function"
    },
    {
      "inputs": [],
      "name": "exit",
      "outputs": [],
      "stateMutability": "nonpayable",
      "type": "function"
    },
    {
      "inputs": [
        {
          "internalType": "address",
          "name": "userAddress",
          "type": "address"
        }
      ],
      "name": "pointsBalance",
      "outputs": [
        {
          "internalType": "uint256",
          "name": "",
          "type": "uint256"
        }
      ],
      "stateMutability": "view",
      "type": "function"
    },
    {
      "inputs": [],
      "name": "nftCount",
      "outputs": [
        {
          "internalType": "uint256",
          "name": "",
          "type": "uint256"
        }
      ],
      "stateMutability": "view",
      "type": "function"
    },
    {
      "inputs": [
        {
          "internalType": "address",
          "name": "operator",
          "type": "address"
        },
        {
          "internalType": "address",
          "name": "from",
          "type": "address"
        },
        {
          "internalType": "uint256",
          "name": "id",
          "type": "uint256"
        },
        {
          "internalType": "uint256",
          "name": "value",
          "type": "uint256"
        },
        {
          "internalType": "bytes",
          "name": "data",
          "type": "bytes"
        }
      ],
      "name": "onERC1155Received",
      "outputs": [
        {
          "internalType": "bytes4",
          "name": "",
          "type": "bytes4"
        }
      ],
      "stateMutability": "nonpayable",
      "type": "function"
    }
  ],
  "bytecode": "0x608060405234801561001057600080fd5b50604051611e33380380611e338339818101604052604081101561003357600080fd5b8101908080519060200190929190805190602001909291905050506000610067610154640100000000026401000000009004565b9050806000806101000a81548173ffffffffffffffffffffffffffffffffffffffff021916908373ffffffffffffffffffffffffffffffffffffffff1602179055508073ffffffffffffffffffffffffffffffffffffffff16600073ffffffffffffffffffffffffffffffffffffffff167f8be0079c531659141344cd1fd0a4f28419497f9722a3daafe3b4186f6b6457e060405160405180910390a3508160018190555080600260006101000a81548173ffffffffffffffffffffffffffffffffffffffff021916908373ffffffffffffffffffffffffffffffffffffffff160217905550505061015c565b600033905090565b611cc88061016b6000396000f3fe608060405234801561001057600080fd5b506004361061011d576000357c010000000000000000000000000000000000000000000000000000000090048063715018a6116100b4578063c349026311610083578063c34902631461045d578063e9fad8ee14610495578063f23a6e611461049f578063f2fde38b1461059f5761011d565b8063715018a6146103d35780638da5cb5b146103dd57806396afc45014610411578063b6b55f251461042f5761011d565b806325ca4cff116100f057806325ca4cff146102755780632e1a7d4d146102cd57806338c369f1146102fb57806357db6e1d146103055761011d565b80630af2c6ca146101225780631959a002146101405780631f8bc790146101a657806324e8cab314610213575b600080fd5b61012a6105e3565b6040518082815260200191505060405180910390f35b6101826004803603602081101561015657600080fd5b81019080803573ffffffffffffffffffffffffffffffffffffffff1690602001909291905050506105f0565b60405180848152602001838152602001828152602001935050505060405180910390f35b6101d2600480360360208110156101bc57600080fd5b810190808035906020019092919050505061061a565b604051808573ffffffffffffffffffffffffffffffffffffffff16815260200184815260200183815260200182815260200194505050505060405180910390f35b6102736004803603608081101561022957600080fd5b81019080803573ffffffffffffffffffffffffffffffffffffffff169060200190929190803590602001909291908035906020019092919080359060200190929190505050610677565b005b6102b76004803603602081101561028b57600080fd5b81019080803573ffffffffffffffffffffffffffffffffffffffff1690602001909291905050506108ed565b6040518082815260200191505060405180910390f35b6102f9600480360360208110156102e357600080fd5b8101908080359060200190929190505050610988565b005b610303610acf565b005b6103d16004803603604081101561031b57600080fd5b810190808035906020019064010000000081111561033857600080fd5b82018360208201111561034a57600080fd5b8035906020019184602083028401116401000000008311171561036c57600080fd5b90919293919293908035906020019064010000000081111561038d57600080fd5b82018360208201111561039f57600080fd5b803590602001918460208302840111640100000000831117156103c157600080fd5b9091929391929390505050610ba6565b005b6103db610c8f565b005b6103e5610e15565b604051808273ffffffffffffffffffffffffffffffffffffffff16815260200191505060405180910390f35b610419610e3e565b6040518082815260200191505060405180910390f35b61045b6004803603602081101561044557600080fd5b8101908080359060200190929190505050610e44565b005b6104936004803603604081101561047357600080fd5b810190808035906020019092919080359060200190929190505050610f20565b005b61049d6111fe565b005b61056a600480360360a08110156104b557600080fd5b81019080803573ffffffffffffffffffffffffffffffffffffffff169060200190929190803573ffffffffffffffffffffffffffffffffffffffff16906020019092919080359060200190929190803590602001909291908035906020019064010000000081111561052657600080fd5b82018360208201111561053857600080fd5b8035906020019184600183028401116401000000008311171561055a57600080fd5b9091929391929390505050611253565b60405180827bffffffffffffffffffffffffffffffffffffffffffffffffffffffff1916815260200191505060405180910390f35b6105e1600480360360208110156105b557600080fd5b81019080803573ffffffffffffffffffffffffffffffffffffffff169060200190929190505050611282565b005b6000600380549050905090565b60046020528060005260406000206000915090508060000154908060010154908060020154905083565b6003818154811061062757fe5b90600052602060002090600402016000915090508060000160009054906101000a900473ffffffffffffffffffffffffffffffffffffffff16908060010154908060020154908060030154905084565b61067f61148d565b73ffffffffffffffffffffffffffffffffffffffff1660008054906101000a900473ffffffffffffffffffffffffffffffffffffffff1673ffffffffffffffffffffffffffffffffffffffff161461073f576040517f08c379a00000000000000000000000000000000000000000000000000000000081526004018080602001828103825260208152602001807f4f776e61626c653a2063616c6c6572206973206e6f7420746865206f776e657281525060200191505060405180910390fd5b8373ffffffffffffffffffffffffffffffffffffffff1663f242432a333086866040518563ffffffff167c0100000000000000000000000000000000000000000000000000000000028152600401808573ffffffffffffffffffffffffffffffffffffffff1681526020018473ffffffffffffffffffffffffffffffffffffffff1681526020018381526020018281526020018060200182810382526000815260200160200195505050505050600060405180830381600087803b15801561080657600080fd5b505af115801561081a573d6000803e3d6000fd5b50505050600360405180608001604052808673ffffffffffffffffffffffffffffffffffffffff16815260200185815260200184815260200183815250908060018154018082558091505060019003906000526020600020906004020160009091909190915060008201518160000160006101000a81548173ffffffffffffffffffffffffffffffffffffffff021916908373ffffffffffffffffffffffffffffffffffffffff160217905550602082015181600101556040820151816002015560608201518160030155505050505050565b60006108f7611c00565b600460008473ffffffffffffffffffffffffffffffffffffffff1673ffffffffffffffffffffffffffffffffffffffff1681526020019081526020016000206040518060600160405290816000820154815260200160018201548152602001600282015481525050905061098061096d82611495565b82604001516114df90919063ffffffff16565b915050919050565b6000600460003373ffffffffffffffffffffffffffffffffffffffff1673ffffffffffffffffffffffffffffffffffffffff16815260200190815260200160002090508181600001541015610a45576040517f08c379a00000000000000000000000000000000000000000000000000000000081526004018080602001828103825260138152602001807f496e73756666696369656e74207374616b65640000000000000000000000000081525060200191505060405180910390fd5b610a4e336108ed565b8160020181905550610a6d82826000015461156790919063ffffffff16565b8160000181905550428160010181905550610acb3383600260009054906101000a900473ffffffffffffffffffffffffffffffffffffffff1673ffffffffffffffffffffffffffffffffffffffff166115b19092919063ffffffff16565b5050565b60005b610ada6105e3565b8167ffffffffffffffff161015610ba357600060038267ffffffffffffffff1681548110610b0457fe5b906000526020600020906004020190506000610b1f336108ed565b90506000610b3a83600301548361166f90919063ffffffff16565b905060008360020154118015610b505750600081115b15610b935782600201548111610b7957610b748467ffffffffffffffff1682610f20565b610b92565b610b918467ffffffffffffffff168460020154610f20565b5b5b5050508080600101915050610ad2565b50565b818190508484905014610c21576040517f08c379a00000000000000000000000000000000000000000000000000000000081526004018080602001828103825260168152602001807f496e636f7272656374206172726179206c656e6774680000000000000000000081525060200191505060405180910390fd5b60005b848490508167ffffffffffffffff161015610c8857610c7b85858367ffffffffffffffff16818110610c5257fe5b9050602002013584848467ffffffffffffffff16818110610c6f57fe5b90506020020135610f20565b8080600101915050610c24565b5050505050565b610c9761148d565b73ffffffffffffffffffffffffffffffffffffffff1660008054906101000a900473ffffffffffffffffffffffffffffffffffffffff1673ffffffffffffffffffffffffffffffffffffffff1614610d57576040517f08c379a00000000000000000000000000000000000000000000000000000000081526004018080602001828103825260208152602001807f4f776e61626c653a2063616c6c6572206973206e6f7420746865206f776e657281525060200191505060405180910390fd5b600073ffffffffffffffffffffffffffffffffffffffff1660008054906101000a900473ffffffffffffffffffffffffffffffffffffffff1673ffffffffffffffffffffffffffffffffffffffff167f8be0079c531659141344cd1fd0a4f28419497f9722a3daafe3b4186f6b6457e060405160405180910390a360008060006101000a81548173ffffffffffffffffffffffffffffffffffffffff021916908373ffffffffffffffffffffffffffffffffffffffff160217905550565b60008060009054906101000a900473ffffffffffffffffffffffffffffffffffffffff16905090565b60015481565b610e93333083600260009054906101000a900473ffffffffffffffffffffffffffffffffffffffff1673ffffffffffffffffffffffffffffffffffffffff166116b9909392919063ffffffff16565b6000600460003373ffffffffffffffffffffffffffffffffffffffff1673ffffffffffffffffffffffffffffffffffffffff16815260200190815260200160002090506000816000015414610ef457610eeb336108ed565b81600201819055505b610f0b8282600001546114df90919063ffffffff16565b81600001819055504281600101819055505050565b600060038381548110610f2f57fe5b906000526020600020906004020190506000816002015411610fb9576040517f08c379a000000000000000000000000000000000000000000000000000000000815260040180806020018281038252600f8152602001807f416c6c204e465473206661726d6564000000000000000000000000000000000081525060200191505060405180910390fd5b610fd082826003015461179690919063ffffffff16565b610fd9336108ed565b101561104d576040517f08c379a00000000000000000000000000000000000000000000000000000000081526004018080602001828103825260138152602001807f496e73756666696369656e7420506f696e74730000000000000000000000000081525060200191505060405180910390fd5b6000600460003373ffffffffffffffffffffffffffffffffffffffff1673ffffffffffffffffffffffffffffffffffffffff16815260200190815260200160002090506110c16110aa84846003015461179690919063ffffffff16565b6110b3336108ed565b61156790919063ffffffff16565b81600201819055504281600101819055508160000160009054906101000a900473ffffffffffffffffffffffffffffffffffffffff1673ffffffffffffffffffffffffffffffffffffffff1663f242432a30338560010154876040518563ffffffff167c0100000000000000000000000000000000000000000000000000000000028152600401808573ffffffffffffffffffffffffffffffffffffffff1681526020018473ffffffffffffffffffffffffffffffffffffffff1681526020018381526020018281526020018060200182810382526000815260200160200195505050505050600060405180830381600087803b1580156111c157600080fd5b505af11580156111d5573d6000803e3d6000fd5b505050506111f083836002015461156790919063ffffffff16565b826002018190555050505050565b611206610acf565b611251600460003373ffffffffffffffffffffffffffffffffffffffff1673ffffffffffffffffffffffffffffffffffffffff16815260200190815260200160002060000154610988565b565b60007ff23a6e612e1ff4830e658fe43f4e3cb4a5f8170bd5d9e69fb5d7a7fa9e4fdf9790509695505050505050565b61128a61148d565b73ffffffffffffffffffffffffffffffffffffffff1660008054906101000a900473ffffffffffffffffffffffffffffffffffffffff1673ffffffffffffffffffffffffffffffffffffffff161461134a576040517f08c379a00000000000000000000000000000000000000000000000000000000081526004018080602001828103825260208152602001807f4f776e61626c653a2063616c6c6572206973206e6f7420746865206f776e657281525060200191505060405180910390fd5b600073ffffffffffffffffffffffffffffffffffffffff168173ffffffffffffffffffffffffffffffffffffffff1614156113d0576040517f08c379a0000000000000000000000000000000000000000000000000000000008152600401808060200182810382526026815260200180611c226026913960400191505060405180910390fd5b8073ffffffffffffffffffffffffffffffffffffffff1660008054906101000a900473ffffffffffffffffffffffffffffffffffffffff1673ffffffffffffffffffffffffffffffffffffffff167f8be0079c531659141344cd1fd0a4f28419497f9722a3daafe3b4186f6b6457e060405160405180910390a3806000806101000a81548173ffffffffffffffffffffffffffffffffffffffff021916908373ffffffffffffffffffffffffffffffffffffffff16021790555050565b600033905090565b60006114d882600001516114ca6001546114bc86602001514261156790919063ffffffff16565b61179690919063ffffffff16565b61179690919063ffffffff16565b9050919050565b60008082840190508381101561155d576040517f08c379a000000000000000000000000000000000000000000000000000000000815260040180806020018281038252601b8152602001807f536166654d6174683a206164646974696f6e206f766572666c6f77000000000081525060200191505060405180910390fd5b8091505092915050565b60006115a983836040518060400160405280601e81526020017f536166654d6174683a207375627472616374696f6e206f766572666c6f77000081525061181c565b905092915050565b61166a8363a9059cbb7c0100000000000000000000000000000000000000000000000000000000028484604051602401808373ffffffffffffffffffffffffffffffffffffffff16815260200182815260200192505050604051602081830303815290604052907bffffffffffffffffffffffffffffffffffffffffffffffffffffffff19166020820180517bffffffffffffffffffffffffffffffffffffffffffffffffffffffff83818316178352505050506118dc565b505050565b60006116b183836040518060400160405280601a81526020017f536166654d6174683a206469766973696f6e206279207a65726f000000000000815250611b27565b905092915050565b611790846323b872dd7c010000000000000000000000000000000000000000000000000000000002858585604051602401808473ffffffffffffffffffffffffffffffffffffffff1681526020018373ffffffffffffffffffffffffffffffffffffffff1681526020018281526020019350505050604051602081830303815290604052907bffffffffffffffffffffffffffffffffffffffffffffffffffffffff19166020820180517bffffffffffffffffffffffffffffffffffffffffffffffffffffffff83818316178352505050506118dc565b50505050565b6000808314156117a95760009050611816565b60008284029050828482816117ba57fe5b0414611811576040517f08c379a0000000000000000000000000000000000000000000000000000000008152600401808060200182810382526021815260200180611c486021913960400191505060405180910390fd5b809150505b92915050565b60008383111582906118c9576040517f08c379a00000000000000000000000000000000000000000000000000000000081526004018080602001828103825283818151815260200191508051906020019080838360005b8381101561188e578082015181840152602081019050611873565b50505050905090810190601f1680156118bb5780820380516001836020036101000a031916815260200191505b509250505060405180910390fd5b5060008385039050809150509392505050565b6118fb8273ffffffffffffffffffffffffffffffffffffffff16611bed565b61196d576040517f08c379a000000000000000000000000000000000000000000000000000000000815260040180806020018281038252601f8152602001807f5361666545524332303a2063616c6c20746f206e6f6e2d636f6e74726163740081525060200191505060405180910390fd5b600060608373ffffffffffffffffffffffffffffffffffffffff16836040518082805190602001908083835b602083106119bc5780518252602082019150602081019050602083039250611999565b6001836020036101000a0380198251168184511680821785525050505050509050019150506000604051808303816000865af19150503d8060008114611a1e576040519150601f19603f3d011682016040523d82523d6000602084013e611a23565b606091505b509150915081611a9b576040517f08c379a00000000000000000000000000000000000000000000000000000000081526004018080602001828103825260208152602001807f5361666545524332303a206c6f772d6c6576656c2063616c6c206661696c656481525060200191505060405180910390fd5b600081511115611b2157808060200190516020811015611aba57600080fd5b8101908080519060200190929190505050611b20576040517f08c379a000000000000000000000000000000000000000000000000000000000815260040180806020018281038252602a815260200180611c69602a913960400191505060405180910390fd5b5b50505050565b60008083118290611bd3576040517f08c379a00000000000000000000000000000000000000000000000000000000081526004018080602001828103825283818151815260200191508051906020019080838360005b83811015611b98578082015181840152602081019050611b7d565b50505050905090810190601f168015611bc55780820380516001836020036101000a031916815260200191505b509250505060405180910390fd5b506000838581611bdf57fe5b049050809150509392505050565b600080823b905060008111915050919050565b6040518060600160405280600081526020016000815260200160008152509056fe4f776e61626c653a206e6577206f776e657220697320746865207a65726f2061646472657373536166654d6174683a206d756c7469706c69636174696f6e206f766572666c6f775361666545524332303a204552433230206f7065726174696f6e20646964206e6f742073756363656564a2646970667358221220c7f494a496bdd74362f7b173de23388f78aade726e6078f9df091dbbb44c47bf64736f6c63430007030033",
  "immutableReferences": {},
  "source": "// SPDX-License-Identifier: MIT\n\npragma solidity ^0.7.3;\n\nimport \"./lib/SafeMath.sol\";\nimport \"./lib/Ownable.sol\";\nimport \"./lib/IERC20.sol\";\nimport \"./lib/IERC1155.sol\";\nimport \"./lib/SafeERC20.sol\";\n\n/**\n * User Flow:\n * NFT's are deposited into this contract, having some Price as `points` associated to them.\n * In order to claim an NFT, the user must have sufficient `points` to reach Price threshold.\n * To increase `points` balance, user must deposit lp tokens to this contract.\n * `points` balance increases dynamically with each passing second allowing user to Farm NFTs!\n * \n */\n\ncontract DogcardFarm is Ownable {\n    using SafeMath for uint256;\n    using SafeERC20 for IERC20;\n    \n    struct UserInfo {\n        uint256 amount;         // current staked LP\n        uint256 lastUpdateAt;   // unix timestamp for last details update (when pointsDebt calculated)\n        uint256 pointsDebt;     // total points collected before latest deposit\n    }\n    \n    struct NFTInfo {\n        address contractAddress;\n        uint256 id;             // NFT id\n        uint256 remaining;      // NFTs remaining to farm\n        uint256 price;          // points required to claim NFT\n    }\n    \n    uint256 public emissionRate;       // points generated per LP token per second staked\n    IERC20 lpToken;                    // token being staked\n    \n    NFTInfo[] public nftInfo;\n    mapping(address => UserInfo) public userInfo;\n    \n    constructor(uint256 _emissionRate, IERC20 _lpToken) public {\n        emissionRate = _emissionRate;\n        lpToken = _lpToken;\n    }\n    \n    function addNFT(\n        address contractAddress,    // Only ERC-1155 NFT Supported!\n        uint256 id,\n        uint256 total,              // amount of NFTs deposited to farm (need to approve before)\n        uint256 price\n    ) external onlyOwner {\n        IERC1155(contractAddress).safeTransferFrom(\n            msg.sender,\n            address(this),\n            id,\n            total,\n            \"\"\n        );\n        nftInfo.push(NFTInfo({\n            contractAddress: contractAddress,\n            id: id,\n            remaining: total,\n            price: price\n        }));\n    }\n    \n    function deposit(uint256 _amount) external {\n        lpToken.safeTransferFrom(\n            msg.sender,\n            address(this),\n            _amount\n        );\n        \n        UserInfo storage user = userInfo[msg.sender];\n        \n        // already deposited before\n        if(user.amount != 0) {\n            user.pointsDebt = pointsBalance(msg.sender);\n        }\n        user.amount = user.amount.add(_amount);\n        user.lastUpdateAt = block.timestamp;\n    }\n    \n    // claim nft if points threshold reached\n    function claim(uint256 _nftIndex, uint256 _quantity) public {\n        NFTInfo storage nft = nftInfo[_nftIndex];\n        require(nft.remaining > 0, \"All NFTs farmed\");\n        require(pointsBalance(msg.sender) >= nft.price.mul(_quantity), \"Insufficient Points\");\n        UserInfo storage user = userInfo[msg.sender];\n        \n        // deduct points\n        user.pointsDebt = pointsBalance(msg.sender).sub(nft.price.mul(_quantity));\n        user.lastUpdateAt = block.timestamp;\n        \n        // transfer nft\n        IERC1155(nft.contractAddress).safeTransferFrom(\n            address(this),\n            msg.sender,\n            nft.id,\n            _quantity,\n            \"\"\n        );\n        \n        nft.remaining = nft.remaining.sub(_quantity);\n    }\n    \n    function claimMultiple(uint256[] calldata _nftIndex, uint256[] calldata _quantity) external {\n        require(_nftIndex.length == _quantity.length, \"Incorrect array length\");\n        for(uint64 i=0; i< _nftIndex.length; i++) {\n            claim(_nftIndex[i], _quantity[i]);\n        }\n    }\n    \n    // claim random nft's from available balance\n    function claimRandom() public {\n        for(uint64 i; i < nftCount(); i++) {\n            NFTInfo storage nft = nftInfo[i];\n            uint256 userBalance = pointsBalance(msg.sender);\n            uint256 maxQty = userBalance.div(nft.price);        // max quantity of nfts user can claim\n            if(nft.remaining > 0 && maxQty > 0) {\n                if(maxQty <= nft.remaining) {\n                    claim(i, maxQty);\n                } else {\n                    claim(i, nft.remaining);\n                }\n            }\n        }\n    }\n    \n    function withdraw(uint256 _amount) public {\n        UserInfo storage user = userInfo[msg.sender];\n        require(user.amount >= _amount, \"Insufficient staked\");\n        \n        // update userInfo\n        user.pointsDebt = pointsBalance(msg.sender);\n        user.amount = user.amount.sub(_amount);\n        user.lastUpdateAt = block.timestamp;\n        \n        lpToken.safeTransfer(\n            msg.sender,\n            _amount\n        );\n    }\n    \n    // claim random NFTs and withdraw all LP tokens\n    function exit() external {\n        claimRandom();\n        withdraw(userInfo[msg.sender].amount);\n    }\n    \n    function pointsBalance(address userAddress) public view returns (uint256) {\n        UserInfo memory user = userInfo[userAddress];\n        return user.pointsDebt.add(_unDebitedPoints(user));\n    }\n    \n    function _unDebitedPoints(UserInfo memory user) internal view returns (uint256) {\n        return block.timestamp.sub(user.lastUpdateAt).mul(emissionRate).mul(user.amount);\n    }\n    \n    function nftCount() public view returns (uint256) {\n        return nftInfo.length;\n    }\n    \n    // required function to allow receiving ERC-1155\n    function onERC1155Received(\n        address operator,\n        address from,\n        uint256 id,\n        uint256 value,\n        bytes calldata data\n    )\n        external\n        returns(bytes4)\n    {\n        return bytes4(keccak256(\"onERC1155Received(address,address,uint256,uint256,bytes)\"));\n    }\n}\n",
  "sourcePath": "/home/alexander87/Desktop/WSDG/contracts/DogcardFarm.sol",
  "compiler": {
    "name": "solc",
    "version": "0.7.3+commit.9bfce1f6.Emscripten.clang"
  },
  "schemaVersion": "3.3.4",
  "updatedAt": "2021-02-18T15:29:40.624Z",
  "devdoc": {
    "kind": "dev",
    "methods": {
      "owner()": {
        "details": "Returns the address of the current owner."
      },
      "renounceOwnership()": {
        "details": "Leaves the contract without owner. It will not be possible to call `onlyOwner` functions anymore. Can only be called by the current owner. NOTE: Renouncing ownership will leave the contract without an owner, thereby removing any functionality that is only available to the owner."
      },
      "transferOwnership(address)": {
        "details": "Transfers ownership of the contract to a new account (`newOwner`). Can only be called by the current owner."
      }
    },
    "version": 1
  },
  "userdoc": {
    "kind": "user",
    "methods": {},
    "notice": "User Flow: NFT's are deposited into this contract, having some Price as `points` associated to them. In order to claim an NFT, the user must have sufficient `points` to reach Price threshold. To increase `points` balance, user must deposit lp tokens to this contract. `points` balance increases dynamically with each passing second allowing user to Farm NFTs! ",
    "version": 1
  }
}