{
  "contractName": "ERC20StakingPool",
  "abi": [
    {
      "inputs": [
        {
          "internalType": "address",
          "name": "_stakeToken",
          "type": "address"
        },
        {
          "internalType": "address",
          "name": "_rewardToken",
          "type": "address"
        },
        {
          "internalType": "address",
          "name": "_feeAddress",
          "type": "address"
        },
        {
          "internalType": "uint256",
          "name": "_feeRate",
          "type": "uint256"
        },
        {
          "internalType": "uint256",
          "name": "_returnRate",
          "type": "uint256"
        }
      ],
      "stateMutability": "nonpayable",
      "type": "constructor"
    },
    {
      "anonymous": false,
      "inputs": [
        {
          "indexed": true,
          "internalType": "address",
          "name": "previousOwner",
          "type": "address"
        },
        {
          "indexed": true,
          "internalType": "address",
          "name": "newOwner",
          "type": "address"
        }
      ],
      "name": "OwnershipTransferred",
      "type": "event"
    },
    {
      "anonymous": false,
      "inputs": [
        {
          "indexed": true,
          "internalType": "address",
          "name": "user",
          "type": "address"
        },
        {
          "indexed": false,
          "internalType": "uint256",
          "name": "amount",
          "type": "uint256"
        }
      ],
      "name": "Redeem",
      "type": "event"
    },
    {
      "anonymous": false,
      "inputs": [
        {
          "indexed": true,
          "internalType": "address",
          "name": "user",
          "type": "address"
        },
        {
          "indexed": false,
          "internalType": "uint256",
          "name": "amount",
          "type": "uint256"
        }
      ],
      "name": "Staked",
      "type": "event"
    },
    {
      "anonymous": false,
      "inputs": [
        {
          "indexed": true,
          "internalType": "address",
          "name": "user",
          "type": "address"
        },
        {
          "indexed": false,
          "internalType": "uint256",
          "name": "amount",
          "type": "uint256"
        }
      ],
      "name": "Unstake",
      "type": "event"
    },
    {
      "inputs": [
        {
          "internalType": "address",
          "name": "",
          "type": "address"
        }
      ],
      "name": "lastUpdateTime",
      "outputs": [
        {
          "internalType": "uint256",
          "name": "",
          "type": "uint256"
        }
      ],
      "stateMutability": "view",
      "type": "function"
    },
    {
      "inputs": [],
      "name": "owner",
      "outputs": [
        {
          "internalType": "address",
          "name": "",
          "type": "address"
        }
      ],
      "stateMutability": "view",
      "type": "function"
    },
    {
      "inputs": [],
      "name": "renounceOwnership",
      "outputs": [],
      "stateMutability": "nonpayable",
      "type": "function"
    },
    {
      "inputs": [
        {
          "internalType": "address",
          "name": "",
          "type": "address"
        }
      ],
      "name": "reward",
      "outputs": [
        {
          "internalType": "uint256",
          "name": "",
          "type": "uint256"
        }
      ],
      "stateMutability": "view",
      "type": "function"
    },
    {
      "inputs": [],
      "name": "totalStaked",
      "outputs": [
        {
          "internalType": "uint256",
          "name": "",
          "type": "uint256"
        }
      ],
      "stateMutability": "view",
      "type": "function"
    },
    {
      "inputs": [
        {
          "internalType": "address",
          "name": "newOwner",
          "type": "address"
        }
      ],
      "name": "transferOwnership",
      "outputs": [],
      "stateMutability": "nonpayable",
      "type": "function"
    },
    {
      "inputs": [],
      "name": "getFeeAddress",
      "outputs": [
        {
          "internalType": "address",
          "name": "",
          "type": "address"
        }
      ],
      "stateMutability": "view",
      "type": "function"
    },
    {
      "inputs": [
        {
          "internalType": "address",
          "name": "_feeAddress",
          "type": "address"
        }
      ],
      "name": "setFeeAddress",
      "outputs": [],
      "stateMutability": "nonpayable",
      "type": "function"
    },
    {
      "inputs": [],
      "name": "getFeeRate",
      "outputs": [
        {
          "internalType": "uint256",
          "name": "",
          "type": "uint256"
        }
      ],
      "stateMutability": "view",
      "type": "function"
    },
    {
      "inputs": [
        {
          "internalType": "uint256",
          "name": "_feeRate",
          "type": "uint256"
        }
      ],
      "name": "setFeeRate",
      "outputs": [],
      "stateMutability": "nonpayable",
      "type": "function"
    },
    {
      "inputs": [],
      "name": "getReturnRate",
      "outputs": [
        {
          "internalType": "uint256",
          "name": "",
          "type": "uint256"
        }
      ],
      "stateMutability": "view",
      "type": "function"
    },
    {
      "inputs": [
        {
          "internalType": "uint256",
          "name": "_returnRate",
          "type": "uint256"
        }
      ],
      "name": "setReturnRate",
      "outputs": [],
      "stateMutability": "nonpayable",
      "type": "function"
    },
    {
      "inputs": [
        {
          "internalType": "address",
          "name": "account",
          "type": "address"
        }
      ],
      "name": "balanceOf",
      "outputs": [
        {
          "internalType": "uint256",
          "name": "",
          "type": "uint256"
        }
      ],
      "stateMutability": "view",
      "type": "function"
    },
    {
      "inputs": [
        {
          "internalType": "address",
          "name": "account",
          "type": "address"
        }
      ],
      "name": "manualUpdate",
      "outputs": [],
      "stateMutability": "nonpayable",
      "type": "function"
    },
    {
      "inputs": [
        {
          "internalType": "address",
          "name": "account",
          "type": "address"
        }
      ],
      "name": "earned",
      "outputs": [
        {
          "internalType": "uint256",
          "name": "",
          "type": "uint256"
        }
      ],
      "stateMutability": "view",
      "type": "function"
    },
    {
      "inputs": [
        {
          "internalType": "uint256",
          "name": "amount",
          "type": "uint256"
        }
      ],
      "name": "stake",
      "outputs": [],
      "stateMutability": "nonpayable",
      "type": "function"
    },
    {
      "inputs": [
        {
          "internalType": "uint256",
          "name": "amount",
          "type": "uint256"
        }
      ],
      "name": "withdraw",
      "outputs": [],
      "stateMutability": "nonpayable",
      "type": "function"
    },
    {
      "inputs": [],
      "name": "exit",
      "outputs": [],
      "stateMutability": "nonpayable",
      "type": "function"
    },
    {
      "inputs": [],
      "name": "redeem",
      "outputs": [],
      "stateMutability": "nonpayable",
      "type": "function"
    }
  ],
  "bytecode": "0x60806040526000600a5534801561001557600080fd5b50604051620027d9380380620027d9833981810160405260a081101561003a57600080fd5b8101908080519060200190929190805190602001909291908051906020019092919080519060200190929190805190602001909291905050506001600081905550600061008b61022060201b60201c565b905080600160006101000a81548173ffffffffffffffffffffffffffffffffffffffff021916908373ffffffffffffffffffffffffffffffffffffffff1602179055508073ffffffffffffffffffffffffffffffffffffffff16600073ffffffffffffffffffffffffffffffffffffffff167f8be0079c531659141344cd1fd0a4f28419497f9722a3daafe3b4186f6b6457e060405160405180910390a35084600260006101000a81548173ffffffffffffffffffffffffffffffffffffffff021916908373ffffffffffffffffffffffffffffffffffffffff16021790555083600360006101000a81548173ffffffffffffffffffffffffffffffffffffffff021916908373ffffffffffffffffffffffffffffffffffffffff16021790555082600460006101000a81548173ffffffffffffffffffffffffffffffffffffffff021916908373ffffffffffffffffffffffffffffffffffffffff16021790555081600581905550806006819055506000600760006101000a81548160ff0219169083151502179055505050505050610228565b600033905090565b6125a180620002386000396000f3fe608060405234801561001057600080fd5b50600436106101205760003560e01c806370a08231116100ad5780638da5cb5b116100715780638da5cb5b1461042f578063a694fc3a14610463578063be040fb014610491578063e9fad8ee1461049b578063f2fde38b146104a557610120565b806370a082311461034d578063715018a6146103a5578063817b1cd2146103af57806384e5eed0146103cd5780638705fcd4146103eb57610120565b806337e332bb116100f457806337e332bb1461023157806345596e2e1461024f5780634e7ceacb1461027d57806353ad5256146102b15780636353586b146102f557610120565b80628cc262146101255780632ce9aead1461017d5780632e1a7d4d146101d55780632f9999e714610203575b600080fd5b6101676004803603602081101561013b57600080fd5b81019080803573ffffffffffffffffffffffffffffffffffffffff1690602001909291905050506104e9565b6040518082815260200191505060405180910390f35b6101bf6004803603602081101561019357600080fd5b81019080803573ffffffffffffffffffffffffffffffffffffffff1690602001909291905050506105d8565b6040518082815260200191505060405180910390f35b610201600480360360208110156101eb57600080fd5b81019080803590602001909291905050506105f0565b005b61022f6004803603602081101561021957600080fd5b8101908080359060200190929190505050610be9565b005b610239610e82565b6040518082815260200191505060405180910390f35b61027b6004803603602081101561026557600080fd5b8101908080359060200190929190505050610e8c565b005b610285611060565b604051808273ffffffffffffffffffffffffffffffffffffffff16815260200191505060405180910390f35b6102f3600480360360208110156102c757600080fd5b81019080803573ffffffffffffffffffffffffffffffffffffffff16906020019092919050505061108a565b005b6103376004803603602081101561030b57600080fd5b81019080803573ffffffffffffffffffffffffffffffffffffffff169060200190929190505050611152565b6040518082815260200191505060405180910390f35b61038f6004803603602081101561036357600080fd5b81019080803573ffffffffffffffffffffffffffffffffffffffff16906020019092919050505061116a565b6040518082815260200191505060405180910390f35b6103ad6111b3565b005b6103b761133e565b6040518082815260200191505060405180910390f35b6103d5611344565b6040518082815260200191505060405180910390f35b61042d6004803603602081101561040157600080fd5b81019080803573ffffffffffffffffffffffffffffffffffffffff16906020019092919050505061134e565b005b6104376114e5565b604051808273ffffffffffffffffffffffffffffffffffffffff16815260200191505060405180910390f35b61048f6004803603602081101561047957600080fd5b810190808035906020019092919050505061150f565b005b610499611b61565b005b6104a3611f15565b005b6104e7600480360360208110156104bb57600080fd5b81019080803573ffffffffffffffffffffffffffffffffffffffff169060200190929190505050611f2f565b005b600080429050600760009054906101000a900460ff161561050a5760085490505b600061055e600c60008673ffffffffffffffffffffffffffffffffffffffff1673ffffffffffffffffffffffffffffffffffffffff168152602001908152602001600020548361213f90919063ffffffff16565b9050600061056b8561116a565b905060006105798383612189565b90506105cd81600d60008973ffffffffffffffffffffffffffffffffffffffff1673ffffffffffffffffffffffffffffffffffffffff1681526020019081526020016000205461221d90919063ffffffff16565b945050505050919050565b600c6020528060005260406000206000915090505481565b6105f86122a5565b600073ffffffffffffffffffffffffffffffffffffffff168173ffffffffffffffffffffffffffffffffffffffff16146106bd57610635816104e9565b600d60008373ffffffffffffffffffffffffffffffffffffffff1673ffffffffffffffffffffffffffffffffffffffff1681526020019081526020016000208190555042600c60008373ffffffffffffffffffffffffffffffffffffffff1673ffffffffffffffffffffffffffffffffffffffff168152602001908152602001600020819055505b60026000541415610736576040517f08c379a000000000000000000000000000000000000000000000000000000000815260040180806020018281038252601f8152602001807f5265656e7472616e637947756172643a207265656e7472616e742063616c6c0081525060200191505060405180910390fd5b6002600081905550600082116107b4576040517f08c379a00000000000000000000000000000000000000000000000000000000081526004018080602001828103825260118152602001807f43616e6e6f74207769746864726177203000000000000000000000000000000081525060200191505060405180910390fd5b6107c46107bf6122a5565b61116a565b82111561081c576040517f08c379a00000000000000000000000000000000000000000000000000000000081526004018080602001828103825260218152602001806125046021913960400191505060405180910390fd5b600260009054906101000a900473ffffffffffffffffffffffffffffffffffffffff1673ffffffffffffffffffffffffffffffffffffffff1663a9059cbb6108626122a5565b846040518363ffffffff1660e01b8152600401808373ffffffffffffffffffffffffffffffffffffffff16815260200182815260200192505050602060405180830381600087803b1580156108b657600080fd5b505af11580156108ca573d6000803e3d6000fd5b505050506040513d60208110156108e057600080fd5b81019080805190602001909291905050505061094b82600b60006109026122a5565b73ffffffffffffffffffffffffffffffffffffffff1673ffffffffffffffffffffffffffffffffffffffff1681526020019081526020016000205461213f90919063ffffffff16565b600b60006109576122a5565b73ffffffffffffffffffffffffffffffffffffffff1673ffffffffffffffffffffffffffffffffffffffff168152602001908152602001600020819055506000600b60006109a36122a5565b73ffffffffffffffffffffffffffffffffffffffff1673ffffffffffffffffffffffffffffffffffffffff168152602001908152602001600020541415610b6d5760005b6009805490508167ffffffffffffffff161015610b6b57610a066122a5565b73ffffffffffffffffffffffffffffffffffffffff1660098267ffffffffffffffff1681548110610a3357fe5b9060005260206000200160009054906101000a900473ffffffffffffffffffffffffffffffffffffffff1673ffffffffffffffffffffffffffffffffffffffff161415610b5e57600960016009805490500381548110610a8f57fe5b9060005260206000200160009054906101000a900473ffffffffffffffffffffffffffffffffffffffff1660098267ffffffffffffffff1681548110610ad157fe5b9060005260206000200160006101000a81548173ffffffffffffffffffffffffffffffffffffffff021916908373ffffffffffffffffffffffffffffffffffffffff1602179055506009805480610b2457fe5b6001900381819060005260206000200160006101000a81549073ffffffffffffffffffffffffffffffffffffffff02191690559055610b6b565b80806001019150506109e7565b505b610b8282600a5461213f90919063ffffffff16565b600a81905550610b906122a5565b73ffffffffffffffffffffffffffffffffffffffff167f85082129d87b2fe11527cb1b3b7a520aeb5aa6913f88a3d8757fe40d1db02fdd836040518082815260200191505060405180910390a260016000819055505050565b610bf16122a5565b73ffffffffffffffffffffffffffffffffffffffff16600160009054906101000a900473ffffffffffffffffffffffffffffffffffffffff1673ffffffffffffffffffffffffffffffffffffffff1614610cb3576040517f08c379a00000000000000000000000000000000000000000000000000000000081526004018080602001828103825260208152602001807f4f776e61626c653a2063616c6c6572206973206e6f7420746865206f776e657281525060200191505060405180910390fd5b60026000541415610d2c576040517f08c379a000000000000000000000000000000000000000000000000000000000815260040180806020018281038252601f8152602001807f5265656e7472616e637947756172643a207265656e7472616e742063616c6c0081525060200191505060405180910390fd5b60026000819055506103e88111610dab576040517f08c379a00000000000000000000000000000000000000000000000000000000081526004018080602001828103825260158152602001807f52657475726e207261746520746f6f20736d616c6c000000000000000000000081525060200191505060405180910390fd5b60005b6009805490508167ffffffffffffffff161015610e6f576000610e1160098367ffffffffffffffff1681548110610de157fe5b9060005260206000200160009054906101000a900473ffffffffffffffffffffffffffffffffffffffff1661116a565b1115610e6257610e6160098267ffffffffffffffff1681548110610e3157fe5b9060005260206000200160009054906101000a900473ffffffffffffffffffffffffffffffffffffffff1661108a565b5b8080600101915050610dae565b5080600681905550600160008190555050565b6000600654905090565b610e946122a5565b73ffffffffffffffffffffffffffffffffffffffff16600160009054906101000a900473ffffffffffffffffffffffffffffffffffffffff1673ffffffffffffffffffffffffffffffffffffffff1614610f56576040517f08c379a00000000000000000000000000000000000000000000000000000000081526004018080602001828103825260208152602001807f4f776e61626c653a2063616c6c6572206973206e6f7420746865206f776e657281525060200191505060405180910390fd5b60026000541415610fcf576040517f08c379a000000000000000000000000000000000000000000000000000000000815260040180806020018281038252601f8152602001807f5265656e7472616e637947756172643a207265656e7472616e742063616c6c0081525060200191505060405180910390fd5b60026000819055506103e8811161104e576040517f08c379a00000000000000000000000000000000000000000000000000000000081526004018080602001828103825260128152602001807f466565207261746520746f6f20736d616c6c000000000000000000000000000081525060200191505060405180910390fd5b80600581905550600160008190555050565b6000600460009054906101000a900473ffffffffffffffffffffffffffffffffffffffff16905090565b600073ffffffffffffffffffffffffffffffffffffffff168173ffffffffffffffffffffffffffffffffffffffff161461114f576110c7816104e9565b600d60008373ffffffffffffffffffffffffffffffffffffffff1673ffffffffffffffffffffffffffffffffffffffff1681526020019081526020016000208190555042600c60008373ffffffffffffffffffffffffffffffffffffffff1673ffffffffffffffffffffffffffffffffffffffff168152602001908152602001600020819055505b50565b600d6020528060005260406000206000915090505481565b6000600b60008373ffffffffffffffffffffffffffffffffffffffff1673ffffffffffffffffffffffffffffffffffffffff168152602001908152602001600020549050919050565b6111bb6122a5565b73ffffffffffffffffffffffffffffffffffffffff16600160009054906101000a900473ffffffffffffffffffffffffffffffffffffffff1673ffffffffffffffffffffffffffffffffffffffff161461127d576040517f08c379a00000000000000000000000000000000000000000000000000000000081526004018080602001828103825260208152602001807f4f776e61626c653a2063616c6c6572206973206e6f7420746865206f776e657281525060200191505060405180910390fd5b600073ffffffffffffffffffffffffffffffffffffffff16600160009054906101000a900473ffffffffffffffffffffffffffffffffffffffff1673ffffffffffffffffffffffffffffffffffffffff167f8be0079c531659141344cd1fd0a4f28419497f9722a3daafe3b4186f6b6457e060405160405180910390a36000600160006101000a81548173ffffffffffffffffffffffffffffffffffffffff021916908373ffffffffffffffffffffffffffffffffffffffff160217905550565b600a5481565b6000600554905090565b6113566122a5565b73ffffffffffffffffffffffffffffffffffffffff16600160009054906101000a900473ffffffffffffffffffffffffffffffffffffffff1673ffffffffffffffffffffffffffffffffffffffff1614611418576040517f08c379a00000000000000000000000000000000000000000000000000000000081526004018080602001828103825260208152602001807f4f776e61626c653a2063616c6c6572206973206e6f7420746865206f776e657281525060200191505060405180910390fd5b60026000541415611491576040517f08c379a000000000000000000000000000000000000000000000000000000000815260040180806020018281038252601f8152602001807f5265656e7472616e637947756172643a207265656e7472616e742063616c6c0081525060200191505060405180910390fd5b600260008190555080600460006101000a81548173ffffffffffffffffffffffffffffffffffffffff021916908373ffffffffffffffffffffffffffffffffffffffff160217905550600160008190555050565b6000600160009054906101000a900473ffffffffffffffffffffffffffffffffffffffff16905090565b6115176122a5565b600073ffffffffffffffffffffffffffffffffffffffff168173ffffffffffffffffffffffffffffffffffffffff16146115dc57611554816104e9565b600d60008373ffffffffffffffffffffffffffffffffffffffff1673ffffffffffffffffffffffffffffffffffffffff1681526020019081526020016000208190555042600c60008373ffffffffffffffffffffffffffffffffffffffff1673ffffffffffffffffffffffffffffffffffffffff168152602001908152602001600020819055505b60026000541415611655576040517f08c379a000000000000000000000000000000000000000000000000000000000815260040180806020018281038252601f8152602001807f5265656e7472616e637947756172643a207265656e7472616e742063616c6c0081525060200191505060405180910390fd5b600260008190555060648210156116d4576040517f08c379a000000000000000000000000000000000000000000000000000000000815260040180806020018281038252600f8152602001807f546f6f20736d616c6c207374616b65000000000000000000000000000000000081525060200191505060405180910390fd5b600760009054906101000a900460ff1615611757576040517f08c379a00000000000000000000000000000000000000000000000000000000081526004018080602001828103825260128152602001807f436f6e74726163742069732066726f7a656e000000000000000000000000000081525060200191505060405180910390fd5b6000611788670de0b6b3a764000061177a600554866122ad90919063ffffffff16565b61233390919063ffffffff16565b9050600061179f828561213f90919063ffffffff16565b90506000600b60006117af6122a5565b73ffffffffffffffffffffffffffffffffffffffff1673ffffffffffffffffffffffffffffffffffffffff16815260200190815260200160002054141561185b5760096117fa6122a5565b9080600181540180825580915050600190039060005260206000200160009091909190916101000a81548173ffffffffffffffffffffffffffffffffffffffff021916908373ffffffffffffffffffffffffffffffffffffffff1602179055505b6118b481600b600061186b6122a5565b73ffffffffffffffffffffffffffffffffffffffff1673ffffffffffffffffffffffffffffffffffffffff1681526020019081526020016000205461221d90919063ffffffff16565b600b60006118c06122a5565b73ffffffffffffffffffffffffffffffffffffffff1673ffffffffffffffffffffffffffffffffffffffff1681526020019081526020016000208190555061191381600a5461221d90919063ffffffff16565b600a81905550600260009054906101000a900473ffffffffffffffffffffffffffffffffffffffff1673ffffffffffffffffffffffffffffffffffffffff166323b872dd61195f6122a5565b30876040518463ffffffff1660e01b8152600401808473ffffffffffffffffffffffffffffffffffffffff1681526020018373ffffffffffffffffffffffffffffffffffffffff1681526020018281526020019350505050602060405180830381600087803b1580156119d157600080fd5b505af11580156119e5573d6000803e3d6000fd5b505050506040513d60208110156119fb57600080fd5b810190808051906020019092919050505050600260009054906101000a900473ffffffffffffffffffffffffffffffffffffffff1673ffffffffffffffffffffffffffffffffffffffff1663a9059cbb600460009054906101000a900473ffffffffffffffffffffffffffffffffffffffff16846040518363ffffffff1660e01b8152600401808373ffffffffffffffffffffffffffffffffffffffff16815260200182815260200192505050602060405180830381600087803b158015611ac257600080fd5b505af1158015611ad6573d6000803e3d6000fd5b505050506040513d6020811015611aec57600080fd5b810190808051906020019092919050505050611b066122a5565b73ffffffffffffffffffffffffffffffffffffffff167f9e71bc8eea02a63969f509818f2dafb9254532904319f9dbda79b67bd34a5f3d826040518082815260200191505060405180910390a2505060016000819055505050565b611b696122a5565b600073ffffffffffffffffffffffffffffffffffffffff168173ffffffffffffffffffffffffffffffffffffffff1614611c2e57611ba6816104e9565b600d60008373ffffffffffffffffffffffffffffffffffffffff1673ffffffffffffffffffffffffffffffffffffffff1681526020019081526020016000208190555042600c60008373ffffffffffffffffffffffffffffffffffffffff1673ffffffffffffffffffffffffffffffffffffffff168152602001908152602001600020819055505b60026000541415611ca7576040517f08c379a000000000000000000000000000000000000000000000000000000000815260040180806020018281038252601f8152602001807f5265656e7472616e637947756172643a207265656e7472616e742063616c6c0081525060200191505060405180910390fd5b60026000819055506000600d6000611cbd6122a5565b73ffffffffffffffffffffffffffffffffffffffff1673ffffffffffffffffffffffffffffffffffffffff1681526020019081526020016000205411611d6b576040517f08c379a00000000000000000000000000000000000000000000000000000000081526004018080602001828103825260118152602001807f4e6f7468696e6720746f2072656465656d00000000000000000000000000000081525060200191505060405180910390fd5b6000600d6000611d796122a5565b73ffffffffffffffffffffffffffffffffffffffff1673ffffffffffffffffffffffffffffffffffffffff1681526020019081526020016000205490506000600d6000611dc46122a5565b73ffffffffffffffffffffffffffffffffffffffff1673ffffffffffffffffffffffffffffffffffffffff16815260200190815260200160002081905550600360009054906101000a900473ffffffffffffffffffffffffffffffffffffffff1673ffffffffffffffffffffffffffffffffffffffff166340c10f19611e486122a5565b836040518363ffffffff1660e01b8152600401808373ffffffffffffffffffffffffffffffffffffffff16815260200182815260200192505050600060405180830381600087803b158015611e9c57600080fd5b505af1158015611eb0573d6000803e3d6000fd5b50505050611ebc6122a5565b73ffffffffffffffffffffffffffffffffffffffff167f222838db2794d11532d940e8dec38ae307ed0b63cd97c233322e221f998767a6826040518082815260200191505060405180910390a250600160008190555050565b611f2d611f28611f236122a5565b61116a565b6105f0565b565b611f376122a5565b73ffffffffffffffffffffffffffffffffffffffff16600160009054906101000a900473ffffffffffffffffffffffffffffffffffffffff1673ffffffffffffffffffffffffffffffffffffffff1614611ff9576040517f08c379a00000000000000000000000000000000000000000000000000000000081526004018080602001828103825260208152602001807f4f776e61626c653a2063616c6c6572206973206e6f7420746865206f776e657281525060200191505060405180910390fd5b600073ffffffffffffffffffffffffffffffffffffffff168173ffffffffffffffffffffffffffffffffffffffff16141561207f576040517f08c379a00000000000000000000000000000000000000000000000000000000081526004018080602001828103825260268152602001806125256026913960400191505060405180910390fd5b8073ffffffffffffffffffffffffffffffffffffffff16600160009054906101000a900473ffffffffffffffffffffffffffffffffffffffff1673ffffffffffffffffffffffffffffffffffffffff167f8be0079c531659141344cd1fd0a4f28419497f9722a3daafe3b4186f6b6457e060405160405180910390a380600160006101000a81548173ffffffffffffffffffffffffffffffffffffffff021916908373ffffffffffffffffffffffffffffffffffffffff16021790555050565b600061218183836040518060400160405280601e81526020017f536166654d6174683a207375627472616374696f6e206f766572666c6f77000081525061237d565b905092915050565b6000612215670de0b6b3a76400006122076006546121f9670de0b6b3a76400006121eb886121dd620151806121cf670de0b6b3a76400008e6122ad90919063ffffffff16565b61233390919063ffffffff16565b6122ad90919063ffffffff16565b61233390919063ffffffff16565b6122ad90919063ffffffff16565b61233390919063ffffffff16565b905092915050565b60008082840190508381101561229b576040517f08c379a000000000000000000000000000000000000000000000000000000000815260040180806020018281038252601b8152602001807f536166654d6174683a206164646974696f6e206f766572666c6f77000000000081525060200191505060405180910390fd5b8091505092915050565b600033905090565b6000808314156122c0576000905061232d565b60008284029050828482816122d157fe5b0414612328576040517f08c379a000000000000000000000000000000000000000000000000000000000815260040180806020018281038252602181526020018061254b6021913960400191505060405180910390fd5b809150505b92915050565b600061237583836040518060400160405280601a81526020017f536166654d6174683a206469766973696f6e206279207a65726f00000000000081525061243d565b905092915050565b600083831115829061242a576040517f08c379a00000000000000000000000000000000000000000000000000000000081526004018080602001828103825283818151815260200191508051906020019080838360005b838110156123ef5780820151818401526020810190506123d4565b50505050905090810190601f16801561241c5780820380516001836020036101000a031916815260200191505b509250505060405180910390fd5b5060008385039050809150509392505050565b600080831182906124e9576040517f08c379a00000000000000000000000000000000000000000000000000000000081526004018080602001828103825283818151815260200191508051906020019080838360005b838110156124ae578082015181840152602081019050612493565b50505050905090810190601f1680156124db5780820380516001836020036101000a031916815260200191505b509250505060405180910390fd5b5060008385816124f557fe5b04905080915050939250505056fe43616e6e6f74207769746864726177206d6f7265207468616e2062616c616e63654f776e61626c653a206e6577206f776e657220697320746865207a65726f2061646472657373536166654d6174683a206d756c7469706c69636174696f6e206f766572666c6f77a264697066735822122053008013d85bfb29bd6900e8bd2b899e9b8500920d1a109a3fa29ecaa619299e64736f6c63430007060033",
  "immutableReferences": {},
  "source": "// SPDX-License-Identifier: MIT\n\npragma solidity ^0.7.3;\n\nimport \"./lib/SafeMath.sol\";\nimport \"./lib/IERC20.sol\";\nimport \"./lib/Context.sol\";\nimport \"./lib/ReentrancyGuard.sol\";\nimport \"./lib/Ownable.sol\";\n\ncontract ERC20StakingPool is ReentrancyGuard, Context, Ownable {\n  using SafeMath for uint256;\n\n  constructor(address _stakeToken, address _rewardToken, address _feeAddress, uint256 _feeRate, uint256 _returnRate) {\n    STAKE_TOKEN = IERC20(_stakeToken);\n    REWARD_TOKEN = IERC20(_rewardToken);\n    feeAddress = _feeAddress;\n    feeRate = _feeRate;\n    returnRate = _returnRate;\n    isFrozen = false;\n  }\n\n  IERC20 private STAKE_TOKEN;\n  IERC20 private REWARD_TOKEN;\n\n  address private feeAddress;\n  uint256 private feeRate;\n  uint256 private returnRate;\n  bool private isFrozen;\n  uint256 private frozenTimestamp;\n  address[] private stakers;\n\n  uint256 public totalStaked = 0;\n\n  mapping(address => uint256) private stakedBalance;\n  mapping(address => uint256) public lastUpdateTime;\n  mapping(address => uint256) public reward;\n\n  event Staked(address indexed user, uint256 amount);\n  event Unstake(address indexed user, uint256 amount);\n  event Redeem(address indexed user, uint256 amount);\n\n  modifier updateReward(address account) {\n    if (account != address(0)) {\n      reward[account] = earned(account);\n      lastUpdateTime[account] = block.timestamp;\n    }\n    _;\n  }\n\n  function getFeeAddress() public view returns (address) {\n    return feeAddress;\n  }\n\n  function setFeeAddress(address _feeAddress) public onlyOwner nonReentrant {\n    feeAddress = _feeAddress;\n  }\n\n  function getFeeRate() public view returns (uint256) {\n    return feeRate;\n  }\n\n  function setFeeRate(uint256 _feeRate) public onlyOwner nonReentrant {\n    require(_feeRate > 1e3, \"Fee rate too small\");\n    feeRate = _feeRate;\n  }\n\n  function getReturnRate()  public view returns(uint256) {\n    return returnRate;\n  }\n\n  function setReturnRate(uint256 _returnRate) public onlyOwner nonReentrant {\n    require(_returnRate > 1e3, \"Return rate too small\");\n    for (uint64 i=0; i < stakers.length; i++) {\n      if (balanceOf(stakers[i]) > 0 ) {\n        manualUpdate(stakers[i]);\n      }\n    }\n    returnRate = _returnRate;\n  }\n\n  function balanceOf(address account) public view returns (uint256) {\n    return stakedBalance[account];\n  }\n\n  function manualUpdate(address account) public {\n    if (account != address(0)) {\n      reward[account] = earned(account);\n      lastUpdateTime[account] = block.timestamp;\n    }\n  }\n\n  function earned(address account) public view returns (uint256) {\n    uint256 blockTime = block.timestamp;\n    if (isFrozen) {\n      blockTime = frozenTimestamp;\n    }\n    uint256 timeDiff = blockTime.sub(lastUpdateTime[account]);\n    uint256 staked = balanceOf(account);\n    uint256 earnedAmount = computeEarned(timeDiff, staked);\n\n    return reward[account].add(earnedAmount);\n  }\n  function computeEarned(uint256 timeDiff, uint256 staked) private view returns(uint256) {\n    return timeDiff.mul(1e18).div(86400).mul(staked).div(1e18).mul(returnRate).div(1e18);\n  }\n\n  function stake(uint256 amount) public updateReward(_msgSender()) nonReentrant {\n    require(amount >= 100, \"Too small stake\");\n    require(!isFrozen, \"Contract is frozen\");\n    uint256 fee = amount.mul(feeRate).div(1e18);\n    uint256 stakeAmount = amount.sub(fee);\n    if (stakedBalance[_msgSender()] == 0) {\n      stakers.push(_msgSender());\n    }\n\n    stakedBalance[_msgSender()] = stakedBalance[_msgSender()].add(stakeAmount);\n    totalStaked = totalStaked.add(stakeAmount);\n    STAKE_TOKEN.transferFrom(_msgSender(), address(this), amount);\n    STAKE_TOKEN.transfer(feeAddress, fee);\n    emit Staked(_msgSender(), stakeAmount);\n  }\n\n  function withdraw(uint256 amount) public updateReward(_msgSender()) nonReentrant {\n    require(amount > 0, \"Cannot withdraw 0\");\n    require(amount <= balanceOf(_msgSender()), \"Cannot withdraw more than balance\");\n    STAKE_TOKEN.transfer(_msgSender(), amount);\n    stakedBalance[_msgSender()] = stakedBalance[_msgSender()].sub(amount);\n    if (stakedBalance[_msgSender()] == 0) {\n      for (uint64 i=0; i < stakers.length; i++) {\n        if (stakers[i] == _msgSender()) {\n          stakers[i] = stakers[stakers.length - 1];\n          stakers.pop();\n          break;\n        }\n      }\n    }\n    totalStaked = totalStaked.sub(amount);\n    emit Unstake(_msgSender(), amount);\n  }\n\n  function exit() external {\n    withdraw(balanceOf(_msgSender()));\n  }\n    \n  function redeem() public updateReward(_msgSender()) nonReentrant {\n    require(reward[_msgSender()] > 0, \"Nothing to redeem\");\n    uint256 amount = reward[_msgSender()];\n    reward[_msgSender()] = 0;\n    REWARD_TOKEN.mint(_msgSender(), amount);\n    emit Redeem(_msgSender(), amount);\n  }\n}\n",
  "sourcePath": "/home/alexander87/Desktop/WSDG/contracts/ERC20StakingPool.sol",
  "compiler": {
    "name": "solc",
    "version": "0.7.6+commit.7338295f.Emscripten.clang"
  },
  "schemaVersion": "3.3.4",
  "updatedAt": "2021-02-18T19:58:57.395Z",
  "devdoc": {
    "kind": "dev",
    "methods": {
      "owner()": {
        "details": "Returns the address of the current owner."
      },
      "renounceOwnership()": {
        "details": "Leaves the contract without owner. It will not be possible to call `onlyOwner` functions anymore. Can only be called by the current owner. NOTE: Renouncing ownership will leave the contract without an owner, thereby removing any functionality that is only available to the owner."
      },
      "transferOwnership(address)": {
        "details": "Transfers ownership of the contract to a new account (`newOwner`). Can only be called by the current owner."
      }
    },
    "version": 1
  },
  "userdoc": {
    "kind": "user",
    "methods": {},
    "version": 1
  }
}