{
  "contractName": "NFTSale",
  "abi": [
    {
      "inputs": [
        {
          "internalType": "address",
          "name": "wsdgToken",
          "type": "address"
        },
        {
          "internalType": "address",
          "name": "nftToken",
          "type": "address"
        },
        {
          "internalType": "address",
          "name": "_feeAddress",
          "type": "address"
        },
        {
          "internalType": "address",
          "name": "_authAddress",
          "type": "address"
        },
        {
          "internalType": "uint256",
          "name": "",
          "type": "uint256"
        },
        {
          "internalType": "uint256",
          "name": "_nftWSDGPrice",
          "type": "uint256"
        }
      ],
      "stateMutability": "nonpayable",
      "type": "constructor"
    },
    {
      "anonymous": false,
      "inputs": [
        {
          "indexed": true,
          "internalType": "uint256",
          "name": "buyId",
          "type": "uint256"
        },
        {
          "indexed": false,
          "internalType": "address",
          "name": "account",
          "type": "address"
        }
      ],
      "name": "Buy",
      "type": "event"
    },
    {
      "anonymous": false,
      "inputs": [
        {
          "indexed": true,
          "internalType": "address",
          "name": "previousOwner",
          "type": "address"
        },
        {
          "indexed": true,
          "internalType": "address",
          "name": "newOwner",
          "type": "address"
        }
      ],
      "name": "OwnershipTransferred",
      "type": "event"
    },
    {
      "inputs": [],
      "name": "authAddress",
      "outputs": [
        {
          "internalType": "address",
          "name": "",
          "type": "address"
        }
      ],
      "stateMutability": "view",
      "type": "function"
    },
    {
      "inputs": [],
      "name": "feeAddress",
      "outputs": [
        {
          "internalType": "address",
          "name": "",
          "type": "address"
        }
      ],
      "stateMutability": "view",
      "type": "function"
    },
    {
      "inputs": [],
      "name": "nftWSDGPrice",
      "outputs": [
        {
          "internalType": "uint256",
          "name": "",
          "type": "uint256"
        }
      ],
      "stateMutability": "view",
      "type": "function"
    },
    {
      "inputs": [],
      "name": "owner",
      "outputs": [
        {
          "internalType": "address",
          "name": "",
          "type": "address"
        }
      ],
      "stateMutability": "view",
      "type": "function"
    },
    {
      "inputs": [
        {
          "internalType": "address",
          "name": "",
          "type": "address"
        },
        {
          "internalType": "uint256",
          "name": "",
          "type": "uint256"
        }
      ],
      "name": "pendingPurchases",
      "outputs": [
        {
          "internalType": "uint256",
          "name": "",
          "type": "uint256"
        }
      ],
      "stateMutability": "view",
      "type": "function"
    },
    {
      "inputs": [],
      "name": "renounceOwnership",
      "outputs": [],
      "stateMutability": "nonpayable",
      "type": "function"
    },
    {
      "inputs": [
        {
          "internalType": "uint256",
          "name": "",
          "type": "uint256"
        }
      ],
      "name": "sales",
      "outputs": [
        {
          "internalType": "address",
          "name": "",
          "type": "address"
        }
      ],
      "stateMutability": "view",
      "type": "function"
    },
    {
      "inputs": [],
      "name": "totalBought",
      "outputs": [
        {
          "internalType": "uint256",
          "name": "",
          "type": "uint256"
        }
      ],
      "stateMutability": "view",
      "type": "function"
    },
    {
      "inputs": [
        {
          "internalType": "address",
          "name": "newOwner",
          "type": "address"
        }
      ],
      "name": "transferOwnership",
      "outputs": [],
      "stateMutability": "nonpayable",
      "type": "function"
    },
    {
      "inputs": [
        {
          "internalType": "uint256",
          "name": "amount",
          "type": "uint256"
        }
      ],
      "name": "buyNFT",
      "outputs": [],
      "stateMutability": "nonpayable",
      "type": "function"
    },
    {
      "inputs": [
        {
          "internalType": "uint256",
          "name": "id",
          "type": "uint256"
        },
        {
          "internalType": "uint256",
          "name": "amount",
          "type": "uint256"
        },
        {
          "internalType": "uint256",
          "name": "saleId",
          "type": "uint256"
        },
        {
          "internalType": "uint8",
          "name": "v",
          "type": "uint8"
        },
        {
          "internalType": "bytes32",
          "name": "r",
          "type": "bytes32"
        },
        {
          "internalType": "bytes32",
          "name": "s",
          "type": "bytes32"
        }
      ],
      "name": "redeemERC1155",
      "outputs": [],
      "stateMutability": "nonpayable",
      "type": "function"
    },
    {
      "inputs": [
        {
          "internalType": "uint256[]",
          "name": "id",
          "type": "uint256[]"
        },
        {
          "internalType": "uint256[]",
          "name": "amount",
          "type": "uint256[]"
        },
        {
          "internalType": "uint256[]",
          "name": "saleId",
          "type": "uint256[]"
        },
        {
          "internalType": "uint8",
          "name": "v",
          "type": "uint8"
        },
        {
          "internalType": "bytes32",
          "name": "r",
          "type": "bytes32"
        },
        {
          "internalType": "bytes32",
          "name": "s",
          "type": "bytes32"
        }
      ],
      "name": "redeemBulkERC1155",
      "outputs": [],
      "stateMutability": "nonpayable",
      "type": "function"
    },
    {
      "inputs": [
        {
          "internalType": "address",
          "name": "_address",
          "type": "address"
        }
      ],
      "name": "getPendingPurchases",
      "outputs": [
        {
          "internalType": "uint256[]",
          "name": "",
          "type": "uint256[]"
        }
      ],
      "stateMutability": "view",
      "type": "function"
    },
    {
      "inputs": [
        {
          "internalType": "address",
          "name": "_address",
          "type": "address"
        }
      ],
      "name": "setFeeAddress",
      "outputs": [],
      "stateMutability": "nonpayable",
      "type": "function"
    },
    {
      "inputs": [
        {
          "internalType": "address",
          "name": "_address",
          "type": "address"
        }
      ],
      "name": "setAuthAddress",
      "outputs": [],
      "stateMutability": "nonpayable",
      "type": "function"
    },
    {
      "inputs": [
        {
          "internalType": "uint256",
          "name": "price",
          "type": "uint256"
        }
      ],
      "name": "setWSDGPrice",
      "outputs": [],
      "stateMutability": "nonpayable",
      "type": "function"
    }
  ],
  "bytecode": "0x608060405234801561001057600080fd5b50604051612447380380612447833981810160405260c081101561003357600080fd5b81019080805190602001909291908051906020019092919080519060200190929190805190602001909291908051906020019092919080519060200190929190505050600061008661024160201b60201c565b9050806000806101000a81548173ffffffffffffffffffffffffffffffffffffffff021916908373ffffffffffffffffffffffffffffffffffffffff1602179055508073ffffffffffffffffffffffffffffffffffffffff16600073ffffffffffffffffffffffffffffffffffffffff167f8be0079c531659141344cd1fd0a4f28419497f9722a3daafe3b4186f6b6457e060405160405180910390a3506001808190555085600560006101000a81548173ffffffffffffffffffffffffffffffffffffffff021916908373ffffffffffffffffffffffffffffffffffffffff16021790555084600660006101000a81548173ffffffffffffffffffffffffffffffffffffffff021916908373ffffffffffffffffffffffffffffffffffffffff16021790555083600360006101000a81548173ffffffffffffffffffffffffffffffffffffffff021916908373ffffffffffffffffffffffffffffffffffffffff16021790555082600460006101000a81548173ffffffffffffffffffffffffffffffffffffffff021916908373ffffffffffffffffffffffffffffffffffffffff16021790555080600281905550505050505050610249565b600033905090565b6121ef806102586000396000f3fe608060405234801561001057600080fd5b50600436106101005760003560e01c80638705fcd411610097578063a64719d711610066578063a64719d71461051b578063b1ea5dee1461054f578063b5f522f71461056d578063f2fde38b146105c557610100565b80638705fcd4146104135780638da5cb5b14610457578063996e75501461048b5780639bd448f2146104ed57610100565b80634a91f195116100d35780634a91f1951461027957806351ed828814610297578063715018a6146102c557806386d77ee9146102cf57610100565b806303710ebb14610105578063102656931461019e57806329163d01146101e25780634127535814610245575b600080fd5b6101476004803603602081101561011b57600080fd5b81019080803573ffffffffffffffffffffffffffffffffffffffff169060200190929190505050610609565b6040518080602001828103825283818151815260200191508051906020019060200280838360005b8381101561018a57808201518184015260208101905061016f565b505050509050019250505060405180910390f35b6101e0600480360360208110156101b457600080fd5b81019080803573ffffffffffffffffffffffffffffffffffffffff169060200190929190505050610769565b005b610243600480360360c08110156101f857600080fd5b81019080803590602001909291908035906020019092919080359060200190929190803560ff16906020019092919080359060200190929190803590602001909291905050506108fd565b005b61024d610d67565b604051808273ffffffffffffffffffffffffffffffffffffffff16815260200191505060405180910390f35b610281610d8d565b6040518082815260200191505060405180910390f35b6102c3600480360360208110156102ad57600080fd5b8101908080359060200190929190505050610d93565b005b6102cd61116c565b005b610411600480360360c08110156102e557600080fd5b810190808035906020019064010000000081111561030257600080fd5b82018360208201111561031457600080fd5b8035906020019184602083028401116401000000008311171561033657600080fd5b90919293919293908035906020019064010000000081111561035757600080fd5b82018360208201111561036957600080fd5b8035906020019184602083028401116401000000008311171561038b57600080fd5b9091929391929390803590602001906401000000008111156103ac57600080fd5b8201836020820111156103be57600080fd5b803590602001918460208302840111640100000000831117156103e057600080fd5b9091929391929390803560ff16906020019092919080359060200190929190803590602001909291905050506112f2565b005b6104556004803603602081101561042957600080fd5b81019080803573ffffffffffffffffffffffffffffffffffffffff169060200190929190505050611928565b005b61045f611abc565b604051808273ffffffffffffffffffffffffffffffffffffffff16815260200191505060405180910390f35b6104d7600480360360408110156104a157600080fd5b81019080803573ffffffffffffffffffffffffffffffffffffffff16906020019092919080359060200190929190505050611ae5565b6040518082815260200191505060405180910390f35b6105196004803603602081101561050357600080fd5b8101908080359060200190929190505050611b16565b005b610523611c70565b604051808273ffffffffffffffffffffffffffffffffffffffff16815260200191505060405180910390f35b610557611c96565b6040518082815260200191505060405180910390f35b6105996004803603602081101561058357600080fd5b8101908080359060200190929190505050611c9c565b604051808273ffffffffffffffffffffffffffffffffffffffff16815260200191505060405180910390f35b610607600480360360208110156105db57600080fd5b81019080803573ffffffffffffffffffffffffffffffffffffffff169060200190929190505050611ccf565b005b60606000600960008473ffffffffffffffffffffffffffffffffffffffff1673ffffffffffffffffffffffffffffffffffffffff1681526020019081526020016000208054905067ffffffffffffffff8111801561066657600080fd5b506040519080825280602002602001820160405280156106955781602001602082028036833780820191505090505b50905060005b600960008573ffffffffffffffffffffffffffffffffffffffff1673ffffffffffffffffffffffffffffffffffffffff1681526020019081526020016000208054905081101561075f57600960008573ffffffffffffffffffffffffffffffffffffffff1673ffffffffffffffffffffffffffffffffffffffff168152602001908152602001600020818154811061072f57fe5b906000526020600020015482828151811061074657fe5b602002602001018181525050808060010191505061069b565b5080915050919050565b610771611eda565b73ffffffffffffffffffffffffffffffffffffffff1660008054906101000a900473ffffffffffffffffffffffffffffffffffffffff1673ffffffffffffffffffffffffffffffffffffffff1614610831576040517f08c379a00000000000000000000000000000000000000000000000000000000081526004018080602001828103825260208152602001807f4f776e61626c653a2063616c6c6572206973206e6f7420746865206f776e657281525060200191505060405180910390fd5b600260015414156108aa576040517f08c379a000000000000000000000000000000000000000000000000000000000815260040180806020018281038252601f8152602001807f5265656e7472616e637947756172643a207265656e7472616e742063616c6c0081525060200191505060405180910390fd5b600260018190555080600460006101000a81548173ffffffffffffffffffffffffffffffffffffffff021916908373ffffffffffffffffffffffffffffffffffffffff1602179055506001808190555050565b60026001541415610976576040517f08c379a000000000000000000000000000000000000000000000000000000000815260040180806020018281038252601f8152602001807f5265656e7472616e637947756172643a207265656e7472616e742063616c6c0081525060200191505060405180910390fd5b6002600181905550610986611eda565b73ffffffffffffffffffffffffffffffffffffffff166008600086815260200190815260200160002060009054906101000a900473ffffffffffffffffffffffffffffffffffffffff1673ffffffffffffffffffffffffffffffffffffffff1614610a59576040517f08c379a000000000000000000000000000000000000000000000000000000000815260040180806020018281038252600b8152602001807f496e76616c69642062657400000000000000000000000000000000000000000081525060200191505060405180910390fd5b6000610a63611eda565b878787604051602001808573ffffffffffffffffffffffffffffffffffffffff16815260200184815260200183815260200182815260200194505050505060405160208183030381529060405280519060200120905060008160405160200180807f19457468657265756d205369676e6564204d6573736167653a0a333200000000815250601c01828152602001915050604051602081830303815290604052805190602001209050600060018287878760405160008152602001604052604051808581526020018460ff1681526020018381526020018281526020019450505050506020604051602081039080840390855afa158015610b68573d6000803e3d6000fd5b505050602060405103519050600460009054906101000a900473ffffffffffffffffffffffffffffffffffffffff1673ffffffffffffffffffffffffffffffffffffffff168173ffffffffffffffffffffffffffffffffffffffff1614610c37576040517f08c379a00000000000000000000000000000000000000000000000000000000081526004018080602001828103825260118152602001807f496e76616c6964207369676e617475726500000000000000000000000000000081525060200191505060405180910390fd5b60006008600089815260200190815260200160002060006101000a81548173ffffffffffffffffffffffffffffffffffffffff021916908373ffffffffffffffffffffffffffffffffffffffff160217905550610c9b610c95611eda565b88611ee2565b600660009054906101000a900473ffffffffffffffffffffffffffffffffffffffff1673ffffffffffffffffffffffffffffffffffffffff1663156e29f6610ce1611eda565b8b8b6040518463ffffffff1660e01b8152600401808473ffffffffffffffffffffffffffffffffffffffff1681526020018381526020018281526020019350505050600060405180830381600087803b158015610d3d57600080fd5b505af1158015610d51573d6000803e3d6000fd5b5050505050505060018081905550505050505050565b600360009054906101000a900473ffffffffffffffffffffffffffffffffffffffff1681565b60075481565b60026001541415610e0c576040517f08c379a000000000000000000000000000000000000000000000000000000000815260040180806020018281038252601f8152602001807f5265656e7472616e637947756172643a207265656e7472616e742063616c6c0081525060200191505060405180910390fd5b600260018190555060008111610e8a576040517f08c379a000000000000000000000000000000000000000000000000000000000815260040180806020018281038252601f8152602001807f4d7573742073656c65637420616e20616d6f756e74206f6620746f6b656e730081525060200191505060405180910390fd5b6000600190505b818111610ffc57610ea0611eda565b60086000610eb984600754611f5790919063ffffffff16565b815260200190815260200160002060006101000a81548173ffffffffffffffffffffffffffffffffffffffff021916908373ffffffffffffffffffffffffffffffffffffffff16021790555060096000610f11611eda565b73ffffffffffffffffffffffffffffffffffffffff1673ffffffffffffffffffffffffffffffffffffffff168152602001908152602001600020610f6082600754611f5790919063ffffffff16565b9080600181540180825580915050600190039060005260206000200160009091909190915055610f9b81600754611f5790919063ffffffff16565b7f7534e9c9396820aad756ba27f82162930f80bef863aabdf311e7dce26a79bccd610fc4611eda565b604051808273ffffffffffffffffffffffffffffffffffffffff16815260200191505060405180910390a28080600101915050610e91565b5061101281600754611f5790919063ffffffff16565b6007819055506000611049670de0b6b3a764000061103b84600254611fdf90919063ffffffff16565b611fdf90919063ffffffff16565b9050600560009054906101000a900473ffffffffffffffffffffffffffffffffffffffff1673ffffffffffffffffffffffffffffffffffffffff166323b872dd611091611eda565b600360009054906101000a900473ffffffffffffffffffffffffffffffffffffffff16846040518463ffffffff1660e01b8152600401808473ffffffffffffffffffffffffffffffffffffffff1681526020018373ffffffffffffffffffffffffffffffffffffffff1681526020018281526020019350505050602060405180830381600087803b15801561112557600080fd5b505af1158015611139573d6000803e3d6000fd5b505050506040513d602081101561114f57600080fd5b810190808051906020019092919050505050506001808190555050565b611174611eda565b73ffffffffffffffffffffffffffffffffffffffff1660008054906101000a900473ffffffffffffffffffffffffffffffffffffffff1673ffffffffffffffffffffffffffffffffffffffff1614611234576040517f08c379a00000000000000000000000000000000000000000000000000000000081526004018080602001828103825260208152602001807f4f776e61626c653a2063616c6c6572206973206e6f7420746865206f776e657281525060200191505060405180910390fd5b600073ffffffffffffffffffffffffffffffffffffffff1660008054906101000a900473ffffffffffffffffffffffffffffffffffffffff1673ffffffffffffffffffffffffffffffffffffffff167f8be0079c531659141344cd1fd0a4f28419497f9722a3daafe3b4186f6b6457e060405160405180910390a360008060006101000a81548173ffffffffffffffffffffffffffffffffffffffff021916908373ffffffffffffffffffffffffffffffffffffffff160217905550565b6002600154141561136b576040517f08c379a000000000000000000000000000000000000000000000000000000000815260040180806020018281038252601f8152602001807f5265656e7472616e637947756172643a207265656e7472616e742063616c6c0081525060200191505060405180910390fd5b6002600181905550600061137d611eda565b8a8a8a8a8a8a604051602001808873ffffffffffffffffffffffffffffffffffffffff16815260200180602001806020018060200184810384528a8a82818152602001925060200280828437600081840152601f19601f8201169050808301925050508481038352888882818152602001925060200280828437600081840152601f19601f8201169050808301925050508481038252868682818152602001925060200280828437600081840152601f19601f8201169050808301925050509a505050505050505050505060405160208183030381529060405280519060200120905060008160405160200180807f19457468657265756d205369676e6564204d6573736167653a0a333200000000815250601c01828152602001915050604051602081830303815290604052805190602001209050600060018287878760405160008152602001604052604051808581526020018460ff1681526020018381526020018281526020019450505050506020604051602081039080840390855afa15801561150f573d6000803e3d6000fd5b505050602060405103519050600460009054906101000a900473ffffffffffffffffffffffffffffffffffffffff1673ffffffffffffffffffffffffffffffffffffffff168173ffffffffffffffffffffffffffffffffffffffff16146115de576040517f08c379a00000000000000000000000000000000000000000000000000000000081526004018080602001828103825260118152602001807f496e76616c6964207369676e617475726500000000000000000000000000000081525060200191505060405180910390fd5b898990508c8c905014611659576040517f08c379a000000000000000000000000000000000000000000000000000000000815260040180806020018281038252601c8152602001807f496e76616c696420696420616e6420616d6f756e74206c656e6774680000000081525060200191505060405180910390fd5b60005b888890508110156117c65761166f611eda565b73ffffffffffffffffffffffffffffffffffffffff16600860008b8b8581811061169557fe5b90506020020135815260200190815260200160002060009054906101000a900473ffffffffffffffffffffffffffffffffffffffff1673ffffffffffffffffffffffffffffffffffffffff1614611754576040517f08c379a000000000000000000000000000000000000000000000000000000000815260040180806020018281038252600f8152602001807f496e76616c69642073616c65206964000000000000000000000000000000000081525060200191505060405180910390fd5b6000600860008b8b8581811061176657fe5b90506020020135815260200190815260200160002060006101000a81548173ffffffffffffffffffffffffffffffffffffffff021916908373ffffffffffffffffffffffffffffffffffffffff160217905550808060010191505061165c565b506118196117d2611eda565b898980806020026020016040519081016040528093929190818152602001838360200280828437600081840152601f19601f82011690508083019250505050505050612065565b60005b8c8c905081101561191257600660009054906101000a900473ffffffffffffffffffffffffffffffffffffffff1673ffffffffffffffffffffffffffffffffffffffff1663156e29f661186d611eda565b8f8f8581811061187957fe5b905060200201358e8e8681811061188c57fe5b905060200201356040518463ffffffff1660e01b8152600401808473ffffffffffffffffffffffffffffffffffffffff1681526020018381526020018281526020019350505050600060405180830381600087803b1580156118ed57600080fd5b505af1158015611901573d6000803e3d6000fd5b50505050808060010191505061181c565b5050505060018081905550505050505050505050565b611930611eda565b73ffffffffffffffffffffffffffffffffffffffff1660008054906101000a900473ffffffffffffffffffffffffffffffffffffffff1673ffffffffffffffffffffffffffffffffffffffff16146119f0576040517f08c379a00000000000000000000000000000000000000000000000000000000081526004018080602001828103825260208152602001807f4f776e61626c653a2063616c6c6572206973206e6f7420746865206f776e657281525060200191505060405180910390fd5b60026001541415611a69576040517f08c379a000000000000000000000000000000000000000000000000000000000815260040180806020018281038252601f8152602001807f5265656e7472616e637947756172643a207265656e7472616e742063616c6c0081525060200191505060405180910390fd5b600260018190555080600360006101000a81548173ffffffffffffffffffffffffffffffffffffffff021916908373ffffffffffffffffffffffffffffffffffffffff1602179055506001808190555050565b60008060009054906101000a900473ffffffffffffffffffffffffffffffffffffffff16905090565b60096020528160005260406000208181548110611b0157600080fd5b90600052602060002001600091509150505481565b611b1e611eda565b73ffffffffffffffffffffffffffffffffffffffff1660008054906101000a900473ffffffffffffffffffffffffffffffffffffffff1673ffffffffffffffffffffffffffffffffffffffff1614611bde576040517f08c379a00000000000000000000000000000000000000000000000000000000081526004018080602001828103825260208152602001807f4f776e61626c653a2063616c6c6572206973206e6f7420746865206f776e657281525060200191505060405180910390fd5b60026001541415611c57576040517f08c379a000000000000000000000000000000000000000000000000000000000815260040180806020018281038252601f8152602001807f5265656e7472616e637947756172643a207265656e7472616e742063616c6c0081525060200191505060405180910390fd5b6002600181905550806002819055506001808190555050565b600460009054906101000a900473ffffffffffffffffffffffffffffffffffffffff1681565b60025481565b60086020528060005260406000206000915054906101000a900473ffffffffffffffffffffffffffffffffffffffff1681565b611cd7611eda565b73ffffffffffffffffffffffffffffffffffffffff1660008054906101000a900473ffffffffffffffffffffffffffffffffffffffff1673ffffffffffffffffffffffffffffffffffffffff1614611d97576040517f08c379a00000000000000000000000000000000000000000000000000000000081526004018080602001828103825260208152602001807f4f776e61626c653a2063616c6c6572206973206e6f7420746865206f776e657281525060200191505060405180910390fd5b600073ffffffffffffffffffffffffffffffffffffffff168173ffffffffffffffffffffffffffffffffffffffff161415611e1d576040517f08c379a00000000000000000000000000000000000000000000000000000000081526004018080602001828103825260268152602001806121736026913960400191505060405180910390fd5b8073ffffffffffffffffffffffffffffffffffffffff1660008054906101000a900473ffffffffffffffffffffffffffffffffffffffff1673ffffffffffffffffffffffffffffffffffffffff167f8be0079c531659141344cd1fd0a4f28419497f9722a3daafe3b4186f6b6457e060405160405180910390a3806000806101000a81548173ffffffffffffffffffffffffffffffffffffffff021916908373ffffffffffffffffffffffffffffffffffffffff16021790555050565b600033905090565b6000600167ffffffffffffffff81118015611efc57600080fd5b50604051908082528060200260200182016040528015611f2b5781602001602082028036833780820191505090505b5090508181600081518110611f3c57fe5b602002602001018181525050611f528382612065565b505050565b600080828401905083811015611fd5576040517f08c379a000000000000000000000000000000000000000000000000000000000815260040180806020018281038252601b8152602001807f536166654d6174683a206164646974696f6e206f766572666c6f77000000000081525060200191505060405180910390fd5b8091505092915050565b600080831415611ff2576000905061205f565b600082840290508284828161200357fe5b041461205a576040517f08c379a00000000000000000000000000000000000000000000000000000000081526004018080602001828103825260218152602001806121996021913960400191505060405180910390fd5b809150505b92915050565b6000600960008473ffffffffffffffffffffffffffffffffffffffff1673ffffffffffffffffffffffffffffffffffffffff168152602001908152602001600020905060005b825181101561216c5760005b828054905081101561215e578281815481106120cf57fe5b90600052602060002001548483815181106120e657fe5b60200260200101511415612151578260018480549050038154811061210757fe5b906000526020600020015483828154811061211e57fe5b90600052602060002001819055508280548061213657fe5b6001900381819060005260206000200160009055905561215e565b80806001019150506120b7565b5080806001019150506120ab565b5050505056fe4f776e61626c653a206e6577206f776e657220697320746865207a65726f2061646472657373536166654d6174683a206d756c7469706c69636174696f6e206f766572666c6f77a2646970667358221220c4e21a708b915e22311b0c4b204b2dba328404987f9e7139fa8df19fc921f7b964736f6c63430007060033",
  "immutableReferences": {},
  "source": "// SPDX-License-Identifier: MIT\n\npragma solidity ^0.7.3;\n\nimport \"./lib/Context.sol\";\nimport \"./lib/SafeMath.sol\";\nimport \"./lib/Ownable.sol\";\nimport \"./lib/IERC20.sol\";\nimport \"./lib/IERC1155.sol\";\nimport \"./lib/ReentrancyGuard.sol\";\n\ncontract NFTSale is Context, Ownable, ReentrancyGuard {\n    using SafeMath for uint256;\n\n    constructor (address wsdgToken, address nftToken, address _feeAddress, address _authAddress, uint256, uint256 _nftWSDGPrice) {\n        WSDG_TOKEN = IERC20(wsdgToken);\n        NFT_TOKEN = IERC1155(nftToken);\n    \n        feeAddress = _feeAddress;\n        authAddress = _authAddress;\n\n        nftWSDGPrice = _nftWSDGPrice;\n    }\n\n    event Buy(uint256 indexed buyId, address account);\n\n    uint256 public nftWSDGPrice;\n    address public feeAddress;\n    address public authAddress;\n    IERC20 private WSDG_TOKEN;\n    IERC1155 private NFT_TOKEN;\n\n\n    uint256 public totalBought;\n    mapping(uint256 => address) public sales;\n    mapping(address => uint256[]) public pendingPurchases;\n\n    function buyNFT(uint256 amount) public nonReentrant {\n        require(amount > 0, \"Must select an amount of tokens\");\n        for (uint256 i = 1; i <= amount; i++) {\n            sales[totalBought.add(i)] = _msgSender();\n            pendingPurchases[_msgSender()].push(totalBought.add(i));\n            emit Buy(totalBought.add(i), _msgSender());\n        }\n        totalBought = totalBought.add(amount);\n        uint256 costWSDG = nftWSDGPrice.mul(amount).mul(1e18);\n        WSDG_TOKEN.transferFrom(_msgSender(), feeAddress, costWSDG);\n    }\n\n    function redeemERC1155(uint256 id, uint256 amount, uint256 saleId, uint8 v, bytes32 r, bytes32 s) public nonReentrant {\n      require(sales[saleId] == _msgSender(), \"Invalid bet\");\n      bytes32 hash = keccak256(abi.encode(_msgSender(), id, amount, saleId));\n      bytes32 messageHash = keccak256(abi.encodePacked(\"\\x19Ethereum Signed Message:\\n32\", hash));\n      address signer = ecrecover(messageHash, v, r, s);\n      require(signer == authAddress, \"Invalid signature\");\n      sales[saleId] = address(0);\n      clearPendingPurchase(_msgSender(), saleId);\n      NFT_TOKEN.mint(_msgSender(), id, amount);\n    }\n    \n    function redeemBulkERC1155(uint256[] calldata id, uint256[] calldata amount, uint256[] calldata saleId, uint8 v, bytes32 r, bytes32 s) public nonReentrant {\n      bytes32 hash = keccak256(abi.encode(_msgSender(), id, amount, saleId));\n      bytes32 messageHash = keccak256(abi.encodePacked(\"\\x19Ethereum Signed Message:\\n32\", hash));\n      address signer = ecrecover(messageHash, v, r, s);\n      require(signer == authAddress, \"Invalid signature\");\n      require(id.length == amount.length, \"Invalid id and amount length\");\n\n      for (uint256 i = 0; i < saleId.length; i++) {\n          require(sales[saleId[i]] == _msgSender(), \"Invalid sale id\");\n          sales[saleId[i]] = address(0);\n      }\n\n      clearPendingPurchases(_msgSender(), saleId);\n  \n      for (uint256 i = 0; i < id.length; i++) {\n        NFT_TOKEN.mint(_msgSender(), id[i], amount[i]);\n      }\n    }\n\n    function getPendingPurchases(address _address) public view returns(uint256[] memory) {\n      uint256[] memory purchases = new uint256[](pendingPurchases[_address].length);\n      for (uint256 i = 0; i < pendingPurchases[_address].length; i++) {\n        purchases[i] = pendingPurchases[_address][i];\n      }\n      return purchases;\n    }\n\n    function clearPendingPurchase(address _address, uint256 purchase) internal {\n      uint256[] memory purchases = new uint256[](1);\n      purchases[0] = purchase;\n      clearPendingPurchases(_address, purchases);\n    }\n    \n    function clearPendingPurchases(address _address, uint256[] memory purchases) internal {\n      uint256[] storage data = pendingPurchases[_address];\n      for (uint256 i = 0; i < purchases.length; i++) {\n        for (uint256 j = 0; j < data.length; j++) { \n          if (purchases[i] == data[j]) {\n            data[j] = data[data.length - 1];\n            data.pop();\n            break;\n          }\n        }\n      }\n    }\n\n    function setFeeAddress(address _address) public onlyOwner nonReentrant {\n        feeAddress = _address;\n    }\n\n    function setAuthAddress(address _address) public onlyOwner nonReentrant {\n        authAddress = _address;\n    }\n\n    function setWSDGPrice(uint256 price) public onlyOwner nonReentrant {\n      nftWSDGPrice = price;\n    }\n\n}\n",
  "sourcePath": "/home/alexander87/Desktop/WSDG/contracts/DogcardBuy.sol",
  "compiler": {
    "name": "solc",
    "version": "0.7.6+commit.7338295f.Emscripten.clang"
  },
  "schemaVersion": "3.3.4",
  "updatedAt": "2021-02-18T19:58:56.894Z",
  "devdoc": {
    "kind": "dev",
    "methods": {
      "owner()": {
        "details": "Returns the address of the current owner."
      },
      "renounceOwnership()": {
        "details": "Leaves the contract without owner. It will not be possible to call `onlyOwner` functions anymore. Can only be called by the current owner. NOTE: Renouncing ownership will leave the contract without an owner, thereby removing any functionality that is only available to the owner."
      },
      "transferOwnership(address)": {
        "details": "Transfers ownership of the contract to a new account (`newOwner`). Can only be called by the current owner."
      }
    },
    "version": 1
  },
  "userdoc": {
    "kind": "user",
    "methods": {},
    "version": 1
  }
}