{
  "contractName": "NFTSale",
  "abi": [
    {
      "inputs": [
        {
          "internalType": "address",
          "name": "wsdgToken",
          "type": "address"
        },
        {
          "internalType": "address",
          "name": "nftToken",
          "type": "address"
        },
        {
          "internalType": "address",
          "name": "_feeAddress",
          "type": "address"
        },
        {
          "internalType": "address",
          "name": "_authAddress",
          "type": "address"
        },
        {
          "internalType": "uint256",
          "name": "",
          "type": "uint256"
        },
        {
          "internalType": "uint256",
          "name": "_nftWSDGPrice",
          "type": "uint256"
        }
      ],
      "stateMutability": "nonpayable",
      "type": "constructor"
    },
    {
      "anonymous": false,
      "inputs": [
        {
          "indexed": true,
          "internalType": "uint256",
          "name": "buyId",
          "type": "uint256"
        },
        {
          "indexed": false,
          "internalType": "address",
          "name": "account",
          "type": "address"
        }
      ],
      "name": "Buy",
      "type": "event"
    },
    {
      "anonymous": false,
      "inputs": [
        {
          "indexed": true,
          "internalType": "address",
          "name": "previousOwner",
          "type": "address"
        },
        {
          "indexed": true,
          "internalType": "address",
          "name": "newOwner",
          "type": "address"
        }
      ],
      "name": "OwnershipTransferred",
      "type": "event"
    },
    {
      "inputs": [],
      "name": "authAddress",
      "outputs": [
        {
          "internalType": "address",
          "name": "",
          "type": "address"
        }
      ],
      "stateMutability": "view",
      "type": "function"
    },
    {
      "inputs": [],
      "name": "feeAddress",
      "outputs": [
        {
          "internalType": "address",
          "name": "",
          "type": "address"
        }
      ],
      "stateMutability": "view",
      "type": "function"
    },
    {
      "inputs": [],
      "name": "nftWSDGPrice",
      "outputs": [
        {
          "internalType": "uint256",
          "name": "",
          "type": "uint256"
        }
      ],
      "stateMutability": "view",
      "type": "function"
    },
    {
      "inputs": [],
      "name": "owner",
      "outputs": [
        {
          "internalType": "address",
          "name": "",
          "type": "address"
        }
      ],
      "stateMutability": "view",
      "type": "function"
    },
    {
      "inputs": [
        {
          "internalType": "address",
          "name": "",
          "type": "address"
        },
        {
          "internalType": "uint256",
          "name": "",
          "type": "uint256"
        }
      ],
      "name": "pendingPurchases",
      "outputs": [
        {
          "internalType": "uint256",
          "name": "",
          "type": "uint256"
        }
      ],
      "stateMutability": "view",
      "type": "function"
    },
    {
      "inputs": [],
      "name": "renounceOwnership",
      "outputs": [],
      "stateMutability": "nonpayable",
      "type": "function"
    },
    {
      "inputs": [
        {
          "internalType": "uint256",
          "name": "",
          "type": "uint256"
        }
      ],
      "name": "sales",
      "outputs": [
        {
          "internalType": "address",
          "name": "",
          "type": "address"
        }
      ],
      "stateMutability": "view",
      "type": "function"
    },
    {
      "inputs": [],
      "name": "totalBought",
      "outputs": [
        {
          "internalType": "uint256",
          "name": "",
          "type": "uint256"
        }
      ],
      "stateMutability": "view",
      "type": "function"
    },
    {
      "inputs": [
        {
          "internalType": "address",
          "name": "newOwner",
          "type": "address"
        }
      ],
      "name": "transferOwnership",
      "outputs": [],
      "stateMutability": "nonpayable",
      "type": "function"
    },
    {
      "inputs": [
        {
          "internalType": "uint256",
          "name": "amount",
          "type": "uint256"
        }
      ],
      "name": "buyNFT",
      "outputs": [],
      "stateMutability": "nonpayable",
      "type": "function"
    },
    {
      "inputs": [
        {
          "internalType": "uint256",
          "name": "id",
          "type": "uint256"
        },
        {
          "internalType": "uint256",
          "name": "amount",
          "type": "uint256"
        },
        {
          "internalType": "uint256",
          "name": "saleId",
          "type": "uint256"
        },
        {
          "internalType": "uint8",
          "name": "v",
          "type": "uint8"
        },
        {
          "internalType": "bytes32",
          "name": "r",
          "type": "bytes32"
        },
        {
          "internalType": "bytes32",
          "name": "s",
          "type": "bytes32"
        }
      ],
      "name": "redeemERC1155",
      "outputs": [],
      "stateMutability": "nonpayable",
      "type": "function"
    },
    {
      "inputs": [
        {
          "internalType": "uint256[]",
          "name": "id",
          "type": "uint256[]"
        },
        {
          "internalType": "uint256[]",
          "name": "amount",
          "type": "uint256[]"
        },
        {
          "internalType": "uint256[]",
          "name": "saleId",
          "type": "uint256[]"
        },
        {
          "internalType": "uint8",
          "name": "v",
          "type": "uint8"
        },
        {
          "internalType": "bytes32",
          "name": "r",
          "type": "bytes32"
        },
        {
          "internalType": "bytes32",
          "name": "s",
          "type": "bytes32"
        }
      ],
      "name": "redeemBulkERC1155",
      "outputs": [],
      "stateMutability": "nonpayable",
      "type": "function"
    },
    {
      "inputs": [
        {
          "internalType": "address",
          "name": "_address",
          "type": "address"
        }
      ],
      "name": "getPendingPurchases",
      "outputs": [
        {
          "internalType": "uint256[]",
          "name": "",
          "type": "uint256[]"
        }
      ],
      "stateMutability": "view",
      "type": "function"
    },
    {
      "inputs": [
        {
          "internalType": "address",
          "name": "_address",
          "type": "address"
        }
      ],
      "name": "setFeeAddress",
      "outputs": [],
      "stateMutability": "nonpayable",
      "type": "function"
    },
    {
      "inputs": [
        {
          "internalType": "address",
          "name": "_address",
          "type": "address"
        }
      ],
      "name": "setAuthAddress",
      "outputs": [],
      "stateMutability": "nonpayable",
      "type": "function"
    },
    {
      "inputs": [
        {
          "internalType": "uint256",
          "name": "price",
          "type": "uint256"
        }
      ],
      "name": "setWSDGPrice",
      "outputs": [],
      "stateMutability": "nonpayable",
      "type": "function"
    }
  ],
  "bytecode": "0x608060405234801561001057600080fd5b506040516124bd3803806124bd833981810160405260c081101561003357600080fd5b81019080805190602001909291908051906020019092919080519060200190929190805190602001909291908051906020019092919080519060200190929190505050600061008f61024a640100000000026401000000009004565b9050806000806101000a81548173ffffffffffffffffffffffffffffffffffffffff021916908373ffffffffffffffffffffffffffffffffffffffff1602179055508073ffffffffffffffffffffffffffffffffffffffff16600073ffffffffffffffffffffffffffffffffffffffff167f8be0079c531659141344cd1fd0a4f28419497f9722a3daafe3b4186f6b6457e060405160405180910390a3506001808190555085600560006101000a81548173ffffffffffffffffffffffffffffffffffffffff021916908373ffffffffffffffffffffffffffffffffffffffff16021790555084600660006101000a81548173ffffffffffffffffffffffffffffffffffffffff021916908373ffffffffffffffffffffffffffffffffffffffff16021790555083600360006101000a81548173ffffffffffffffffffffffffffffffffffffffff021916908373ffffffffffffffffffffffffffffffffffffffff16021790555082600460006101000a81548173ffffffffffffffffffffffffffffffffffffffff021916908373ffffffffffffffffffffffffffffffffffffffff16021790555080600281905550505050505050610252565b600033905090565b61225c806102616000396000f3fe608060405234801561001057600080fd5b506004361061011d576000357c0100000000000000000000000000000000000000000000000000000000900480638705fcd4116100b4578063a64719d711610083578063a64719d714610538578063b1ea5dee1461056c578063b5f522f71461058a578063f2fde38b146105e25761011d565b80638705fcd4146104305780638da5cb5b14610474578063996e7550146104a85780639bd448f21461050a5761011d565b80634a91f195116100f05780634a91f1951461029657806351ed8288146102b4578063715018a6146102e257806386d77ee9146102ec5761011d565b806303710ebb1461012257806310265693146101bb57806329163d01146101ff5780634127535814610262575b600080fd5b6101646004803603602081101561013857600080fd5b81019080803573ffffffffffffffffffffffffffffffffffffffff169060200190929190505050610626565b6040518080602001828103825283818151815260200191508051906020019060200280838360005b838110156101a757808201518184015260208101905061018c565b505050509050019250505060405180910390f35b6101fd600480360360208110156101d157600080fd5b81019080803573ffffffffffffffffffffffffffffffffffffffff169060200190929190505050610785565b005b610260600480360360c081101561021557600080fd5b81019080803590602001909291908035906020019092919080359060200190929190803560ff1690602001909291908035906020019092919080359060200190929190505050610919565b005b61026a610d9f565b604051808273ffffffffffffffffffffffffffffffffffffffff16815260200191505060405180910390f35b61029e610dc5565b6040518082815260200191505060405180910390f35b6102e0600480360360208110156102ca57600080fd5b8101908080359060200190929190505050610dcb565b005b6102ea6111c0565b005b61042e600480360360c081101561030257600080fd5b810190808035906020019064010000000081111561031f57600080fd5b82018360208201111561033157600080fd5b8035906020019184602083028401116401000000008311171561035357600080fd5b90919293919293908035906020019064010000000081111561037457600080fd5b82018360208201111561038657600080fd5b803590602001918460208302840111640100000000831117156103a857600080fd5b9091929391929390803590602001906401000000008111156103c957600080fd5b8201836020820111156103db57600080fd5b803590602001918460208302840111640100000000831117156103fd57600080fd5b9091929391929390803560ff1690602001909291908035906020019092919080359060200190929190505050611346565b005b6104726004803603602081101561044657600080fd5b81019080803573ffffffffffffffffffffffffffffffffffffffff169060200190929190505050611998565b005b61047c611b2c565b604051808273ffffffffffffffffffffffffffffffffffffffff16815260200191505060405180910390f35b6104f4600480360360408110156104be57600080fd5b81019080803573ffffffffffffffffffffffffffffffffffffffff16906020019092919080359060200190929190505050611b55565b6040518082815260200191505060405180910390f35b6105366004803603602081101561052057600080fd5b8101908080359060200190929190505050611b83565b005b610540611cdd565b604051808273ffffffffffffffffffffffffffffffffffffffff16815260200191505060405180910390f35b610574611d03565b6040518082815260200191505060405180910390f35b6105b6600480360360208110156105a057600080fd5b8101908080359060200190929190505050611d09565b604051808273ffffffffffffffffffffffffffffffffffffffff16815260200191505060405180910390f35b610624600480360360208110156105f857600080fd5b81019080803573ffffffffffffffffffffffffffffffffffffffff169060200190929190505050611d3c565b005b606080600960008473ffffffffffffffffffffffffffffffffffffffff1673ffffffffffffffffffffffffffffffffffffffff1681526020019081526020016000208054905067ffffffffffffffff8111801561068257600080fd5b506040519080825280602002602001820160405280156106b15781602001602082028036833780820191505090505b50905060005b600960008573ffffffffffffffffffffffffffffffffffffffff1673ffffffffffffffffffffffffffffffffffffffff1681526020019081526020016000208054905081101561077b57600960008573ffffffffffffffffffffffffffffffffffffffff1673ffffffffffffffffffffffffffffffffffffffff168152602001908152602001600020818154811061074b57fe5b906000526020600020015482828151811061076257fe5b60200260200101818152505080806001019150506106b7565b5080915050919050565b61078d611f47565b73ffffffffffffffffffffffffffffffffffffffff1660008054906101000a900473ffffffffffffffffffffffffffffffffffffffff1673ffffffffffffffffffffffffffffffffffffffff161461084d576040517f08c379a00000000000000000000000000000000000000000000000000000000081526004018080602001828103825260208152602001807f4f776e61626c653a2063616c6c6572206973206e6f7420746865206f776e657281525060200191505060405180910390fd5b600260015414156108c6576040517f08c379a000000000000000000000000000000000000000000000000000000000815260040180806020018281038252601f8152602001807f5265656e7472616e637947756172643a207265656e7472616e742063616c6c0081525060200191505060405180910390fd5b600260018190555080600460006101000a81548173ffffffffffffffffffffffffffffffffffffffff021916908373ffffffffffffffffffffffffffffffffffffffff1602179055506001808190555050565b60026001541415610992576040517f08c379a000000000000000000000000000000000000000000000000000000000815260040180806020018281038252601f8152602001807f5265656e7472616e637947756172643a207265656e7472616e742063616c6c0081525060200191505060405180910390fd5b60026001819055506109a2611f47565b73ffffffffffffffffffffffffffffffffffffffff166008600086815260200190815260200160002060009054906101000a900473ffffffffffffffffffffffffffffffffffffffff1673ffffffffffffffffffffffffffffffffffffffff1614610a75576040517f08c379a000000000000000000000000000000000000000000000000000000000815260040180806020018281038252600b8152602001807f496e76616c69642062657400000000000000000000000000000000000000000081525060200191505060405180910390fd5b6000610a7f611f47565b878787604051602001808573ffffffffffffffffffffffffffffffffffffffff16815260200184815260200183815260200182815260200194505050505060405160208183030381529060405280519060200120905060008160405160200180807f19457468657265756d205369676e6564204d6573736167653a0a333200000000815250601c01828152602001915050604051602081830303815290604052805190602001209050600060018287878760405160008152602001604052604051808581526020018460ff1681526020018381526020018281526020019450505050506020604051602081039080840390855afa158015610b84573d6000803e3d6000fd5b505050602060405103519050600460009054906101000a900473ffffffffffffffffffffffffffffffffffffffff1673ffffffffffffffffffffffffffffffffffffffff168173ffffffffffffffffffffffffffffffffffffffff1614610c53576040517f08c379a00000000000000000000000000000000000000000000000000000000081526004018080602001828103825260118152602001807f496e76616c6964207369676e617475726500000000000000000000000000000081525060200191505060405180910390fd5b60006008600089815260200190815260200160002060006101000a81548173ffffffffffffffffffffffffffffffffffffffff021916908373ffffffffffffffffffffffffffffffffffffffff160217905550610cb7610cb1611f47565b88611f4f565b600660009054906101000a900473ffffffffffffffffffffffffffffffffffffffff1673ffffffffffffffffffffffffffffffffffffffff1663156e29f6610cfd611f47565b8b8b6040518463ffffffff167c0100000000000000000000000000000000000000000000000000000000028152600401808473ffffffffffffffffffffffffffffffffffffffff1681526020018381526020018281526020019350505050600060405180830381600087803b158015610d7557600080fd5b505af1158015610d89573d6000803e3d6000fd5b5050505050505060018081905550505050505050565b600360009054906101000a900473ffffffffffffffffffffffffffffffffffffffff1681565b60075481565b60026001541415610e44576040517f08c379a000000000000000000000000000000000000000000000000000000000815260040180806020018281038252601f8152602001807f5265656e7472616e637947756172643a207265656e7472616e742063616c6c0081525060200191505060405180910390fd5b600260018190555060008111610ec2576040517f08c379a000000000000000000000000000000000000000000000000000000000815260040180806020018281038252601f8152602001807f4d7573742073656c65637420616e20616d6f756e74206f6620746f6b656e730081525060200191505060405180910390fd5b6000600190505b81811161103457610ed8611f47565b60086000610ef184600754611fc490919063ffffffff16565b815260200190815260200160002060006101000a81548173ffffffffffffffffffffffffffffffffffffffff021916908373ffffffffffffffffffffffffffffffffffffffff16021790555060096000610f49611f47565b73ffffffffffffffffffffffffffffffffffffffff1673ffffffffffffffffffffffffffffffffffffffff168152602001908152602001600020610f9882600754611fc490919063ffffffff16565b9080600181540180825580915050600190039060005260206000200160009091909190915055610fd381600754611fc490919063ffffffff16565b7f7534e9c9396820aad756ba27f82162930f80bef863aabdf311e7dce26a79bccd610ffc611f47565b604051808273ffffffffffffffffffffffffffffffffffffffff16815260200191505060405180910390a28080600101915050610ec9565b5061104a81600754611fc490919063ffffffff16565b6007819055506000611081670de0b6b3a76400006110738460025461204c90919063ffffffff16565b61204c90919063ffffffff16565b9050600560009054906101000a900473ffffffffffffffffffffffffffffffffffffffff1673ffffffffffffffffffffffffffffffffffffffff166323b872dd6110c9611f47565b600360009054906101000a900473ffffffffffffffffffffffffffffffffffffffff16846040518463ffffffff167c0100000000000000000000000000000000000000000000000000000000028152600401808473ffffffffffffffffffffffffffffffffffffffff1681526020018373ffffffffffffffffffffffffffffffffffffffff1681526020018281526020019350505050602060405180830381600087803b15801561117957600080fd5b505af115801561118d573d6000803e3d6000fd5b505050506040513d60208110156111a357600080fd5b810190808051906020019092919050505050506001808190555050565b6111c8611f47565b73ffffffffffffffffffffffffffffffffffffffff1660008054906101000a900473ffffffffffffffffffffffffffffffffffffffff1673ffffffffffffffffffffffffffffffffffffffff1614611288576040517f08c379a00000000000000000000000000000000000000000000000000000000081526004018080602001828103825260208152602001807f4f776e61626c653a2063616c6c6572206973206e6f7420746865206f776e657281525060200191505060405180910390fd5b600073ffffffffffffffffffffffffffffffffffffffff1660008054906101000a900473ffffffffffffffffffffffffffffffffffffffff1673ffffffffffffffffffffffffffffffffffffffff167f8be0079c531659141344cd1fd0a4f28419497f9722a3daafe3b4186f6b6457e060405160405180910390a360008060006101000a81548173ffffffffffffffffffffffffffffffffffffffff021916908373ffffffffffffffffffffffffffffffffffffffff160217905550565b600260015414156113bf576040517f08c379a000000000000000000000000000000000000000000000000000000000815260040180806020018281038252601f8152602001807f5265656e7472616e637947756172643a207265656e7472616e742063616c6c0081525060200191505060405180910390fd5b600260018190555060006113d1611f47565b8a8a8a8a8a8a604051602001808873ffffffffffffffffffffffffffffffffffffffff16815260200180602001806020018060200184810384528a8a82818152602001925060200280828437600081840152601f19601f8201169050808301925050508481038352888882818152602001925060200280828437600081840152601f19601f8201169050808301925050508481038252868682818152602001925060200280828437600081840152601f19601f8201169050808301925050509a505050505050505050505060405160208183030381529060405280519060200120905060008160405160200180807f19457468657265756d205369676e6564204d6573736167653a0a333200000000815250601c01828152602001915050604051602081830303815290604052805190602001209050600060018287878760405160008152602001604052604051808581526020018460ff1681526020018381526020018281526020019450505050506020604051602081039080840390855afa158015611563573d6000803e3d6000fd5b505050602060405103519050600460009054906101000a900473ffffffffffffffffffffffffffffffffffffffff1673ffffffffffffffffffffffffffffffffffffffff168173ffffffffffffffffffffffffffffffffffffffff1614611632576040517f08c379a00000000000000000000000000000000000000000000000000000000081526004018080602001828103825260118152602001807f496e76616c6964207369676e617475726500000000000000000000000000000081525060200191505060405180910390fd5b898990508c8c9050146116ad576040517f08c379a000000000000000000000000000000000000000000000000000000000815260040180806020018281038252601c8152602001807f496e76616c696420696420616e6420616d6f756e74206c656e6774680000000081525060200191505060405180910390fd5b60005b8888905081101561181a576116c3611f47565b73ffffffffffffffffffffffffffffffffffffffff16600860008b8b858181106116e957fe5b90506020020135815260200190815260200160002060009054906101000a900473ffffffffffffffffffffffffffffffffffffffff1673ffffffffffffffffffffffffffffffffffffffff16146117a8576040517f08c379a000000000000000000000000000000000000000000000000000000000815260040180806020018281038252600f8152602001807f496e76616c69642073616c65206964000000000000000000000000000000000081525060200191505060405180910390fd5b6000600860008b8b858181106117ba57fe5b90506020020135815260200190815260200160002060006101000a81548173ffffffffffffffffffffffffffffffffffffffff021916908373ffffffffffffffffffffffffffffffffffffffff16021790555080806001019150506116b0565b5061186d611826611f47565b898980806020026020016040519081016040528093929190818152602001838360200280828437600081840152601f19601f820116905080830192505050505050506120d2565b60005b8c8c905081101561198257600660009054906101000a900473ffffffffffffffffffffffffffffffffffffffff1673ffffffffffffffffffffffffffffffffffffffff1663156e29f66118c1611f47565b8f8f858181106118cd57fe5b905060200201358e8e868181106118e057fe5b905060200201356040518463ffffffff167c0100000000000000000000000000000000000000000000000000000000028152600401808473ffffffffffffffffffffffffffffffffffffffff1681526020018381526020018281526020019350505050600060405180830381600087803b15801561195d57600080fd5b505af1158015611971573d6000803e3d6000fd5b505050508080600101915050611870565b5050505060018081905550505050505050505050565b6119a0611f47565b73ffffffffffffffffffffffffffffffffffffffff1660008054906101000a900473ffffffffffffffffffffffffffffffffffffffff1673ffffffffffffffffffffffffffffffffffffffff1614611a60576040517f08c379a00000000000000000000000000000000000000000000000000000000081526004018080602001828103825260208152602001807f4f776e61626c653a2063616c6c6572206973206e6f7420746865206f776e657281525060200191505060405180910390fd5b60026001541415611ad9576040517f08c379a000000000000000000000000000000000000000000000000000000000815260040180806020018281038252601f8152602001807f5265656e7472616e637947756172643a207265656e7472616e742063616c6c0081525060200191505060405180910390fd5b600260018190555080600360006101000a81548173ffffffffffffffffffffffffffffffffffffffff021916908373ffffffffffffffffffffffffffffffffffffffff1602179055506001808190555050565b60008060009054906101000a900473ffffffffffffffffffffffffffffffffffffffff16905090565b60096020528160005260406000208181548110611b6e57fe5b90600052602060002001600091509150505481565b611b8b611f47565b73ffffffffffffffffffffffffffffffffffffffff1660008054906101000a900473ffffffffffffffffffffffffffffffffffffffff1673ffffffffffffffffffffffffffffffffffffffff1614611c4b576040517f08c379a00000000000000000000000000000000000000000000000000000000081526004018080602001828103825260208152602001807f4f776e61626c653a2063616c6c6572206973206e6f7420746865206f776e657281525060200191505060405180910390fd5b60026001541415611cc4576040517f08c379a000000000000000000000000000000000000000000000000000000000815260040180806020018281038252601f8152602001807f5265656e7472616e637947756172643a207265656e7472616e742063616c6c0081525060200191505060405180910390fd5b6002600181905550806002819055506001808190555050565b600460009054906101000a900473ffffffffffffffffffffffffffffffffffffffff1681565b60025481565b60086020528060005260406000206000915054906101000a900473ffffffffffffffffffffffffffffffffffffffff1681565b611d44611f47565b73ffffffffffffffffffffffffffffffffffffffff1660008054906101000a900473ffffffffffffffffffffffffffffffffffffffff1673ffffffffffffffffffffffffffffffffffffffff1614611e04576040517f08c379a00000000000000000000000000000000000000000000000000000000081526004018080602001828103825260208152602001807f4f776e61626c653a2063616c6c6572206973206e6f7420746865206f776e657281525060200191505060405180910390fd5b600073ffffffffffffffffffffffffffffffffffffffff168173ffffffffffffffffffffffffffffffffffffffff161415611e8a576040517f08c379a00000000000000000000000000000000000000000000000000000000081526004018080602001828103825260268152602001806121e06026913960400191505060405180910390fd5b8073ffffffffffffffffffffffffffffffffffffffff1660008054906101000a900473ffffffffffffffffffffffffffffffffffffffff1673ffffffffffffffffffffffffffffffffffffffff167f8be0079c531659141344cd1fd0a4f28419497f9722a3daafe3b4186f6b6457e060405160405180910390a3806000806101000a81548173ffffffffffffffffffffffffffffffffffffffff021916908373ffffffffffffffffffffffffffffffffffffffff16021790555050565b600033905090565b6060600167ffffffffffffffff81118015611f6957600080fd5b50604051908082528060200260200182016040528015611f985781602001602082028036833780820191505090505b5090508181600081518110611fa957fe5b602002602001018181525050611fbf83826120d2565b505050565b600080828401905083811015612042576040517f08c379a000000000000000000000000000000000000000000000000000000000815260040180806020018281038252601b8152602001807f536166654d6174683a206164646974696f6e206f766572666c6f77000000000081525060200191505060405180910390fd5b8091505092915050565b60008083141561205f57600090506120cc565b600082840290508284828161207057fe5b04146120c7576040517f08c379a00000000000000000000000000000000000000000000000000000000081526004018080602001828103825260218152602001806122066021913960400191505060405180910390fd5b809150505b92915050565b6000600960008473ffffffffffffffffffffffffffffffffffffffff1673ffffffffffffffffffffffffffffffffffffffff168152602001908152602001600020905060005b82518110156121d95760005b82805490508110156121cb5782818154811061213c57fe5b906000526020600020015484838151811061215357fe5b602002602001015114156121be578260018480549050038154811061217457fe5b906000526020600020015483828154811061218b57fe5b9060005260206000200181905550828054806121a357fe5b600190038181906000526020600020016000905590556121cb565b8080600101915050612124565b508080600101915050612118565b5050505056fe4f776e61626c653a206e6577206f776e657220697320746865207a65726f2061646472657373536166654d6174683a206d756c7469706c69636174696f6e206f766572666c6f77a2646970667358221220fd698b9ae4a875dbfe11e9e6c00fa678192749abf58804aac063376dd148c17264736f6c63430007030033",
  "immutableReferences": {},
  "source": "// SPDX-License-Identifier: MIT\n\npragma solidity 0.7.3;\n\nimport \"./lib/Context.sol\";\nimport \"./lib/SafeMath.sol\";\nimport \"./lib/Ownable.sol\";\nimport \"./lib/IERC20.sol\";\nimport \"./lib/IERC1155.sol\";\nimport \"./lib/ReentrancyGuard.sol\";\n\ncontract NFTSale is Context, Ownable, ReentrancyGuard {\n    using SafeMath for uint256;\n\n    constructor (address wsdgToken, address nftToken, address _feeAddress, address _authAddress, uint256, uint256 _nftWSDGPrice) {\n        WSDG_TOKEN = IERC20(wsdgToken);\n        NFT_TOKEN = IERC1155(nftToken);\n    \n        feeAddress = _feeAddress;\n        authAddress = _authAddress;\n\n        nftWSDGPrice = _nftWSDGPrice;\n    }\n\n    event Buy(uint256 indexed buyId, address account);\n\n    uint256 public nftWSDGPrice;\n    address public feeAddress;\n    address public authAddress;\n    IERC20 private WSDG_TOKEN;\n    IERC1155 private NFT_TOKEN;\n\n\n    uint256 public totalBought;\n    mapping(uint256 => address) public sales;\n    mapping(address => uint256[]) public pendingPurchases;\n\n    function buyNFT(uint256 amount) public nonReentrant {\n        require(amount > 0, \"Must select an amount of tokens\");\n        for (uint256 i = 1; i <= amount; i++) {\n            sales[totalBought.add(i)] = _msgSender();\n            pendingPurchases[_msgSender()].push(totalBought.add(i));\n            emit Buy(totalBought.add(i), _msgSender());\n        }\n        totalBought = totalBought.add(amount);\n        uint256 costWSDG = nftWSDGPrice.mul(amount).mul(1e18);\n        WSDG_TOKEN.transferFrom(_msgSender(), feeAddress, costWSDG);\n    }\n\n    function redeemERC1155(uint256 id, uint256 amount, uint256 saleId, uint8 v, bytes32 r, bytes32 s) public nonReentrant {\n      require(sales[saleId] == _msgSender(), \"Invalid bet\");\n      bytes32 hash = keccak256(abi.encode(_msgSender(), id, amount, saleId));\n      bytes32 messageHash = keccak256(abi.encodePacked(\"\\x19Ethereum Signed Message:\\n32\", hash));\n      address signer = ecrecover(messageHash, v, r, s);\n      require(signer == authAddress, \"Invalid signature\");\n      sales[saleId] = address(0);\n      clearPendingPurchase(_msgSender(), saleId);\n      NFT_TOKEN.mint(_msgSender(), id, amount);\n    }\n    \n    function redeemBulkERC1155(uint256[] calldata id, uint256[] calldata amount, uint256[] calldata saleId, uint8 v, bytes32 r, bytes32 s) public nonReentrant {\n      bytes32 hash = keccak256(abi.encode(_msgSender(), id, amount, saleId));\n      bytes32 messageHash = keccak256(abi.encodePacked(\"\\x19Ethereum Signed Message:\\n32\", hash));\n      address signer = ecrecover(messageHash, v, r, s);\n      require(signer == authAddress, \"Invalid signature\");\n      require(id.length == amount.length, \"Invalid id and amount length\");\n\n      for (uint256 i = 0; i < saleId.length; i++) {\n          require(sales[saleId[i]] == _msgSender(), \"Invalid sale id\");\n          sales[saleId[i]] = address(0);\n      }\n\n      clearPendingPurchases(_msgSender(), saleId);\n  \n      for (uint256 i = 0; i < id.length; i++) {\n        NFT_TOKEN.mint(_msgSender(), id[i], amount[i]);\n      }\n    }\n\n    function getPendingPurchases(address _address) public view returns(uint256[] memory) {\n      uint256[] memory purchases = new uint256[](pendingPurchases[_address].length);\n      for (uint256 i = 0; i < pendingPurchases[_address].length; i++) {\n        purchases[i] = pendingPurchases[_address][i];\n      }\n      return purchases;\n    }\n\n    function clearPendingPurchase(address _address, uint256 purchase) internal {\n      uint256[] memory purchases = new uint256[](1);\n      purchases[0] = purchase;\n      clearPendingPurchases(_address, purchases);\n    }\n    \n    function clearPendingPurchases(address _address, uint256[] memory purchases) internal {\n      uint256[] storage data = pendingPurchases[_address];\n      for (uint256 i = 0; i < purchases.length; i++) {\n        for (uint256 j = 0; j < data.length; j++) { \n          if (purchases[i] == data[j]) {\n            data[j] = data[data.length - 1];\n            data.pop();\n            break;\n          }\n        }\n      }\n    }\n\n    function setFeeAddress(address _address) public onlyOwner nonReentrant {\n        feeAddress = _address;\n    }\n\n    function setAuthAddress(address _address) public onlyOwner nonReentrant {\n        authAddress = _address;\n    }\n\n    function setWSDGPrice(uint256 price) public onlyOwner nonReentrant {\n      nftWSDGPrice = price;\n    }\n\n}",
  "sourcePath": "/home/alexander87/Desktop/WSDG/contracts/DogcardBuy.sol",
  "compiler": {
    "name": "solc",
    "version": "0.7.3+commit.9bfce1f6.Emscripten.clang"
  },
  "schemaVersion": "3.3.4",
  "updatedAt": "2021-02-18T15:29:40.450Z",
  "devdoc": {
    "kind": "dev",
    "methods": {
      "owner()": {
        "details": "Returns the address of the current owner."
      },
      "renounceOwnership()": {
        "details": "Leaves the contract without owner. It will not be possible to call `onlyOwner` functions anymore. Can only be called by the current owner. NOTE: Renouncing ownership will leave the contract without an owner, thereby removing any functionality that is only available to the owner."
      },
      "transferOwnership(address)": {
        "details": "Transfers ownership of the contract to a new account (`newOwner`). Can only be called by the current owner."
      }
    },
    "version": 1
  },
  "userdoc": {
    "kind": "user",
    "methods": {},
    "version": 1
  }
}